{
	"contracts/stakers.sol": {
		"EAIUtilities": {
			"abi": [
				{
					"inputs": [],
					"name": "getStakers",
					"outputs": [
						{
							"internalType": "uint256",
							"name": "totalStakers",
							"type": "uint256"
						},
						{
							"components": [
								{
									"internalType": "address",
									"name": "user",
									"type": "address"
								},
								{
									"internalType": "uint256",
									"name": "balance",
									"type": "uint256"
								}
							],
							"internalType": "struct WalletBalance[]",
							"name": "wallets",
							"type": "tuple[]"
						}
					],
					"stateMutability": "view",
					"type": "function"
				},
				{
					"inputs": [
						{
							"internalType": "address",
							"name": "wallet",
							"type": "address"
						}
					],
					"name": "getTier",
					"outputs": [
						{
							"internalType": "string",
							"name": "",
							"type": "string"
						},
						{
							"internalType": "uint256",
							"name": "",
							"type": "uint256"
						},
						{
							"internalType": "uint256",
							"name": "",
							"type": "uint256"
						}
					],
					"stateMutability": "view",
					"type": "function"
				},
				{
					"inputs": [],
					"name": "name",
					"outputs": [
						{
							"internalType": "string",
							"name": "",
							"type": "string"
						}
					],
					"stateMutability": "view",
					"type": "function"
				},
				{
					"inputs": [],
					"name": "owner",
					"outputs": [
						{
							"internalType": "address",
							"name": "",
							"type": "address"
						}
					],
					"stateMutability": "view",
					"type": "function"
				},
				{
					"inputs": [
						{
							"internalType": "address",
							"name": "_eai",
							"type": "address"
						},
						{
							"internalType": "address",
							"name": "_staking",
							"type": "address"
						},
						{
							"internalType": "address",
							"name": "_tdeai",
							"type": "address"
						}
					],
					"name": "updateContractAddresses",
					"outputs": [],
					"stateMutability": "nonpayable",
					"type": "function"
				}
			],
			"devdoc": {
				"kind": "dev",
				"methods": {
					"getStakers()": {
						"details": "Get a list of all stakers and checks how much tdEAI each wallet holds"
					},
					"getTier(address)": {
						"details": "Checks the EAI and tdEAI holding of a wallet and returns the balance as well as tier wallet falls"
					},
					"updateContractAddresses(address,address,address)": {
						"details": "Update contract addresses for eai, staking and tdeai. Only the owner is allowed"
					}
				},
				"version": 1
			},
			"evm": {
				"assembly": "    /* \"contracts/stakers.sol\":498:2801  contract EAIUtilities is Ownable {... */\n  mstore(0x40, 0x80)\n    /* \"contracts/stakers.sol\":559:601  0x6797B6244fA75F2e78cDFfC3a4eb169332b730cc */\n  0x6797b6244fa75f2e78cdffc3a4eb169332b730cc\n    /* \"contracts/stakers.sol\":537:601  address private eai = 0x6797B6244fA75F2e78cDFfC3a4eb169332b730cc */\n  0x01\n  exp(0x0100, 0x00)\n  dup2\n  sload\n  dup2\n  0xffffffffffffffffffffffffffffffffffffffff\n  mul\n  not\n  and\n  swap1\n  dup4\n  0xffffffffffffffffffffffffffffffffffffffff\n  and\n  mul\n  or\n  swap1\n  sstore\n  pop\n    /* \"contracts/stakers.sol\":633:675  0x18f8D9193af3bbE7f79100DafC0aa40421f8036E */\n  0x18f8d9193af3bbe7f79100dafc0aa40421f8036e\n    /* \"contracts/stakers.sol\":607:675  address private staking = 0x18f8D9193af3bbE7f79100DafC0aa40421f8036E */\n  0x02\n  exp(0x0100, 0x00)\n  dup2\n  sload\n  dup2\n  0xffffffffffffffffffffffffffffffffffffffff\n  mul\n  not\n  and\n  swap1\n  dup4\n  0xffffffffffffffffffffffffffffffffffffffff\n  and\n  mul\n  or\n  swap1\n  sstore\n  pop\n    /* \"contracts/stakers.sol\":705:747  0x4342f4BC5375eCaF56fDf8b5294dE5DbC0fBe889 */\n  0x4342f4bc5375ecaf56fdf8b5294de5dbc0fbe889\n    /* \"contracts/stakers.sol\":681:747  address private tdeai = 0x4342f4BC5375eCaF56fDf8b5294dE5DbC0fBe889 */\n  0x03\n  exp(0x0100, 0x00)\n  dup2\n  sload\n  dup2\n  0xffffffffffffffffffffffffffffffffffffffff\n  mul\n  not\n  and\n  swap1\n  dup4\n  0xffffffffffffffffffffffffffffffffffffffff\n  and\n  mul\n  or\n  swap1\n  sstore\n  pop\n    /* \"contracts/stakers.sol\":753:788  string public name = \"EAIUtilities\" */\n  mload(0x40)\n  dup1\n  0x40\n  add\n  0x40\n  mstore\n  dup1\n  0x0c\n  dup2\n  mstore\n  0x20\n  add\n  0x4541495574696c69746965730000000000000000000000000000000000000000\n  dup2\n  mstore\n  pop\n  0x04\n  swap1\n  dup2\n  tag_1\n  swap2\n  swap1\n  tag_2\n  jump\t// in\ntag_1:\n  pop\n    /* \"contracts/stakers.sol\":498:2801  contract EAIUtilities is Ownable {... */\n  callvalue\n  dup1\n  iszero\n  tag_3\n  jumpi\n  0x00\n  dup1\n  revert\ntag_3:\n  pop\n    /* \"contracts/stakers.sol\":477:487  msg.sender */\n  caller\n    /* \"contracts/stakers.sol\":469:474  owner */\n  0x00\n  dup1\n    /* \"contracts/stakers.sol\":469:487  owner = msg.sender */\n  0x0100\n  exp\n  dup2\n  sload\n  dup2\n  0xffffffffffffffffffffffffffffffffffffffff\n  mul\n  not\n  and\n  swap1\n  dup4\n  0xffffffffffffffffffffffffffffffffffffffff\n  and\n  mul\n  or\n  swap1\n  sstore\n  pop\n    /* \"contracts/stakers.sol\":498:2801  contract EAIUtilities is Ownable {... */\n  jump(tag_6)\n    /* \"#utility.yul\":7:106   */\ntag_7:\n    /* \"#utility.yul\":59:65   */\n  0x00\n    /* \"#utility.yul\":93:98   */\n  dup2\n    /* \"#utility.yul\":87:99   */\n  mload\n    /* \"#utility.yul\":77:99   */\n  swap1\n  pop\n    /* \"#utility.yul\":7:106   */\n  swap2\n  swap1\n  pop\n  jump\t// out\n    /* \"#utility.yul\":112:292   */\ntag_8:\n    /* \"#utility.yul\":160:237   */\n  0x4e487b7100000000000000000000000000000000000000000000000000000000\n    /* \"#utility.yul\":157:158   */\n  0x00\n    /* \"#utility.yul\":150:238   */\n  mstore\n    /* \"#utility.yul\":257:261   */\n  0x41\n    /* \"#utility.yul\":254:255   */\n  0x04\n    /* \"#utility.yul\":247:262   */\n  mstore\n    /* \"#utility.yul\":281:285   */\n  0x24\n    /* \"#utility.yul\":278:279   */\n  0x00\n    /* \"#utility.yul\":271:286   */\n  revert\n    /* \"#utility.yul\":298:478   */\ntag_9:\n    /* \"#utility.yul\":346:423   */\n  0x4e487b7100000000000000000000000000000000000000000000000000000000\n    /* \"#utility.yul\":343:344   */\n  0x00\n    /* \"#utility.yul\":336:424   */\n  mstore\n    /* \"#utility.yul\":443:447   */\n  0x22\n    /* \"#utility.yul\":440:441   */\n  0x04\n    /* \"#utility.yul\":433:448   */\n  mstore\n    /* \"#utility.yul\":467:471   */\n  0x24\n    /* \"#utility.yul\":464:465   */\n  0x00\n    /* \"#utility.yul\":457:472   */\n  revert\n    /* \"#utility.yul\":484:804   */\ntag_10:\n    /* \"#utility.yul\":528:534   */\n  0x00\n    /* \"#utility.yul\":565:566   */\n  0x02\n    /* \"#utility.yul\":559:563   */\n  dup3\n    /* \"#utility.yul\":555:567   */\n  div\n    /* \"#utility.yul\":545:567   */\n  swap1\n  pop\n    /* \"#utility.yul\":612:613   */\n  0x01\n    /* \"#utility.yul\":606:610   */\n  dup3\n    /* \"#utility.yul\":602:614   */\n  and\n    /* \"#utility.yul\":633:651   */\n  dup1\n    /* \"#utility.yul\":623:704   */\n  tag_32\n  jumpi\n    /* \"#utility.yul\":689:693   */\n  0x7f\n    /* \"#utility.yul\":681:687   */\n  dup3\n    /* \"#utility.yul\":677:694   */\n  and\n    /* \"#utility.yul\":667:694   */\n  swap2\n  pop\n    /* \"#utility.yul\":623:704   */\ntag_32:\n    /* \"#utility.yul\":751:753   */\n  0x20\n    /* \"#utility.yul\":743:749   */\n  dup3\n    /* \"#utility.yul\":740:754   */\n  lt\n    /* \"#utility.yul\":720:738   */\n  dup2\n    /* \"#utility.yul\":717:755   */\n  sub\n    /* \"#utility.yul\":714:798   */\n  tag_33\n  jumpi\n    /* \"#utility.yul\":770:788   */\n  tag_34\n  tag_9\n  jump\t// in\ntag_34:\n    /* \"#utility.yul\":714:798   */\ntag_33:\n    /* \"#utility.yul\":535:804   */\n  pop\n    /* \"#utility.yul\":484:804   */\n  swap2\n  swap1\n  pop\n  jump\t// out\n    /* \"#utility.yul\":810:951   */\ntag_11:\n    /* \"#utility.yul\":859:863   */\n  0x00\n    /* \"#utility.yul\":882:885   */\n  dup2\n    /* \"#utility.yul\":874:885   */\n  swap1\n  pop\n    /* \"#utility.yul\":905:908   */\n  dup2\n    /* \"#utility.yul\":902:903   */\n  0x00\n    /* \"#utility.yul\":895:909   */\n  mstore\n    /* \"#utility.yul\":939:943   */\n  0x20\n    /* \"#utility.yul\":936:937   */\n  0x00\n    /* \"#utility.yul\":926:944   */\n  keccak256\n    /* \"#utility.yul\":918:944   */\n  swap1\n  pop\n    /* \"#utility.yul\":810:951   */\n  swap2\n  swap1\n  pop\n  jump\t// out\n    /* \"#utility.yul\":957:1050   */\ntag_12:\n    /* \"#utility.yul\":994:1000   */\n  0x00\n    /* \"#utility.yul\":1041:1043   */\n  0x20\n    /* \"#utility.yul\":1036:1038   */\n  0x1f\n    /* \"#utility.yul\":1029:1034   */\n  dup4\n    /* \"#utility.yul\":1025:1039   */\n  add\n    /* \"#utility.yul\":1021:1044   */\n  div\n    /* \"#utility.yul\":1011:1044   */\n  swap1\n  pop\n    /* \"#utility.yul\":957:1050   */\n  swap2\n  swap1\n  pop\n  jump\t// out\n    /* \"#utility.yul\":1056:1163   */\ntag_13:\n    /* \"#utility.yul\":1100:1108   */\n  0x00\n    /* \"#utility.yul\":1150:1155   */\n  dup3\n    /* \"#utility.yul\":1144:1148   */\n  dup3\n    /* \"#utility.yul\":1140:1156   */\n  shl\n    /* \"#utility.yul\":1119:1156   */\n  swap1\n  pop\n    /* \"#utility.yul\":1056:1163   */\n  swap3\n  swap2\n  pop\n  pop\n  jump\t// out\n    /* \"#utility.yul\":1169:1562   */\ntag_14:\n    /* \"#utility.yul\":1238:1244   */\n  0x00\n    /* \"#utility.yul\":1288:1289   */\n  0x08\n    /* \"#utility.yul\":1276:1286   */\n  dup4\n    /* \"#utility.yul\":1272:1290   */\n  mul\n    /* \"#utility.yul\":1311:1408   */\n  tag_39\n    /* \"#utility.yul\":1341:1407   */\n  0xffffffffffffffffffffffffffffffffffffffffffffffffffffffffffffffff\n    /* \"#utility.yul\":1330:1339   */\n  dup3\n    /* \"#utility.yul\":1311:1408   */\n  tag_13\n  jump\t// in\ntag_39:\n    /* \"#utility.yul\":1429:1468   */\n  tag_40\n    /* \"#utility.yul\":1459:1467   */\n  dup7\n    /* \"#utility.yul\":1448:1457   */\n  dup4\n    /* \"#utility.yul\":1429:1468   */\n  tag_13\n  jump\t// in\ntag_40:\n    /* \"#utility.yul\":1417:1468   */\n  swap6\n  pop\n    /* \"#utility.yul\":1501:1505   */\n  dup1\n    /* \"#utility.yul\":1497:1506   */\n  not\n    /* \"#utility.yul\":1490:1495   */\n  dup5\n    /* \"#utility.yul\":1486:1507   */\n  and\n    /* \"#utility.yul\":1477:1507   */\n  swap4\n  pop\n    /* \"#utility.yul\":1550:1554   */\n  dup1\n    /* \"#utility.yul\":1540:1548   */\n  dup7\n    /* \"#utility.yul\":1536:1555   */\n  and\n    /* \"#utility.yul\":1529:1534   */\n  dup5\n    /* \"#utility.yul\":1526:1556   */\n  or\n    /* \"#utility.yul\":1516:1556   */\n  swap3\n  pop\n    /* \"#utility.yul\":1245:1562   */\n  pop\n  pop\n    /* \"#utility.yul\":1169:1562   */\n  swap4\n  swap3\n  pop\n  pop\n  pop\n  jump\t// out\n    /* \"#utility.yul\":1568:1645   */\ntag_15:\n    /* \"#utility.yul\":1605:1612   */\n  0x00\n    /* \"#utility.yul\":1634:1639   */\n  dup2\n    /* \"#utility.yul\":1623:1639   */\n  swap1\n  pop\n    /* \"#utility.yul\":1568:1645   */\n  swap2\n  swap1\n  pop\n  jump\t// out\n    /* \"#utility.yul\":1651:1711   */\ntag_16:\n    /* \"#utility.yul\":1679:1682   */\n  0x00\n    /* \"#utility.yul\":1700:1705   */\n  dup2\n    /* \"#utility.yul\":1693:1705   */\n  swap1\n  pop\n    /* \"#utility.yul\":1651:1711   */\n  swap2\n  swap1\n  pop\n  jump\t// out\n    /* \"#utility.yul\":1717:1859   */\ntag_17:\n    /* \"#utility.yul\":1767:1776   */\n  0x00\n    /* \"#utility.yul\":1800:1853   */\n  tag_44\n    /* \"#utility.yul\":1818:1852   */\n  tag_45\n    /* \"#utility.yul\":1827:1851   */\n  tag_46\n    /* \"#utility.yul\":1845:1850   */\n  dup5\n    /* \"#utility.yul\":1827:1851   */\n  tag_15\n  jump\t// in\ntag_46:\n    /* \"#utility.yul\":1818:1852   */\n  tag_16\n  jump\t// in\ntag_45:\n    /* \"#utility.yul\":1800:1853   */\n  tag_15\n  jump\t// in\ntag_44:\n    /* \"#utility.yul\":1787:1853   */\n  swap1\n  pop\n    /* \"#utility.yul\":1717:1859   */\n  swap2\n  swap1\n  pop\n  jump\t// out\n    /* \"#utility.yul\":1865:1940   */\ntag_18:\n    /* \"#utility.yul\":1908:1911   */\n  0x00\n    /* \"#utility.yul\":1929:1934   */\n  dup2\n    /* \"#utility.yul\":1922:1934   */\n  swap1\n  pop\n    /* \"#utility.yul\":1865:1940   */\n  swap2\n  swap1\n  pop\n  jump\t// out\n    /* \"#utility.yul\":1946:2215   */\ntag_19:\n    /* \"#utility.yul\":2056:2095   */\n  tag_49\n    /* \"#utility.yul\":2087:2094   */\n  dup4\n    /* \"#utility.yul\":2056:2095   */\n  tag_17\n  jump\t// in\ntag_49:\n    /* \"#utility.yul\":2117:2208   */\n  tag_50\n    /* \"#utility.yul\":2166:2207   */\n  tag_51\n    /* \"#utility.yul\":2190:2206   */\n  dup3\n    /* \"#utility.yul\":2166:2207   */\n  tag_18\n  jump\t// in\ntag_51:\n    /* \"#utility.yul\":2158:2164   */\n  dup5\n    /* \"#utility.yul\":2151:2155   */\n  dup5\n    /* \"#utility.yul\":2145:2156   */\n  sload\n    /* \"#utility.yul\":2117:2208   */\n  tag_14\n  jump\t// in\ntag_50:\n    /* \"#utility.yul\":2111:2115   */\n  dup3\n    /* \"#utility.yul\":2104:2209   */\n  sstore\n    /* \"#utility.yul\":2022:2215   */\n  pop\n    /* \"#utility.yul\":1946:2215   */\n  pop\n  pop\n  pop\n  jump\t// out\n    /* \"#utility.yul\":2221:2294   */\ntag_20:\n    /* \"#utility.yul\":2266:2269   */\n  0x00\n    /* \"#utility.yul\":2221:2294   */\n  swap1\n  jump\t// out\n    /* \"#utility.yul\":2300:2489   */\ntag_21:\n    /* \"#utility.yul\":2377:2409   */\n  tag_54\n  tag_20\n  jump\t// in\ntag_54:\n    /* \"#utility.yul\":2418:2483   */\n  tag_55\n    /* \"#utility.yul\":2476:2482   */\n  dup2\n    /* \"#utility.yul\":2468:2474   */\n  dup5\n    /* \"#utility.yul\":2462:2466   */\n  dup5\n    /* \"#utility.yul\":2418:2483   */\n  tag_19\n  jump\t// in\ntag_55:\n    /* \"#utility.yul\":2353:2489   */\n  pop\n    /* \"#utility.yul\":2300:2489   */\n  pop\n  pop\n  jump\t// out\n    /* \"#utility.yul\":2495:2681   */\ntag_22:\n    /* \"#utility.yul\":2555:2675   */\ntag_57:\n    /* \"#utility.yul\":2572:2575   */\n  dup2\n    /* \"#utility.yul\":2565:2570   */\n  dup2\n    /* \"#utility.yul\":2562:2576   */\n  lt\n    /* \"#utility.yul\":2555:2675   */\n  iszero\n  tag_59\n  jumpi\n    /* \"#utility.yul\":2626:2665   */\n  tag_60\n    /* \"#utility.yul\":2663:2664   */\n  0x00\n    /* \"#utility.yul\":2656:2661   */\n  dup3\n    /* \"#utility.yul\":2626:2665   */\n  tag_21\n  jump\t// in\ntag_60:\n    /* \"#utility.yul\":2599:2600   */\n  0x01\n    /* \"#utility.yul\":2592:2597   */\n  dup2\n    /* \"#utility.yul\":2588:2601   */\n  add\n    /* \"#utility.yul\":2579:2601   */\n  swap1\n  pop\n    /* \"#utility.yul\":2555:2675   */\n  jump(tag_57)\ntag_59:\n    /* \"#utility.yul\":2495:2681   */\n  pop\n  pop\n  jump\t// out\n    /* \"#utility.yul\":2687:3230   */\ntag_23:\n    /* \"#utility.yul\":2788:2790   */\n  0x1f\n    /* \"#utility.yul\":2783:2786   */\n  dup3\n    /* \"#utility.yul\":2780:2791   */\n  gt\n    /* \"#utility.yul\":2777:3223   */\n  iszero\n  tag_62\n  jumpi\n    /* \"#utility.yul\":2822:2860   */\n  tag_63\n    /* \"#utility.yul\":2854:2859   */\n  dup2\n    /* \"#utility.yul\":2822:2860   */\n  tag_11\n  jump\t// in\ntag_63:\n    /* \"#utility.yul\":2906:2935   */\n  tag_64\n    /* \"#utility.yul\":2924:2934   */\n  dup5\n    /* \"#utility.yul\":2906:2935   */\n  tag_12\n  jump\t// in\ntag_64:\n    /* \"#utility.yul\":2896:2904   */\n  dup2\n    /* \"#utility.yul\":2892:2936   */\n  add\n    /* \"#utility.yul\":3089:3091   */\n  0x20\n    /* \"#utility.yul\":3077:3087   */\n  dup6\n    /* \"#utility.yul\":3074:3092   */\n  lt\n    /* \"#utility.yul\":3071:3120   */\n  iszero\n  tag_65\n  jumpi\n    /* \"#utility.yul\":3110:3118   */\n  dup2\n    /* \"#utility.yul\":3095:3118   */\n  swap1\n  pop\n    /* \"#utility.yul\":3071:3120   */\ntag_65:\n    /* \"#utility.yul\":3133:3213   */\n  tag_66\n    /* \"#utility.yul\":3189:3211   */\n  tag_67\n    /* \"#utility.yul\":3207:3210   */\n  dup6\n    /* \"#utility.yul\":3189:3211   */\n  tag_12\n  jump\t// in\ntag_67:\n    /* \"#utility.yul\":3179:3187   */\n  dup4\n    /* \"#utility.yul\":3175:3212   */\n  add\n    /* \"#utility.yul\":3162:3173   */\n  dup3\n    /* \"#utility.yul\":3133:3213   */\n  tag_22\n  jump\t// in\ntag_66:\n    /* \"#utility.yul\":2792:3223   */\n  pop\n  pop\n    /* \"#utility.yul\":2777:3223   */\ntag_62:\n    /* \"#utility.yul\":2687:3230   */\n  pop\n  pop\n  pop\n  jump\t// out\n    /* \"#utility.yul\":3236:3353   */\ntag_24:\n    /* \"#utility.yul\":3290:3298   */\n  0x00\n    /* \"#utility.yul\":3340:3345   */\n  dup3\n    /* \"#utility.yul\":3334:3338   */\n  dup3\n    /* \"#utility.yul\":3330:3346   */\n  shr\n    /* \"#utility.yul\":3309:3346   */\n  swap1\n  pop\n    /* \"#utility.yul\":3236:3353   */\n  swap3\n  swap2\n  pop\n  pop\n  jump\t// out\n    /* \"#utility.yul\":3359:3528   */\ntag_25:\n    /* \"#utility.yul\":3403:3409   */\n  0x00\n    /* \"#utility.yul\":3436:3487   */\n  tag_70\n    /* \"#utility.yul\":3484:3485   */\n  0x00\n    /* \"#utility.yul\":3480:3486   */\n  not\n    /* \"#utility.yul\":3472:3477   */\n  dup5\n    /* \"#utility.yul\":3469:3470   */\n  0x08\n    /* \"#utility.yul\":3465:3478   */\n  mul\n    /* \"#utility.yul\":3436:3487   */\n  tag_24\n  jump\t// in\ntag_70:\n    /* \"#utility.yul\":3432:3488   */\n  not\n    /* \"#utility.yul\":3517:3521   */\n  dup1\n    /* \"#utility.yul\":3511:3515   */\n  dup4\n    /* \"#utility.yul\":3507:3522   */\n  and\n    /* \"#utility.yul\":3497:3522   */\n  swap2\n  pop\n    /* \"#utility.yul\":3410:3528   */\n  pop\n    /* \"#utility.yul\":3359:3528   */\n  swap3\n  swap2\n  pop\n  pop\n  jump\t// out\n    /* \"#utility.yul\":3533:3828   */\ntag_26:\n    /* \"#utility.yul\":3609:3613   */\n  0x00\n    /* \"#utility.yul\":3755:3784   */\n  tag_72\n    /* \"#utility.yul\":3780:3783   */\n  dup4\n    /* \"#utility.yul\":3774:3778   */\n  dup4\n    /* \"#utility.yul\":3755:3784   */\n  tag_25\n  jump\t// in\ntag_72:\n    /* \"#utility.yul\":3747:3784   */\n  swap2\n  pop\n    /* \"#utility.yul\":3817:3820   */\n  dup3\n    /* \"#utility.yul\":3814:3815   */\n  0x02\n    /* \"#utility.yul\":3810:3821   */\n  mul\n    /* \"#utility.yul\":3804:3808   */\n  dup3\n    /* \"#utility.yul\":3801:3822   */\n  or\n    /* \"#utility.yul\":3793:3822   */\n  swap1\n  pop\n    /* \"#utility.yul\":3533:3828   */\n  swap3\n  swap2\n  pop\n  pop\n  jump\t// out\n    /* \"#utility.yul\":3833:5228   */\ntag_2:\n    /* \"#utility.yul\":3950:3987   */\n  tag_74\n    /* \"#utility.yul\":3983:3986   */\n  dup3\n    /* \"#utility.yul\":3950:3987   */\n  tag_7\n  jump\t// in\ntag_74:\n    /* \"#utility.yul\":4052:4070   */\n  0xffffffffffffffff\n    /* \"#utility.yul\":4044:4050   */\n  dup2\n    /* \"#utility.yul\":4041:4071   */\n  gt\n    /* \"#utility.yul\":4038:4094   */\n  iszero\n  tag_75\n  jumpi\n    /* \"#utility.yul\":4074:4092   */\n  tag_76\n  tag_8\n  jump\t// in\ntag_76:\n    /* \"#utility.yul\":4038:4094   */\ntag_75:\n    /* \"#utility.yul\":4118:4156   */\n  tag_77\n    /* \"#utility.yul\":4150:4154   */\n  dup3\n    /* \"#utility.yul\":4144:4155   */\n  sload\n    /* \"#utility.yul\":4118:4156   */\n  tag_10\n  jump\t// in\ntag_77:\n    /* \"#utility.yul\":4203:4270   */\n  tag_78\n    /* \"#utility.yul\":4263:4269   */\n  dup3\n    /* \"#utility.yul\":4255:4261   */\n  dup3\n    /* \"#utility.yul\":4249:4253   */\n  dup6\n    /* \"#utility.yul\":4203:4270   */\n  tag_23\n  jump\t// in\ntag_78:\n    /* \"#utility.yul\":4297:4298   */\n  0x00\n    /* \"#utility.yul\":4321:4325   */\n  0x20\n    /* \"#utility.yul\":4308:4325   */\n  swap1\n  pop\n    /* \"#utility.yul\":4353:4355   */\n  0x1f\n    /* \"#utility.yul\":4345:4351   */\n  dup4\n    /* \"#utility.yul\":4342:4356   */\n  gt\n    /* \"#utility.yul\":4370:4371   */\n  0x01\n    /* \"#utility.yul\":4365:4983   */\n  dup2\n  eq\n  tag_80\n  jumpi\n    /* \"#utility.yul\":5027:5028   */\n  0x00\n    /* \"#utility.yul\":5044:5050   */\n  dup5\n    /* \"#utility.yul\":5041:5118   */\n  iszero\n  tag_81\n  jumpi\n    /* \"#utility.yul\":5093:5102   */\n  dup3\n    /* \"#utility.yul\":5088:5091   */\n  dup8\n    /* \"#utility.yul\":5084:5103   */\n  add\n    /* \"#utility.yul\":5078:5104   */\n  mload\n    /* \"#utility.yul\":5069:5104   */\n  swap1\n  pop\n    /* \"#utility.yul\":5041:5118   */\ntag_81:\n    /* \"#utility.yul\":5144:5211   */\n  tag_82\n    /* \"#utility.yul\":5204:5210   */\n  dup6\n    /* \"#utility.yul\":5197:5202   */\n  dup3\n    /* \"#utility.yul\":5144:5211   */\n  tag_26\n  jump\t// in\ntag_82:\n    /* \"#utility.yul\":5138:5142   */\n  dup7\n    /* \"#utility.yul\":5131:5212   */\n  sstore\n    /* \"#utility.yul\":5000:5222   */\n  pop\n    /* \"#utility.yul\":4335:5222   */\n  jump(tag_79)\n    /* \"#utility.yul\":4365:4983   */\ntag_80:\n    /* \"#utility.yul\":4417:4421   */\n  0x1f\n    /* \"#utility.yul\":4413:4422   */\n  not\n    /* \"#utility.yul\":4405:4411   */\n  dup5\n    /* \"#utility.yul\":4401:4423   */\n  and\n    /* \"#utility.yul\":4451:4488   */\n  tag_83\n    /* \"#utility.yul\":4483:4487   */\n  dup7\n    /* \"#utility.yul\":4451:4488   */\n  tag_11\n  jump\t// in\ntag_83:\n    /* \"#utility.yul\":4510:4511   */\n  0x00\n    /* \"#utility.yul\":4524:4732   */\ntag_84:\n    /* \"#utility.yul\":4538:4545   */\n  dup3\n    /* \"#utility.yul\":4535:4536   */\n  dup2\n    /* \"#utility.yul\":4532:4546   */\n  lt\n    /* \"#utility.yul\":4524:4732   */\n  iszero\n  tag_86\n  jumpi\n    /* \"#utility.yul\":4617:4626   */\n  dup5\n    /* \"#utility.yul\":4612:4615   */\n  dup10\n    /* \"#utility.yul\":4608:4627   */\n  add\n    /* \"#utility.yul\":4602:4628   */\n  mload\n    /* \"#utility.yul\":4594:4600   */\n  dup3\n    /* \"#utility.yul\":4587:4629   */\n  sstore\n    /* \"#utility.yul\":4668:4669   */\n  0x01\n    /* \"#utility.yul\":4660:4666   */\n  dup3\n    /* \"#utility.yul\":4656:4670   */\n  add\n    /* \"#utility.yul\":4646:4670   */\n  swap2\n  pop\n    /* \"#utility.yul\":4715:4717   */\n  0x20\n    /* \"#utility.yul\":4704:4713   */\n  dup6\n    /* \"#utility.yul\":4700:4718   */\n  add\n    /* \"#utility.yul\":4687:4718   */\n  swap5\n  pop\n    /* \"#utility.yul\":4561:4565   */\n  0x20\n    /* \"#utility.yul\":4558:4559   */\n  dup2\n    /* \"#utility.yul\":4554:4566   */\n  add\n    /* \"#utility.yul\":4549:4566   */\n  swap1\n  pop\n    /* \"#utility.yul\":4524:4732   */\n  jump(tag_84)\ntag_86:\n    /* \"#utility.yul\":4760:4766   */\n  dup7\n    /* \"#utility.yul\":4751:4758   */\n  dup4\n    /* \"#utility.yul\":4748:4767   */\n  lt\n    /* \"#utility.yul\":4745:4924   */\n  iszero\n  tag_87\n  jumpi\n    /* \"#utility.yul\":4818:4827   */\n  dup5\n    /* \"#utility.yul\":4813:4816   */\n  dup10\n    /* \"#utility.yul\":4809:4828   */\n  add\n    /* \"#utility.yul\":4803:4829   */\n  mload\n    /* \"#utility.yul\":4861:4909   */\n  tag_88\n    /* \"#utility.yul\":4903:4907   */\n  0x1f\n    /* \"#utility.yul\":4895:4901   */\n  dup10\n    /* \"#utility.yul\":4891:4908   */\n  and\n    /* \"#utility.yul\":4880:4889   */\n  dup3\n    /* \"#utility.yul\":4861:4909   */\n  tag_25\n  jump\t// in\ntag_88:\n    /* \"#utility.yul\":4853:4859   */\n  dup4\n    /* \"#utility.yul\":4846:4910   */\n  sstore\n    /* \"#utility.yul\":4768:4924   */\n  pop\n    /* \"#utility.yul\":4745:4924   */\ntag_87:\n    /* \"#utility.yul\":4970:4971   */\n  0x01\n    /* \"#utility.yul\":4966:4967   */\n  0x02\n    /* \"#utility.yul\":4958:4964   */\n  dup9\n    /* \"#utility.yul\":4954:4968   */\n  mul\n    /* \"#utility.yul\":4950:4972   */\n  add\n    /* \"#utility.yul\":4944:4948   */\n  dup9\n    /* \"#utility.yul\":4937:4973   */\n  sstore\n    /* \"#utility.yul\":4372:4983   */\n  pop\n  pop\n  pop\n    /* \"#utility.yul\":4335:5222   */\ntag_79:\n  pop\n    /* \"#utility.yul\":3925:5228   */\n  pop\n  pop\n  pop\n    /* \"#utility.yul\":3833:5228   */\n  pop\n  pop\n  jump\t// out\n    /* \"contracts/stakers.sol\":498:2801  contract EAIUtilities is Ownable {... */\ntag_6:\n  dataSize(sub_0)\n  dup1\n  dataOffset(sub_0)\n  0x00\n  codecopy\n  0x00\n  return\nstop\n\nsub_0: assembly {\n        /* \"contracts/stakers.sol\":498:2801  contract EAIUtilities is Ownable {... */\n      mstore(0x40, 0x80)\n      callvalue\n      dup1\n      iszero\n      tag_1\n      jumpi\n      0x00\n      dup1\n      revert\n    tag_1:\n      pop\n      jumpi(tag_2, lt(calldatasize, 0x04))\n      shr(0xe0, calldataload(0x00))\n      dup1\n      0x06fdde03\n      eq\n      tag_3\n      jumpi\n      dup1\n      0x2071088a\n      eq\n      tag_4\n      jumpi\n      dup1\n      0x43352d61\n      eq\n      tag_5\n      jumpi\n      dup1\n      0x8da5cb5b\n      eq\n      tag_6\n      jumpi\n      dup1\n      0xb45aae52\n      eq\n      tag_7\n      jumpi\n    tag_2:\n      0x00\n      dup1\n      revert\n        /* \"contracts/stakers.sol\":753:788  string public name = \"EAIUtilities\" */\n    tag_3:\n      tag_8\n      tag_9\n      jump\t// in\n    tag_8:\n      mload(0x40)\n      tag_10\n      swap2\n      swap1\n      tag_11\n      jump\t// in\n    tag_10:\n      mload(0x40)\n      dup1\n      swap2\n      sub\n      swap1\n      return\n        /* \"contracts/stakers.sol\":899:1106  function updateContractAddresses(... */\n    tag_4:\n      tag_12\n      0x04\n      dup1\n      calldatasize\n      sub\n      dup2\n      add\n      swap1\n      tag_13\n      swap2\n      swap1\n      tag_14\n      jump\t// in\n    tag_13:\n      tag_15\n      jump\t// in\n    tag_12:\n      stop\n        /* \"contracts/stakers.sol\":1210:1994  function getStakers()... */\n    tag_5:\n      tag_16\n      tag_17\n      jump\t// in\n    tag_16:\n      mload(0x40)\n      tag_18\n      swap3\n      swap2\n      swap1\n      tag_19\n      jump\t// in\n    tag_18:\n      mload(0x40)\n      dup1\n      swap2\n      sub\n      swap1\n      return\n        /* \"contracts/stakers.sol\":324:344  address public owner */\n    tag_6:\n      tag_20\n      tag_21\n      jump\t// in\n    tag_20:\n      mload(0x40)\n      tag_22\n      swap2\n      swap1\n      tag_23\n      jump\t// in\n    tag_22:\n      mload(0x40)\n      dup1\n      swap2\n      sub\n      swap1\n      return\n        /* \"contracts/stakers.sol\":2126:2799  function getTier(address wallet)... */\n    tag_7:\n      tag_24\n      0x04\n      dup1\n      calldatasize\n      sub\n      dup2\n      add\n      swap1\n      tag_25\n      swap2\n      swap1\n      tag_26\n      jump\t// in\n    tag_25:\n      tag_27\n      jump\t// in\n    tag_24:\n      mload(0x40)\n      tag_28\n      swap4\n      swap3\n      swap2\n      swap1\n      tag_29\n      jump\t// in\n    tag_28:\n      mload(0x40)\n      dup1\n      swap2\n      sub\n      swap1\n      return\n        /* \"contracts/stakers.sol\":753:788  string public name = \"EAIUtilities\" */\n    tag_9:\n      0x04\n      dup1\n      sload\n      tag_30\n      swap1\n      tag_31\n      jump\t// in\n    tag_30:\n      dup1\n      0x1f\n      add\n      0x20\n      dup1\n      swap2\n      div\n      mul\n      0x20\n      add\n      mload(0x40)\n      swap1\n      dup2\n      add\n      0x40\n      mstore\n      dup1\n      swap3\n      swap2\n      swap1\n      dup2\n      dup2\n      mstore\n      0x20\n      add\n      dup3\n      dup1\n      sload\n      tag_32\n      swap1\n      tag_31\n      jump\t// in\n    tag_32:\n      dup1\n      iszero\n      tag_33\n      jumpi\n      dup1\n      0x1f\n      lt\n      tag_34\n      jumpi\n      0x0100\n      dup1\n      dup4\n      sload\n      div\n      mul\n      dup4\n      mstore\n      swap2\n      0x20\n      add\n      swap2\n      jump(tag_33)\n    tag_34:\n      dup3\n      add\n      swap2\n      swap1\n      0x00\n      mstore\n      keccak256(0x00, 0x20)\n      swap1\n    tag_35:\n      dup2\n      sload\n      dup2\n      mstore\n      swap1\n      0x01\n      add\n      swap1\n      0x20\n      add\n      dup1\n      dup4\n      gt\n      tag_35\n      jumpi\n      dup3\n      swap1\n      sub\n      0x1f\n      and\n      dup3\n      add\n      swap2\n    tag_33:\n      pop\n      pop\n      pop\n      pop\n      pop\n      dup2\n      jump\t// out\n        /* \"contracts/stakers.sol\":899:1106  function updateContractAddresses(... */\n    tag_15:\n        /* \"contracts/stakers.sol\":404:409  owner */\n      0x00\n      dup1\n      sload\n      swap1\n      0x0100\n      exp\n      swap1\n      div\n      0xffffffffffffffffffffffffffffffffffffffff\n      and\n        /* \"contracts/stakers.sol\":390:409  msg.sender == owner */\n      0xffffffffffffffffffffffffffffffffffffffff\n      and\n        /* \"contracts/stakers.sol\":390:400  msg.sender */\n      caller\n        /* \"contracts/stakers.sol\":390:409  msg.sender == owner */\n      0xffffffffffffffffffffffffffffffffffffffff\n      and\n      eq\n        /* \"contracts/stakers.sol\":382:421  require(msg.sender == owner, \"Ownable\") */\n      tag_37\n      jumpi\n      mload(0x40)\n      0x08c379a000000000000000000000000000000000000000000000000000000000\n      dup2\n      mstore\n      0x04\n      add\n      tag_38\n      swap1\n      tag_39\n      jump\t// in\n    tag_38:\n      mload(0x40)\n      dup1\n      swap2\n      sub\n      swap1\n      revert\n    tag_37:\n        /* \"contracts/stakers.sol\":1043:1047  _eai */\n      dup3\n        /* \"contracts/stakers.sol\":1037:1040  eai */\n      0x01\n      0x00\n        /* \"contracts/stakers.sol\":1037:1047  eai = _eai */\n      0x0100\n      exp\n      dup2\n      sload\n      dup2\n      0xffffffffffffffffffffffffffffffffffffffff\n      mul\n      not\n      and\n      swap1\n      dup4\n      0xffffffffffffffffffffffffffffffffffffffff\n      and\n      mul\n      or\n      swap1\n      sstore\n      pop\n        /* \"contracts/stakers.sol\":1065:1071  _tdeai */\n      dup1\n        /* \"contracts/stakers.sol\":1057:1062  tdeai */\n      0x03\n      0x00\n        /* \"contracts/stakers.sol\":1057:1071  tdeai = _tdeai */\n      0x0100\n      exp\n      dup2\n      sload\n      dup2\n      0xffffffffffffffffffffffffffffffffffffffff\n      mul\n      not\n      and\n      swap1\n      dup4\n      0xffffffffffffffffffffffffffffffffffffffff\n      and\n      mul\n      or\n      swap1\n      sstore\n      pop\n        /* \"contracts/stakers.sol\":1091:1099  _staking */\n      dup2\n        /* \"contracts/stakers.sol\":1081:1088  staking */\n      0x02\n      0x00\n        /* \"contracts/stakers.sol\":1081:1099  staking = _staking */\n      0x0100\n      exp\n      dup2\n      sload\n      dup2\n      0xffffffffffffffffffffffffffffffffffffffff\n      mul\n      not\n      and\n      swap1\n      dup4\n      0xffffffffffffffffffffffffffffffffffffffff\n      and\n      mul\n      or\n      swap1\n      sstore\n      pop\n        /* \"contracts/stakers.sol\":899:1106  function updateContractAddresses(... */\n      pop\n      pop\n      pop\n      jump\t// out\n        /* \"contracts/stakers.sol\":1210:1994  function getStakers()... */\n    tag_17:\n        /* \"contracts/stakers.sol\":1277:1297  uint256 totalStakers */\n      0x00\n        /* \"contracts/stakers.sol\":1299:1329  WalletBalance[] memory wallets */\n      0x60\n        /* \"contracts/stakers.sol\":1345:1357  uint16 count */\n      0x00\n        /* \"contracts/stakers.sol\":1371:1381  uint16 max */\n      dup1\n        /* \"contracts/stakers.sol\":1384:1388  2000 */\n      0x07d0\n        /* \"contracts/stakers.sol\":1371:1388  uint16 max = 2000 */\n      swap1\n      pop\n        /* \"contracts/stakers.sol\":1399:1431  WalletBalance[] memory addresses */\n      0x00\n        /* \"contracts/stakers.sol\":1454:1457  max */\n      dup2\n        /* \"contracts/stakers.sol\":1434:1458  new WalletBalance[](max) */\n      0xffff\n      and\n      0xffffffffffffffff\n      dup2\n      gt\n      iszero\n      tag_42\n      jumpi\n      tag_43\n      tag_44\n      jump\t// in\n    tag_43:\n    tag_42:\n      mload(0x40)\n      swap1\n      dup1\n      dup3\n      mstore\n      dup1\n      0x20\n      mul\n      0x20\n      add\n      dup3\n      add\n      0x40\n      mstore\n      dup1\n      iszero\n      tag_45\n      jumpi\n      dup2\n      0x20\n      add\n    tag_46:\n      tag_47\n      tag_48\n      jump\t// in\n    tag_47:\n      dup2\n      mstore\n      0x20\n      add\n      swap1\n      0x01\n      swap1\n      sub\n      swap1\n      dup2\n      tag_46\n      jumpi\n      swap1\n      pop\n    tag_45:\n      pop\n        /* \"contracts/stakers.sol\":1399:1458  WalletBalance[] memory addresses = new WalletBalance[](max) */\n      swap1\n      pop\n        /* \"contracts/stakers.sol\":1469:1792  while (count < max) {... */\n    tag_49:\n        /* \"contracts/stakers.sol\":1484:1487  max */\n      dup2\n        /* \"contracts/stakers.sol\":1476:1487  count < max */\n      0xffff\n      and\n        /* \"contracts/stakers.sol\":1476:1481  count */\n      dup4\n        /* \"contracts/stakers.sol\":1476:1487  count < max */\n      0xffff\n      and\n      lt\n        /* \"contracts/stakers.sol\":1469:1792  while (count < max) {... */\n      iszero\n      tag_50\n      jumpi\n        /* \"contracts/stakers.sol\":1519:1526  staking */\n      0x02\n      0x00\n      swap1\n      sload\n      swap1\n      0x0100\n      exp\n      swap1\n      div\n      0xffffffffffffffffffffffffffffffffffffffff\n      and\n        /* \"contracts/stakers.sol\":1507:1535  IEAIStaking(staking).stakers */\n      0xffffffffffffffffffffffffffffffffffffffff\n      and\n      0xfd5e6dd1\n        /* \"contracts/stakers.sol\":1536:1541  count */\n      dup5\n        /* \"contracts/stakers.sol\":1507:1542  IEAIStaking(staking).stakers(count) */\n      mload(0x40)\n      dup3\n      0xffffffff\n      and\n      0xe0\n      shl\n      dup2\n      mstore\n      0x04\n      add\n      tag_51\n      swap2\n      swap1\n      tag_52\n      jump\t// in\n    tag_51:\n      0x20\n      mload(0x40)\n      dup1\n      dup4\n      sub\n      dup2\n      dup7\n      gas\n      staticcall\n      swap3\n      pop\n      pop\n      pop\n      dup1\n      iszero\n      tag_53\n      jumpi\n      pop\n      mload(0x40)\n      returndatasize\n      not(0x1f)\n      0x1f\n      dup3\n      add\n      and\n      dup3\n      add\n      dup1\n      0x40\n      mstore\n      pop\n      dup2\n      add\n      swap1\n      tag_54\n      swap2\n      swap1\n      tag_55\n      jump\t// in\n    tag_54:\n      0x01\n    tag_53:\n        /* \"contracts/stakers.sol\":1503:1782  try IEAIStaking(staking).stakers(count) returns (address user) {... */\n      iszero\n        /* \"contracts/stakers.sol\":1762:1767  break */\n      tag_50\n        /* \"contracts/stakers.sol\":1503:1782  try IEAIStaking(staking).stakers(count) returns (address user) {... */\n      jumpi\n        /* \"contracts/stakers.sol\":1584:1599  uint256 balance */\n      0x00\n        /* \"contracts/stakers.sol\":1609:1614  tdeai */\n      0x03\n      0x00\n      swap1\n      sload\n      swap1\n      0x0100\n      exp\n      swap1\n      div\n      0xffffffffffffffffffffffffffffffffffffffff\n      and\n        /* \"contracts/stakers.sol\":1602:1625  IERC20(tdeai).balanceOf */\n      0xffffffffffffffffffffffffffffffffffffffff\n      and\n      0x70a08231\n        /* \"contracts/stakers.sol\":1626:1630  user */\n      dup4\n        /* \"contracts/stakers.sol\":1602:1631  IERC20(tdeai).balanceOf(user) */\n      mload(0x40)\n      dup3\n      0xffffffff\n      and\n      0xe0\n      shl\n      dup2\n      mstore\n      0x04\n      add\n      tag_61\n      swap2\n      swap1\n      tag_23\n      jump\t// in\n    tag_61:\n      0x20\n      mload(0x40)\n      dup1\n      dup4\n      sub\n      dup2\n      dup7\n      gas\n      staticcall\n      iszero\n      dup1\n      iszero\n      tag_63\n      jumpi\n      returndatasize\n      0x00\n      dup1\n      returndatacopy\n      revert(0x00, returndatasize)\n    tag_63:\n      pop\n      pop\n      pop\n      pop\n      mload(0x40)\n      returndatasize\n      not(0x1f)\n      0x1f\n      dup3\n      add\n      and\n      dup3\n      add\n      dup1\n      0x40\n      mstore\n      pop\n      dup2\n      add\n      swap1\n      tag_64\n      swap2\n      swap1\n      tag_65\n      jump\t// in\n    tag_64:\n        /* \"contracts/stakers.sol\":1584:1631  uint256 balance = IERC20(tdeai).balanceOf(user) */\n      swap1\n      pop\n        /* \"contracts/stakers.sol\":1669:1697  WalletBalance(user, balance) */\n      mload(0x40)\n      dup1\n      0x40\n      add\n      0x40\n      mstore\n      dup1\n        /* \"contracts/stakers.sol\":1683:1687  user */\n      dup4\n        /* \"contracts/stakers.sol\":1669:1697  WalletBalance(user, balance) */\n      0xffffffffffffffffffffffffffffffffffffffff\n      and\n      dup2\n      mstore\n      0x20\n      add\n        /* \"contracts/stakers.sol\":1689:1696  balance */\n      dup3\n        /* \"contracts/stakers.sol\":1669:1697  WalletBalance(user, balance) */\n      dup2\n      mstore\n      pop\n        /* \"contracts/stakers.sol\":1650:1659  addresses */\n      dup4\n        /* \"contracts/stakers.sol\":1660:1665  count */\n      dup7\n        /* \"contracts/stakers.sol\":1650:1666  addresses[count] */\n      0xffff\n      and\n      dup2\n      mload\n      dup2\n      lt\n      tag_66\n      jumpi\n      tag_67\n      tag_68\n      jump\t// in\n    tag_67:\n    tag_66:\n      0x20\n      mul\n      0x20\n      add\n      add\n        /* \"contracts/stakers.sol\":1650:1697  addresses[count] = WalletBalance(user, balance) */\n      dup2\n      swap1\n      mstore\n      pop\n        /* \"contracts/stakers.sol\":1715:1722  count++ */\n      dup5\n      dup1\n      tag_69\n      swap1\n      tag_70\n      jump\t// in\n    tag_69:\n      swap6\n      pop\n      pop\n        /* \"contracts/stakers.sol\":1566:1737  {... */\n      pop\n        /* \"contracts/stakers.sol\":1543:1737  returns (address user) {... */\n      pop\n        /* \"contracts/stakers.sol\":1469:1792  while (count < max) {... */\n      jump(tag_49)\n    tag_50:\n        /* \"contracts/stakers.sol\":1802:1831  WalletBalance[] memory result */\n      0x00\n        /* \"contracts/stakers.sol\":1854:1859  count */\n      dup4\n        /* \"contracts/stakers.sol\":1834:1860  new WalletBalance[](count) */\n      0xffff\n      and\n      0xffffffffffffffff\n      dup2\n      gt\n      iszero\n      tag_71\n      jumpi\n      tag_72\n      tag_44\n      jump\t// in\n    tag_72:\n    tag_71:\n      mload(0x40)\n      swap1\n      dup1\n      dup3\n      mstore\n      dup1\n      0x20\n      mul\n      0x20\n      add\n      dup3\n      add\n      0x40\n      mstore\n      dup1\n      iszero\n      tag_73\n      jumpi\n      dup2\n      0x20\n      add\n    tag_74:\n      tag_75\n      tag_48\n      jump\t// in\n    tag_75:\n      dup2\n      mstore\n      0x20\n      add\n      swap1\n      0x01\n      swap1\n      sub\n      swap1\n      dup2\n      tag_74\n      jumpi\n      swap1\n      pop\n    tag_73:\n      pop\n        /* \"contracts/stakers.sol\":1802:1860  WalletBalance[] memory result = new WalletBalance[](count) */\n      swap1\n      pop\n        /* \"contracts/stakers.sol\":1875:1884  uint256 i */\n      0x00\n        /* \"contracts/stakers.sol\":1870:1955  for (uint256 i = 0; i < count; i++) {... */\n    tag_76:\n        /* \"contracts/stakers.sol\":1894:1899  count */\n      dup5\n        /* \"contracts/stakers.sol\":1890:1899  i < count */\n      0xffff\n      and\n        /* \"contracts/stakers.sol\":1890:1891  i */\n      dup2\n        /* \"contracts/stakers.sol\":1890:1899  i < count */\n      lt\n        /* \"contracts/stakers.sol\":1870:1955  for (uint256 i = 0; i < count; i++) {... */\n      iszero\n      tag_77\n      jumpi\n        /* \"contracts/stakers.sol\":1932:1941  addresses */\n      dup3\n        /* \"contracts/stakers.sol\":1942:1943  i */\n      dup2\n        /* \"contracts/stakers.sol\":1932:1944  addresses[i] */\n      dup2\n      mload\n      dup2\n      lt\n      tag_79\n      jumpi\n      tag_80\n      tag_68\n      jump\t// in\n    tag_80:\n    tag_79:\n      0x20\n      mul\n      0x20\n      add\n      add\n      mload\n        /* \"contracts/stakers.sol\":1920:1926  result */\n      dup3\n        /* \"contracts/stakers.sol\":1927:1928  i */\n      dup3\n        /* \"contracts/stakers.sol\":1920:1929  result[i] */\n      dup2\n      mload\n      dup2\n      lt\n      tag_81\n      jumpi\n      tag_82\n      tag_68\n      jump\t// in\n    tag_82:\n    tag_81:\n      0x20\n      mul\n      0x20\n      add\n      add\n        /* \"contracts/stakers.sol\":1920:1944  result[i] = addresses[i] */\n      dup2\n      swap1\n      mstore\n      pop\n        /* \"contracts/stakers.sol\":1901:1904  i++ */\n      dup1\n      dup1\n      0x01\n      add\n      swap2\n      pop\n      pop\n        /* \"contracts/stakers.sol\":1870:1955  for (uint256 i = 0; i < count; i++) {... */\n      jump(tag_76)\n    tag_77:\n      pop\n        /* \"contracts/stakers.sol\":1973:1978  count */\n      dup4\n        /* \"contracts/stakers.sol\":1980:1986  result */\n      dup2\n        /* \"contracts/stakers.sol\":1965:1987  return (count, result) */\n      dup2\n      0xffff\n      and\n      swap2\n      pop\n      swap6\n      pop\n      swap6\n      pop\n      pop\n      pop\n      pop\n      pop\n        /* \"contracts/stakers.sol\":1210:1994  function getStakers()... */\n      swap1\n      swap2\n      jump\t// out\n        /* \"contracts/stakers.sol\":324:344  address public owner */\n    tag_21:\n      0x00\n      dup1\n      sload\n      swap1\n      0x0100\n      exp\n      swap1\n      div\n      0xffffffffffffffffffffffffffffffffffffffff\n      and\n      dup2\n      jump\t// out\n        /* \"contracts/stakers.sol\":2126:2799  function getTier(address wallet)... */\n    tag_27:\n        /* \"contracts/stakers.sol\":2217:2230  string memory */\n      0x60\n        /* \"contracts/stakers.sol\":2244:2251  uint256 */\n      0x00\n        /* \"contracts/stakers.sol\":2265:2272  uint256 */\n      dup1\n        /* \"contracts/stakers.sol\":2297:2315  uint256 eaiBalance */\n      0x00\n        /* \"contracts/stakers.sol\":2325:2328  eai */\n      0x01\n      0x00\n      swap1\n      sload\n      swap1\n      0x0100\n      exp\n      swap1\n      div\n      0xffffffffffffffffffffffffffffffffffffffff\n      and\n        /* \"contracts/stakers.sol\":2318:2339  IERC20(eai).balanceOf */\n      0xffffffffffffffffffffffffffffffffffffffff\n      and\n      0x70a08231\n        /* \"contracts/stakers.sol\":2340:2346  wallet */\n      dup7\n        /* \"contracts/stakers.sol\":2318:2347  IERC20(eai).balanceOf(wallet) */\n      mload(0x40)\n      dup3\n      0xffffffff\n      and\n      0xe0\n      shl\n      dup2\n      mstore\n      0x04\n      add\n      tag_84\n      swap2\n      swap1\n      tag_23\n      jump\t// in\n    tag_84:\n      0x20\n      mload(0x40)\n      dup1\n      dup4\n      sub\n      dup2\n      dup7\n      gas\n      staticcall\n      iszero\n      dup1\n      iszero\n      tag_86\n      jumpi\n      returndatasize\n      0x00\n      dup1\n      returndatacopy\n      revert(0x00, returndatasize)\n    tag_86:\n      pop\n      pop\n      pop\n      pop\n      mload(0x40)\n      returndatasize\n      not(0x1f)\n      0x1f\n      dup3\n      add\n      and\n      dup3\n      add\n      dup1\n      0x40\n      mstore\n      pop\n      dup2\n      add\n      swap1\n      tag_87\n      swap2\n      swap1\n      tag_65\n      jump\t// in\n    tag_87:\n        /* \"contracts/stakers.sol\":2297:2347  uint256 eaiBalance = IERC20(eai).balanceOf(wallet) */\n      swap1\n      pop\n        /* \"contracts/stakers.sol\":2357:2377  uint256 tdeaiBalance */\n      0x00\n        /* \"contracts/stakers.sol\":2387:2392  tdeai */\n      0x03\n      0x00\n      swap1\n      sload\n      swap1\n      0x0100\n      exp\n      swap1\n      div\n      0xffffffffffffffffffffffffffffffffffffffff\n      and\n        /* \"contracts/stakers.sol\":2380:2403  IERC20(tdeai).balanceOf */\n      0xffffffffffffffffffffffffffffffffffffffff\n      and\n      0x70a08231\n        /* \"contracts/stakers.sol\":2404:2410  wallet */\n      dup8\n        /* \"contracts/stakers.sol\":2380:2411  IERC20(tdeai).balanceOf(wallet) */\n      mload(0x40)\n      dup3\n      0xffffffff\n      and\n      0xe0\n      shl\n      dup2\n      mstore\n      0x04\n      add\n      tag_88\n      swap2\n      swap1\n      tag_23\n      jump\t// in\n    tag_88:\n      0x20\n      mload(0x40)\n      dup1\n      dup4\n      sub\n      dup2\n      dup7\n      gas\n      staticcall\n      iszero\n      dup1\n      iszero\n      tag_90\n      jumpi\n      returndatasize\n      0x00\n      dup1\n      returndatacopy\n      revert(0x00, returndatasize)\n    tag_90:\n      pop\n      pop\n      pop\n      pop\n      mload(0x40)\n      returndatasize\n      not(0x1f)\n      0x1f\n      dup3\n      add\n      and\n      dup3\n      add\n      dup1\n      0x40\n      mstore\n      pop\n      dup2\n      add\n      swap1\n      tag_91\n      swap2\n      swap1\n      tag_65\n      jump\t// in\n    tag_91:\n        /* \"contracts/stakers.sol\":2357:2411  uint256 tdeaiBalance = IERC20(tdeai).balanceOf(wallet) */\n      swap1\n      pop\n        /* \"contracts/stakers.sol\":2422:2435  uint256 total */\n      0x00\n        /* \"contracts/stakers.sol\":2451:2463  tdeaiBalance */\n      dup2\n        /* \"contracts/stakers.sol\":2438:2448  eaiBalance */\n      dup4\n        /* \"contracts/stakers.sol\":2438:2463  eaiBalance + tdeaiBalance */\n      tag_92\n      swap2\n      swap1\n      tag_93\n      jump\t// in\n    tag_92:\n        /* \"contracts/stakers.sol\":2422:2463  uint256 total = eaiBalance + tdeaiBalance */\n      swap1\n      pop\n        /* \"contracts/stakers.sol\":2474:2492  string memory tier */\n      0x60\n        /* \"contracts/stakers.sol\":2516:2530  25000 * 10**18 */\n      0x054b40b1f852bda00000\n        /* \"contracts/stakers.sol\":2507:2512  total */\n      dup3\n        /* \"contracts/stakers.sol\":2507:2530  total >= 25000 * 10**18 */\n      lt\n        /* \"contracts/stakers.sol\":2503:2749  if (total >= 25000 * 10**18) tier = \"platinum\";... */\n      tag_94\n      jumpi\n        /* \"contracts/stakers.sol\":2532:2549  tier = \"platinum\" */\n      mload(0x40)\n      dup1\n      0x40\n      add\n      0x40\n      mstore\n      dup1\n      0x08\n      dup2\n      mstore\n      0x20\n      add\n      0x706c6174696e756d000000000000000000000000000000000000000000000000\n      dup2\n      mstore\n      pop\n      swap1\n      pop\n        /* \"contracts/stakers.sol\":2503:2749  if (total >= 25000 * 10**18) tier = \"platinum\";... */\n      jump(tag_95)\n    tag_94:\n        /* \"contracts/stakers.sol\":2577:2590  5000 * 10**18 */\n      0x010f0cf064dd59200000\n        /* \"contracts/stakers.sol\":2568:2573  total */\n      dup3\n        /* \"contracts/stakers.sol\":2568:2590  total >= 5000 * 10**18 */\n      lt\n        /* \"contracts/stakers.sol\":2564:2749  if (total >= 5000 * 10**18) tier = \"gold\";... */\n      tag_96\n      jumpi\n        /* \"contracts/stakers.sol\":2592:2605  tier = \"gold\" */\n      mload(0x40)\n      dup1\n      0x40\n      add\n      0x40\n      mstore\n      dup1\n      0x04\n      dup2\n      mstore\n      0x20\n      add\n      0x676f6c6400000000000000000000000000000000000000000000000000000000\n      dup2\n      mstore\n      pop\n      swap1\n      pop\n        /* \"contracts/stakers.sol\":2564:2749  if (total >= 5000 * 10**18) tier = \"gold\";... */\n      jump(tag_97)\n    tag_96:\n        /* \"contracts/stakers.sol\":2633:2646  2500 * 10**18 */\n      0x878678326eac900000\n        /* \"contracts/stakers.sol\":2624:2629  total */\n      dup3\n        /* \"contracts/stakers.sol\":2624:2646  total >= 2500 * 10**18 */\n      lt\n        /* \"contracts/stakers.sol\":2620:2749  if (total >= 2500 * 10**18) tier = \"silver\";... */\n      tag_98\n      jumpi\n        /* \"contracts/stakers.sol\":2648:2663  tier = \"silver\" */\n      mload(0x40)\n      dup1\n      0x40\n      add\n      0x40\n      mstore\n      dup1\n      0x06\n      dup2\n      mstore\n      0x20\n      add\n      0x73696c7665720000000000000000000000000000000000000000000000000000\n      dup2\n      mstore\n      pop\n      swap1\n      pop\n        /* \"contracts/stakers.sol\":2620:2749  if (total >= 2500 * 10**18) tier = \"silver\";... */\n      jump(tag_99)\n    tag_98:\n        /* \"contracts/stakers.sol\":2691:2704  1250 * 10**18 */\n      0x43c33c193756480000\n        /* \"contracts/stakers.sol\":2682:2687  total */\n      dup3\n        /* \"contracts/stakers.sol\":2682:2704  total >= 1250 * 10**18 */\n      lt\n        /* \"contracts/stakers.sol\":2678:2749  if (total >= 1250 * 10**18) tier = \"bronze\";... */\n      tag_100\n      jumpi\n        /* \"contracts/stakers.sol\":2706:2721  tier = \"bronze\" */\n      mload(0x40)\n      dup1\n      0x40\n      add\n      0x40\n      mstore\n      dup1\n      0x06\n      dup2\n      mstore\n      0x20\n      add\n      0x62726f6e7a650000000000000000000000000000000000000000000000000000\n      dup2\n      mstore\n      pop\n      swap1\n      pop\n        /* \"contracts/stakers.sol\":2678:2749  if (total >= 1250 * 10**18) tier = \"bronze\";... */\n      jump(tag_101)\n    tag_100:\n        /* \"contracts/stakers.sol\":2736:2749  tier = \"none\" */\n      mload(0x40)\n      dup1\n      0x40\n      add\n      0x40\n      mstore\n      dup1\n      0x04\n      dup2\n      mstore\n      0x20\n      add\n      0x6e6f6e6500000000000000000000000000000000000000000000000000000000\n      dup2\n      mstore\n      pop\n      swap1\n      pop\n        /* \"contracts/stakers.sol\":2678:2749  if (total >= 1250 * 10**18) tier = \"bronze\";... */\n    tag_101:\n        /* \"contracts/stakers.sol\":2620:2749  if (total >= 2500 * 10**18) tier = \"silver\";... */\n    tag_99:\n        /* \"contracts/stakers.sol\":2564:2749  if (total >= 5000 * 10**18) tier = \"gold\";... */\n    tag_97:\n        /* \"contracts/stakers.sol\":2503:2749  if (total >= 25000 * 10**18) tier = \"platinum\";... */\n    tag_95:\n        /* \"contracts/stakers.sol\":2768:2772  tier */\n      dup1\n        /* \"contracts/stakers.sol\":2774:2784  eaiBalance */\n      dup5\n        /* \"contracts/stakers.sol\":2786:2791  total */\n      dup4\n        /* \"contracts/stakers.sol\":2760:2792  return (tier, eaiBalance, total) */\n      swap7\n      pop\n      swap7\n      pop\n      swap7\n      pop\n      pop\n      pop\n      pop\n      pop\n        /* \"contracts/stakers.sol\":2126:2799  function getTier(address wallet)... */\n      swap2\n      swap4\n      swap1\n      swap3\n      pop\n      jump\t// out\n    tag_48:\n      mload(0x40)\n      dup1\n      0x40\n      add\n      0x40\n      mstore\n      dup1\n      and(0xffffffffffffffffffffffffffffffffffffffff, 0x00)\n      dup2\n      mstore\n      0x20\n      add\n      0x00\n      dup2\n      mstore\n      pop\n      swap1\n      jump\t// out\n        /* \"#utility.yul\":7:106   */\n    tag_102:\n        /* \"#utility.yul\":59:65   */\n      0x00\n        /* \"#utility.yul\":93:98   */\n      dup2\n        /* \"#utility.yul\":87:99   */\n      mload\n        /* \"#utility.yul\":77:99   */\n      swap1\n      pop\n        /* \"#utility.yul\":7:106   */\n      swap2\n      swap1\n      pop\n      jump\t// out\n        /* \"#utility.yul\":112:281   */\n    tag_103:\n        /* \"#utility.yul\":196:207   */\n      0x00\n        /* \"#utility.yul\":230:236   */\n      dup3\n        /* \"#utility.yul\":225:228   */\n      dup3\n        /* \"#utility.yul\":218:237   */\n      mstore\n        /* \"#utility.yul\":270:274   */\n      0x20\n        /* \"#utility.yul\":265:268   */\n      dup3\n        /* \"#utility.yul\":261:275   */\n      add\n        /* \"#utility.yul\":246:275   */\n      swap1\n      pop\n        /* \"#utility.yul\":112:281   */\n      swap3\n      swap2\n      pop\n      pop\n      jump\t// out\n        /* \"#utility.yul\":287:426   */\n    tag_104:\n        /* \"#utility.yul\":376:382   */\n      dup3\n        /* \"#utility.yul\":371:374   */\n      dup2\n        /* \"#utility.yul\":366:369   */\n      dup4\n        /* \"#utility.yul\":360:383   */\n      mcopy\n        /* \"#utility.yul\":417:418   */\n      0x00\n        /* \"#utility.yul\":408:414   */\n      dup4\n        /* \"#utility.yul\":403:406   */\n      dup4\n        /* \"#utility.yul\":399:415   */\n      add\n        /* \"#utility.yul\":392:419   */\n      mstore\n        /* \"#utility.yul\":287:426   */\n      pop\n      pop\n      pop\n      jump\t// out\n        /* \"#utility.yul\":432:534   */\n    tag_105:\n        /* \"#utility.yul\":473:479   */\n      0x00\n        /* \"#utility.yul\":524:526   */\n      0x1f\n        /* \"#utility.yul\":520:527   */\n      not\n        /* \"#utility.yul\":515:517   */\n      0x1f\n        /* \"#utility.yul\":508:513   */\n      dup4\n        /* \"#utility.yul\":504:518   */\n      add\n        /* \"#utility.yul\":500:528   */\n      and\n        /* \"#utility.yul\":490:528   */\n      swap1\n      pop\n        /* \"#utility.yul\":432:534   */\n      swap2\n      swap1\n      pop\n      jump\t// out\n        /* \"#utility.yul\":540:917   */\n    tag_106:\n        /* \"#utility.yul\":628:631   */\n      0x00\n        /* \"#utility.yul\":656:695   */\n      tag_143\n        /* \"#utility.yul\":689:694   */\n      dup3\n        /* \"#utility.yul\":656:695   */\n      tag_102\n      jump\t// in\n    tag_143:\n        /* \"#utility.yul\":711:782   */\n      tag_144\n        /* \"#utility.yul\":775:781   */\n      dup2\n        /* \"#utility.yul\":770:773   */\n      dup6\n        /* \"#utility.yul\":711:782   */\n      tag_103\n      jump\t// in\n    tag_144:\n        /* \"#utility.yul\":704:782   */\n      swap4\n      pop\n        /* \"#utility.yul\":791:856   */\n      tag_145\n        /* \"#utility.yul\":849:855   */\n      dup2\n        /* \"#utility.yul\":844:847   */\n      dup6\n        /* \"#utility.yul\":837:841   */\n      0x20\n        /* \"#utility.yul\":830:835   */\n      dup7\n        /* \"#utility.yul\":826:842   */\n      add\n        /* \"#utility.yul\":791:856   */\n      tag_104\n      jump\t// in\n    tag_145:\n        /* \"#utility.yul\":881:910   */\n      tag_146\n        /* \"#utility.yul\":903:909   */\n      dup2\n        /* \"#utility.yul\":881:910   */\n      tag_105\n      jump\t// in\n    tag_146:\n        /* \"#utility.yul\":876:879   */\n      dup5\n        /* \"#utility.yul\":872:911   */\n      add\n        /* \"#utility.yul\":865:911   */\n      swap2\n      pop\n        /* \"#utility.yul\":632:917   */\n      pop\n        /* \"#utility.yul\":540:917   */\n      swap3\n      swap2\n      pop\n      pop\n      jump\t// out\n        /* \"#utility.yul\":923:1236   */\n    tag_11:\n        /* \"#utility.yul\":1036:1040   */\n      0x00\n        /* \"#utility.yul\":1074:1076   */\n      0x20\n        /* \"#utility.yul\":1063:1072   */\n      dup3\n        /* \"#utility.yul\":1059:1077   */\n      add\n        /* \"#utility.yul\":1051:1077   */\n      swap1\n      pop\n        /* \"#utility.yul\":1123:1132   */\n      dup2\n        /* \"#utility.yul\":1117:1121   */\n      dup2\n        /* \"#utility.yul\":1113:1133   */\n      sub\n        /* \"#utility.yul\":1109:1110   */\n      0x00\n        /* \"#utility.yul\":1098:1107   */\n      dup4\n        /* \"#utility.yul\":1094:1111   */\n      add\n        /* \"#utility.yul\":1087:1134   */\n      mstore\n        /* \"#utility.yul\":1151:1229   */\n      tag_148\n        /* \"#utility.yul\":1224:1228   */\n      dup2\n        /* \"#utility.yul\":1215:1221   */\n      dup5\n        /* \"#utility.yul\":1151:1229   */\n      tag_106\n      jump\t// in\n    tag_148:\n        /* \"#utility.yul\":1143:1229   */\n      swap1\n      pop\n        /* \"#utility.yul\":923:1236   */\n      swap3\n      swap2\n      pop\n      pop\n      jump\t// out\n        /* \"#utility.yul\":1323:1440   */\n    tag_108:\n        /* \"#utility.yul\":1432:1433   */\n      0x00\n        /* \"#utility.yul\":1429:1430   */\n      dup1\n        /* \"#utility.yul\":1422:1434   */\n      revert\n        /* \"#utility.yul\":1569:1695   */\n    tag_110:\n        /* \"#utility.yul\":1606:1613   */\n      0x00\n        /* \"#utility.yul\":1646:1688   */\n      0xffffffffffffffffffffffffffffffffffffffff\n        /* \"#utility.yul\":1639:1644   */\n      dup3\n        /* \"#utility.yul\":1635:1689   */\n      and\n        /* \"#utility.yul\":1624:1689   */\n      swap1\n      pop\n        /* \"#utility.yul\":1569:1695   */\n      swap2\n      swap1\n      pop\n      jump\t// out\n        /* \"#utility.yul\":1701:1797   */\n    tag_111:\n        /* \"#utility.yul\":1738:1745   */\n      0x00\n        /* \"#utility.yul\":1767:1791   */\n      tag_154\n        /* \"#utility.yul\":1785:1790   */\n      dup3\n        /* \"#utility.yul\":1767:1791   */\n      tag_110\n      jump\t// in\n    tag_154:\n        /* \"#utility.yul\":1756:1791   */\n      swap1\n      pop\n        /* \"#utility.yul\":1701:1797   */\n      swap2\n      swap1\n      pop\n      jump\t// out\n        /* \"#utility.yul\":1803:1925   */\n    tag_112:\n        /* \"#utility.yul\":1876:1900   */\n      tag_156\n        /* \"#utility.yul\":1894:1899   */\n      dup2\n        /* \"#utility.yul\":1876:1900   */\n      tag_111\n      jump\t// in\n    tag_156:\n        /* \"#utility.yul\":1869:1874   */\n      dup2\n        /* \"#utility.yul\":1866:1901   */\n      eq\n        /* \"#utility.yul\":1856:1919   */\n      tag_157\n      jumpi\n        /* \"#utility.yul\":1915:1916   */\n      0x00\n        /* \"#utility.yul\":1912:1913   */\n      dup1\n        /* \"#utility.yul\":1905:1917   */\n      revert\n        /* \"#utility.yul\":1856:1919   */\n    tag_157:\n        /* \"#utility.yul\":1803:1925   */\n      pop\n      jump\t// out\n        /* \"#utility.yul\":1931:2070   */\n    tag_113:\n        /* \"#utility.yul\":1977:1982   */\n      0x00\n        /* \"#utility.yul\":2015:2021   */\n      dup2\n        /* \"#utility.yul\":2002:2022   */\n      calldataload\n        /* \"#utility.yul\":1993:2022   */\n      swap1\n      pop\n        /* \"#utility.yul\":2031:2064   */\n      tag_159\n        /* \"#utility.yul\":2058:2063   */\n      dup2\n        /* \"#utility.yul\":2031:2064   */\n      tag_112\n      jump\t// in\n    tag_159:\n        /* \"#utility.yul\":1931:2070   */\n      swap3\n      swap2\n      pop\n      pop\n      jump\t// out\n        /* \"#utility.yul\":2076:2695   */\n    tag_14:\n        /* \"#utility.yul\":2153:2159   */\n      0x00\n        /* \"#utility.yul\":2161:2167   */\n      dup1\n        /* \"#utility.yul\":2169:2175   */\n      0x00\n        /* \"#utility.yul\":2218:2220   */\n      0x60\n        /* \"#utility.yul\":2206:2215   */\n      dup5\n        /* \"#utility.yul\":2197:2204   */\n      dup7\n        /* \"#utility.yul\":2193:2216   */\n      sub\n        /* \"#utility.yul\":2189:2221   */\n      slt\n        /* \"#utility.yul\":2186:2305   */\n      iszero\n      tag_161\n      jumpi\n        /* \"#utility.yul\":2224:2303   */\n      tag_162\n      tag_108\n      jump\t// in\n    tag_162:\n        /* \"#utility.yul\":2186:2305   */\n    tag_161:\n        /* \"#utility.yul\":2344:2345   */\n      0x00\n        /* \"#utility.yul\":2369:2422   */\n      tag_163\n        /* \"#utility.yul\":2414:2421   */\n      dup7\n        /* \"#utility.yul\":2405:2411   */\n      dup3\n        /* \"#utility.yul\":2394:2403   */\n      dup8\n        /* \"#utility.yul\":2390:2412   */\n      add\n        /* \"#utility.yul\":2369:2422   */\n      tag_113\n      jump\t// in\n    tag_163:\n        /* \"#utility.yul\":2359:2422   */\n      swap4\n      pop\n        /* \"#utility.yul\":2315:2432   */\n      pop\n        /* \"#utility.yul\":2471:2473   */\n      0x20\n        /* \"#utility.yul\":2497:2550   */\n      tag_164\n        /* \"#utility.yul\":2542:2549   */\n      dup7\n        /* \"#utility.yul\":2533:2539   */\n      dup3\n        /* \"#utility.yul\":2522:2531   */\n      dup8\n        /* \"#utility.yul\":2518:2540   */\n      add\n        /* \"#utility.yul\":2497:2550   */\n      tag_113\n      jump\t// in\n    tag_164:\n        /* \"#utility.yul\":2487:2550   */\n      swap3\n      pop\n        /* \"#utility.yul\":2442:2560   */\n      pop\n        /* \"#utility.yul\":2599:2601   */\n      0x40\n        /* \"#utility.yul\":2625:2678   */\n      tag_165\n        /* \"#utility.yul\":2670:2677   */\n      dup7\n        /* \"#utility.yul\":2661:2667   */\n      dup3\n        /* \"#utility.yul\":2650:2659   */\n      dup8\n        /* \"#utility.yul\":2646:2668   */\n      add\n        /* \"#utility.yul\":2625:2678   */\n      tag_113\n      jump\t// in\n    tag_165:\n        /* \"#utility.yul\":2615:2678   */\n      swap2\n      pop\n        /* \"#utility.yul\":2570:2688   */\n      pop\n        /* \"#utility.yul\":2076:2695   */\n      swap3\n      pop\n      swap3\n      pop\n      swap3\n      jump\t// out\n        /* \"#utility.yul\":2701:2778   */\n    tag_114:\n        /* \"#utility.yul\":2738:2745   */\n      0x00\n        /* \"#utility.yul\":2767:2772   */\n      dup2\n        /* \"#utility.yul\":2756:2772   */\n      swap1\n      pop\n        /* \"#utility.yul\":2701:2778   */\n      swap2\n      swap1\n      pop\n      jump\t// out\n        /* \"#utility.yul\":2784:2902   */\n    tag_115:\n        /* \"#utility.yul\":2871:2895   */\n      tag_168\n        /* \"#utility.yul\":2889:2894   */\n      dup2\n        /* \"#utility.yul\":2871:2895   */\n      tag_114\n      jump\t// in\n    tag_168:\n        /* \"#utility.yul\":2866:2869   */\n      dup3\n        /* \"#utility.yul\":2859:2896   */\n      mstore\n        /* \"#utility.yul\":2784:2902   */\n      pop\n      pop\n      jump\t// out\n        /* \"#utility.yul\":2908:3051   */\n    tag_116:\n        /* \"#utility.yul\":3004:3010   */\n      0x00\n        /* \"#utility.yul\":3038:3043   */\n      dup2\n        /* \"#utility.yul\":3032:3044   */\n      mload\n        /* \"#utility.yul\":3022:3044   */\n      swap1\n      pop\n        /* \"#utility.yul\":2908:3051   */\n      swap2\n      swap1\n      pop\n      jump\t// out\n        /* \"#utility.yul\":3057:3270   */\n    tag_117:\n        /* \"#utility.yul\":3185:3196   */\n      0x00\n        /* \"#utility.yul\":3219:3225   */\n      dup3\n        /* \"#utility.yul\":3214:3217   */\n      dup3\n        /* \"#utility.yul\":3207:3226   */\n      mstore\n        /* \"#utility.yul\":3259:3263   */\n      0x20\n        /* \"#utility.yul\":3254:3257   */\n      dup3\n        /* \"#utility.yul\":3250:3264   */\n      add\n        /* \"#utility.yul\":3235:3264   */\n      swap1\n      pop\n        /* \"#utility.yul\":3057:3270   */\n      swap3\n      swap2\n      pop\n      pop\n      jump\t// out\n        /* \"#utility.yul\":3276:3437   */\n    tag_118:\n        /* \"#utility.yul\":3372:3376   */\n      0x00\n        /* \"#utility.yul\":3395:3398   */\n      dup2\n        /* \"#utility.yul\":3387:3398   */\n      swap1\n      pop\n        /* \"#utility.yul\":3425:3429   */\n      0x20\n        /* \"#utility.yul\":3420:3423   */\n      dup3\n        /* \"#utility.yul\":3416:3430   */\n      add\n        /* \"#utility.yul\":3408:3430   */\n      swap1\n      pop\n        /* \"#utility.yul\":3276:3437   */\n      swap2\n      swap1\n      pop\n      jump\t// out\n        /* \"#utility.yul\":3443:3551   */\n    tag_119:\n        /* \"#utility.yul\":3520:3544   */\n      tag_173\n        /* \"#utility.yul\":3538:3543   */\n      dup2\n        /* \"#utility.yul\":3520:3544   */\n      tag_111\n      jump\t// in\n    tag_173:\n        /* \"#utility.yul\":3515:3518   */\n      dup3\n        /* \"#utility.yul\":3508:3545   */\n      mstore\n        /* \"#utility.yul\":3443:3551   */\n      pop\n      pop\n      jump\t// out\n        /* \"#utility.yul\":3557:3665   */\n    tag_120:\n        /* \"#utility.yul\":3634:3658   */\n      tag_175\n        /* \"#utility.yul\":3652:3657   */\n      dup2\n        /* \"#utility.yul\":3634:3658   */\n      tag_114\n      jump\t// in\n    tag_175:\n        /* \"#utility.yul\":3629:3632   */\n      dup3\n        /* \"#utility.yul\":3622:3659   */\n      mstore\n        /* \"#utility.yul\":3557:3665   */\n      pop\n      pop\n      jump\t// out\n        /* \"#utility.yul\":3723:4231   */\n    tag_121:\n        /* \"#utility.yul\":3868:3872   */\n      0x40\n        /* \"#utility.yul\":3863:3866   */\n      dup3\n        /* \"#utility.yul\":3859:3873   */\n      add\n        /* \"#utility.yul\":3955:3959   */\n      0x00\n        /* \"#utility.yul\":3948:3953   */\n      dup3\n        /* \"#utility.yul\":3944:3960   */\n      add\n        /* \"#utility.yul\":3938:3961   */\n      mload\n        /* \"#utility.yul\":3974:4037   */\n      tag_177\n        /* \"#utility.yul\":4031:4035   */\n      0x00\n        /* \"#utility.yul\":4026:4029   */\n      dup6\n        /* \"#utility.yul\":4022:4036   */\n      add\n        /* \"#utility.yul\":4008:4020   */\n      dup3\n        /* \"#utility.yul\":3974:4037   */\n      tag_119\n      jump\t// in\n    tag_177:\n        /* \"#utility.yul\":3883:4047   */\n      pop\n        /* \"#utility.yul\":4132:4136   */\n      0x20\n        /* \"#utility.yul\":4125:4130   */\n      dup3\n        /* \"#utility.yul\":4121:4137   */\n      add\n        /* \"#utility.yul\":4115:4138   */\n      mload\n        /* \"#utility.yul\":4151:4214   */\n      tag_178\n        /* \"#utility.yul\":4208:4212   */\n      0x20\n        /* \"#utility.yul\":4203:4206   */\n      dup6\n        /* \"#utility.yul\":4199:4213   */\n      add\n        /* \"#utility.yul\":4185:4197   */\n      dup3\n        /* \"#utility.yul\":4151:4214   */\n      tag_120\n      jump\t// in\n    tag_178:\n        /* \"#utility.yul\":4057:4224   */\n      pop\n        /* \"#utility.yul\":3837:4231   */\n      pop\n        /* \"#utility.yul\":3723:4231   */\n      pop\n      pop\n      jump\t// out\n        /* \"#utility.yul\":4237:4532   */\n    tag_122:\n        /* \"#utility.yul\":4364:4374   */\n      0x00\n        /* \"#utility.yul\":4385:4489   */\n      tag_180\n        /* \"#utility.yul\":4485:4488   */\n      dup4\n        /* \"#utility.yul\":4477:4483   */\n      dup4\n        /* \"#utility.yul\":4385:4489   */\n      tag_121\n      jump\t// in\n    tag_180:\n        /* \"#utility.yul\":4521:4525   */\n      0x40\n        /* \"#utility.yul\":4516:4519   */\n      dup4\n        /* \"#utility.yul\":4512:4526   */\n      add\n        /* \"#utility.yul\":4498:4526   */\n      swap1\n      pop\n        /* \"#utility.yul\":4237:4532   */\n      swap3\n      swap2\n      pop\n      pop\n      jump\t// out\n        /* \"#utility.yul\":4538:4680   */\n    tag_123:\n        /* \"#utility.yul\":4637:4641   */\n      0x00\n        /* \"#utility.yul\":4669:4673   */\n      0x20\n        /* \"#utility.yul\":4664:4667   */\n      dup3\n        /* \"#utility.yul\":4660:4674   */\n      add\n        /* \"#utility.yul\":4652:4674   */\n      swap1\n      pop\n        /* \"#utility.yul\":4538:4680   */\n      swap2\n      swap1\n      pop\n      jump\t// out\n        /* \"#utility.yul\":4742:5706   */\n    tag_124:\n        /* \"#utility.yul\":4919:4922   */\n      0x00\n        /* \"#utility.yul\":4948:5031   */\n      tag_183\n        /* \"#utility.yul\":5025:5030   */\n      dup3\n        /* \"#utility.yul\":4948:5031   */\n      tag_116\n      jump\t// in\n    tag_183:\n        /* \"#utility.yul\":5047:5162   */\n      tag_184\n        /* \"#utility.yul\":5155:5161   */\n      dup2\n        /* \"#utility.yul\":5150:5153   */\n      dup6\n        /* \"#utility.yul\":5047:5162   */\n      tag_117\n      jump\t// in\n    tag_184:\n        /* \"#utility.yul\":5040:5162   */\n      swap4\n      pop\n        /* \"#utility.yul\":5186:5271   */\n      tag_185\n        /* \"#utility.yul\":5265:5270   */\n      dup4\n        /* \"#utility.yul\":5186:5271   */\n      tag_118\n      jump\t// in\n    tag_185:\n        /* \"#utility.yul\":5294:5301   */\n      dup1\n        /* \"#utility.yul\":5325:5326   */\n      0x00\n        /* \"#utility.yul\":5310:5681   */\n    tag_186:\n        /* \"#utility.yul\":5335:5341   */\n      dup4\n        /* \"#utility.yul\":5332:5333   */\n      dup2\n        /* \"#utility.yul\":5329:5342   */\n      lt\n        /* \"#utility.yul\":5310:5681   */\n      iszero\n      tag_188\n      jumpi\n        /* \"#utility.yul\":5411:5417   */\n      dup2\n        /* \"#utility.yul\":5405:5418   */\n      mload\n        /* \"#utility.yul\":5438:5559   */\n      tag_189\n        /* \"#utility.yul\":5555:5558   */\n      dup9\n        /* \"#utility.yul\":5540:5553   */\n      dup3\n        /* \"#utility.yul\":5438:5559   */\n      tag_122\n      jump\t// in\n    tag_189:\n        /* \"#utility.yul\":5431:5559   */\n      swap8\n      pop\n        /* \"#utility.yul\":5582:5671   */\n      tag_190\n        /* \"#utility.yul\":5664:5670   */\n      dup4\n        /* \"#utility.yul\":5582:5671   */\n      tag_123\n      jump\t// in\n    tag_190:\n        /* \"#utility.yul\":5572:5671   */\n      swap3\n      pop\n        /* \"#utility.yul\":5370:5681   */\n      pop\n        /* \"#utility.yul\":5357:5358   */\n      0x01\n        /* \"#utility.yul\":5354:5355   */\n      dup2\n        /* \"#utility.yul\":5350:5359   */\n      add\n        /* \"#utility.yul\":5345:5359   */\n      swap1\n      pop\n        /* \"#utility.yul\":5310:5681   */\n      jump(tag_186)\n    tag_188:\n        /* \"#utility.yul\":5314:5328   */\n      pop\n        /* \"#utility.yul\":5697:5700   */\n      dup6\n        /* \"#utility.yul\":5690:5700   */\n      swap4\n      pop\n        /* \"#utility.yul\":4924:5706   */\n      pop\n      pop\n      pop\n        /* \"#utility.yul\":4742:5706   */\n      swap3\n      swap2\n      pop\n      pop\n      jump\t// out\n        /* \"#utility.yul\":5712:6311   */\n    tag_19:\n        /* \"#utility.yul\":5941:5945   */\n      0x00\n        /* \"#utility.yul\":5979:5981   */\n      0x40\n        /* \"#utility.yul\":5968:5977   */\n      dup3\n        /* \"#utility.yul\":5964:5982   */\n      add\n        /* \"#utility.yul\":5956:5982   */\n      swap1\n      pop\n        /* \"#utility.yul\":5992:6063   */\n      tag_192\n        /* \"#utility.yul\":6060:6061   */\n      0x00\n        /* \"#utility.yul\":6049:6058   */\n      dup4\n        /* \"#utility.yul\":6045:6062   */\n      add\n        /* \"#utility.yul\":6036:6042   */\n      dup6\n        /* \"#utility.yul\":5992:6063   */\n      tag_115\n      jump\t// in\n    tag_192:\n        /* \"#utility.yul\":6110:6119   */\n      dup2\n        /* \"#utility.yul\":6104:6108   */\n      dup2\n        /* \"#utility.yul\":6100:6120   */\n      sub\n        /* \"#utility.yul\":6095:6097   */\n      0x20\n        /* \"#utility.yul\":6084:6093   */\n      dup4\n        /* \"#utility.yul\":6080:6098   */\n      add\n        /* \"#utility.yul\":6073:6121   */\n      mstore\n        /* \"#utility.yul\":6138:6304   */\n      tag_193\n        /* \"#utility.yul\":6299:6303   */\n      dup2\n        /* \"#utility.yul\":6290:6296   */\n      dup5\n        /* \"#utility.yul\":6138:6304   */\n      tag_124\n      jump\t// in\n    tag_193:\n        /* \"#utility.yul\":6130:6304   */\n      swap1\n      pop\n        /* \"#utility.yul\":5712:6311   */\n      swap4\n      swap3\n      pop\n      pop\n      pop\n      jump\t// out\n        /* \"#utility.yul\":6317:6435   */\n    tag_125:\n        /* \"#utility.yul\":6404:6428   */\n      tag_195\n        /* \"#utility.yul\":6422:6427   */\n      dup2\n        /* \"#utility.yul\":6404:6428   */\n      tag_111\n      jump\t// in\n    tag_195:\n        /* \"#utility.yul\":6399:6402   */\n      dup3\n        /* \"#utility.yul\":6392:6429   */\n      mstore\n        /* \"#utility.yul\":6317:6435   */\n      pop\n      pop\n      jump\t// out\n        /* \"#utility.yul\":6441:6663   */\n    tag_23:\n        /* \"#utility.yul\":6534:6538   */\n      0x00\n        /* \"#utility.yul\":6572:6574   */\n      0x20\n        /* \"#utility.yul\":6561:6570   */\n      dup3\n        /* \"#utility.yul\":6557:6575   */\n      add\n        /* \"#utility.yul\":6549:6575   */\n      swap1\n      pop\n        /* \"#utility.yul\":6585:6656   */\n      tag_197\n        /* \"#utility.yul\":6653:6654   */\n      0x00\n        /* \"#utility.yul\":6642:6651   */\n      dup4\n        /* \"#utility.yul\":6638:6655   */\n      add\n        /* \"#utility.yul\":6629:6635   */\n      dup5\n        /* \"#utility.yul\":6585:6656   */\n      tag_125\n      jump\t// in\n    tag_197:\n        /* \"#utility.yul\":6441:6663   */\n      swap3\n      swap2\n      pop\n      pop\n      jump\t// out\n        /* \"#utility.yul\":6669:6998   */\n    tag_26:\n        /* \"#utility.yul\":6728:6734   */\n      0x00\n        /* \"#utility.yul\":6777:6779   */\n      0x20\n        /* \"#utility.yul\":6765:6774   */\n      dup3\n        /* \"#utility.yul\":6756:6763   */\n      dup5\n        /* \"#utility.yul\":6752:6775   */\n      sub\n        /* \"#utility.yul\":6748:6780   */\n      slt\n        /* \"#utility.yul\":6745:6864   */\n      iszero\n      tag_199\n      jumpi\n        /* \"#utility.yul\":6783:6862   */\n      tag_200\n      tag_108\n      jump\t// in\n    tag_200:\n        /* \"#utility.yul\":6745:6864   */\n    tag_199:\n        /* \"#utility.yul\":6903:6904   */\n      0x00\n        /* \"#utility.yul\":6928:6981   */\n      tag_201\n        /* \"#utility.yul\":6973:6980   */\n      dup5\n        /* \"#utility.yul\":6964:6970   */\n      dup3\n        /* \"#utility.yul\":6953:6962   */\n      dup6\n        /* \"#utility.yul\":6949:6971   */\n      add\n        /* \"#utility.yul\":6928:6981   */\n      tag_113\n      jump\t// in\n    tag_201:\n        /* \"#utility.yul\":6918:6981   */\n      swap2\n      pop\n        /* \"#utility.yul\":6874:6991   */\n      pop\n        /* \"#utility.yul\":6669:6998   */\n      swap3\n      swap2\n      pop\n      pop\n      jump\t// out\n        /* \"#utility.yul\":7004:7537   */\n    tag_29:\n        /* \"#utility.yul\":7173:7177   */\n      0x00\n        /* \"#utility.yul\":7211:7213   */\n      0x60\n        /* \"#utility.yul\":7200:7209   */\n      dup3\n        /* \"#utility.yul\":7196:7214   */\n      add\n        /* \"#utility.yul\":7188:7214   */\n      swap1\n      pop\n        /* \"#utility.yul\":7260:7269   */\n      dup2\n        /* \"#utility.yul\":7254:7258   */\n      dup2\n        /* \"#utility.yul\":7250:7270   */\n      sub\n        /* \"#utility.yul\":7246:7247   */\n      0x00\n        /* \"#utility.yul\":7235:7244   */\n      dup4\n        /* \"#utility.yul\":7231:7248   */\n      add\n        /* \"#utility.yul\":7224:7271   */\n      mstore\n        /* \"#utility.yul\":7288:7366   */\n      tag_203\n        /* \"#utility.yul\":7361:7365   */\n      dup2\n        /* \"#utility.yul\":7352:7358   */\n      dup7\n        /* \"#utility.yul\":7288:7366   */\n      tag_106\n      jump\t// in\n    tag_203:\n        /* \"#utility.yul\":7280:7366   */\n      swap1\n      pop\n        /* \"#utility.yul\":7376:7448   */\n      tag_204\n        /* \"#utility.yul\":7444:7446   */\n      0x20\n        /* \"#utility.yul\":7433:7442   */\n      dup4\n        /* \"#utility.yul\":7429:7447   */\n      add\n        /* \"#utility.yul\":7420:7426   */\n      dup6\n        /* \"#utility.yul\":7376:7448   */\n      tag_115\n      jump\t// in\n    tag_204:\n        /* \"#utility.yul\":7458:7530   */\n      tag_205\n        /* \"#utility.yul\":7526:7528   */\n      0x40\n        /* \"#utility.yul\":7515:7524   */\n      dup4\n        /* \"#utility.yul\":7511:7529   */\n      add\n        /* \"#utility.yul\":7502:7508   */\n      dup5\n        /* \"#utility.yul\":7458:7530   */\n      tag_115\n      jump\t// in\n    tag_205:\n        /* \"#utility.yul\":7004:7537   */\n      swap5\n      swap4\n      pop\n      pop\n      pop\n      pop\n      jump\t// out\n        /* \"#utility.yul\":7543:7723   */\n    tag_126:\n        /* \"#utility.yul\":7591:7668   */\n      0x4e487b7100000000000000000000000000000000000000000000000000000000\n        /* \"#utility.yul\":7588:7589   */\n      0x00\n        /* \"#utility.yul\":7581:7669   */\n      mstore\n        /* \"#utility.yul\":7688:7692   */\n      0x22\n        /* \"#utility.yul\":7685:7686   */\n      0x04\n        /* \"#utility.yul\":7678:7693   */\n      mstore\n        /* \"#utility.yul\":7712:7716   */\n      0x24\n        /* \"#utility.yul\":7709:7710   */\n      0x00\n        /* \"#utility.yul\":7702:7717   */\n      revert\n        /* \"#utility.yul\":7729:8049   */\n    tag_31:\n        /* \"#utility.yul\":7773:7779   */\n      0x00\n        /* \"#utility.yul\":7810:7811   */\n      0x02\n        /* \"#utility.yul\":7804:7808   */\n      dup3\n        /* \"#utility.yul\":7800:7812   */\n      div\n        /* \"#utility.yul\":7790:7812   */\n      swap1\n      pop\n        /* \"#utility.yul\":7857:7858   */\n      0x01\n        /* \"#utility.yul\":7851:7855   */\n      dup3\n        /* \"#utility.yul\":7847:7859   */\n      and\n        /* \"#utility.yul\":7878:7896   */\n      dup1\n        /* \"#utility.yul\":7868:7949   */\n      tag_208\n      jumpi\n        /* \"#utility.yul\":7934:7938   */\n      0x7f\n        /* \"#utility.yul\":7926:7932   */\n      dup3\n        /* \"#utility.yul\":7922:7939   */\n      and\n        /* \"#utility.yul\":7912:7939   */\n      swap2\n      pop\n        /* \"#utility.yul\":7868:7949   */\n    tag_208:\n        /* \"#utility.yul\":7996:7998   */\n      0x20\n        /* \"#utility.yul\":7988:7994   */\n      dup3\n        /* \"#utility.yul\":7985:7999   */\n      lt\n        /* \"#utility.yul\":7965:7983   */\n      dup2\n        /* \"#utility.yul\":7962:8000   */\n      sub\n        /* \"#utility.yul\":7959:8043   */\n      tag_209\n      jumpi\n        /* \"#utility.yul\":8015:8033   */\n      tag_210\n      tag_126\n      jump\t// in\n    tag_210:\n        /* \"#utility.yul\":7959:8043   */\n    tag_209:\n        /* \"#utility.yul\":7780:8049   */\n      pop\n        /* \"#utility.yul\":7729:8049   */\n      swap2\n      swap1\n      pop\n      jump\t// out\n        /* \"#utility.yul\":8055:8212   */\n    tag_127:\n        /* \"#utility.yul\":8195:8204   */\n      0x4f776e61626c6500000000000000000000000000000000000000000000000000\n        /* \"#utility.yul\":8191:8192   */\n      0x00\n        /* \"#utility.yul\":8183:8189   */\n      dup3\n        /* \"#utility.yul\":8179:8193   */\n      add\n        /* \"#utility.yul\":8172:8205   */\n      mstore\n        /* \"#utility.yul\":8055:8212   */\n      pop\n      jump\t// out\n        /* \"#utility.yul\":8218:8583   */\n    tag_128:\n        /* \"#utility.yul\":8360:8363   */\n      0x00\n        /* \"#utility.yul\":8381:8447   */\n      tag_213\n        /* \"#utility.yul\":8445:8446   */\n      0x07\n        /* \"#utility.yul\":8440:8443   */\n      dup4\n        /* \"#utility.yul\":8381:8447   */\n      tag_103\n      jump\t// in\n    tag_213:\n        /* \"#utility.yul\":8374:8447   */\n      swap2\n      pop\n        /* \"#utility.yul\":8456:8549   */\n      tag_214\n        /* \"#utility.yul\":8545:8548   */\n      dup3\n        /* \"#utility.yul\":8456:8549   */\n      tag_127\n      jump\t// in\n    tag_214:\n        /* \"#utility.yul\":8574:8576   */\n      0x20\n        /* \"#utility.yul\":8569:8572   */\n      dup3\n        /* \"#utility.yul\":8565:8577   */\n      add\n        /* \"#utility.yul\":8558:8577   */\n      swap1\n      pop\n        /* \"#utility.yul\":8218:8583   */\n      swap2\n      swap1\n      pop\n      jump\t// out\n        /* \"#utility.yul\":8589:9008   */\n    tag_39:\n        /* \"#utility.yul\":8755:8759   */\n      0x00\n        /* \"#utility.yul\":8793:8795   */\n      0x20\n        /* \"#utility.yul\":8782:8791   */\n      dup3\n        /* \"#utility.yul\":8778:8796   */\n      add\n        /* \"#utility.yul\":8770:8796   */\n      swap1\n      pop\n        /* \"#utility.yul\":8842:8851   */\n      dup2\n        /* \"#utility.yul\":8836:8840   */\n      dup2\n        /* \"#utility.yul\":8832:8852   */\n      sub\n        /* \"#utility.yul\":8828:8829   */\n      0x00\n        /* \"#utility.yul\":8817:8826   */\n      dup4\n        /* \"#utility.yul\":8813:8830   */\n      add\n        /* \"#utility.yul\":8806:8853   */\n      mstore\n        /* \"#utility.yul\":8870:9001   */\n      tag_216\n        /* \"#utility.yul\":8996:9000   */\n      dup2\n        /* \"#utility.yul\":8870:9001   */\n      tag_128\n      jump\t// in\n    tag_216:\n        /* \"#utility.yul\":8862:9001   */\n      swap1\n      pop\n        /* \"#utility.yul\":8589:9008   */\n      swap2\n      swap1\n      pop\n      jump\t// out\n        /* \"#utility.yul\":9014:9194   */\n    tag_44:\n        /* \"#utility.yul\":9062:9139   */\n      0x4e487b7100000000000000000000000000000000000000000000000000000000\n        /* \"#utility.yul\":9059:9060   */\n      0x00\n        /* \"#utility.yul\":9052:9140   */\n      mstore\n        /* \"#utility.yul\":9159:9163   */\n      0x41\n        /* \"#utility.yul\":9156:9157   */\n      0x04\n        /* \"#utility.yul\":9149:9164   */\n      mstore\n        /* \"#utility.yul\":9183:9187   */\n      0x24\n        /* \"#utility.yul\":9180:9181   */\n      0x00\n        /* \"#utility.yul\":9173:9188   */\n      revert\n        /* \"#utility.yul\":9200:9289   */\n    tag_129:\n        /* \"#utility.yul\":9236:9243   */\n      0x00\n        /* \"#utility.yul\":9276:9282   */\n      0xffff\n        /* \"#utility.yul\":9269:9274   */\n      dup3\n        /* \"#utility.yul\":9265:9283   */\n      and\n        /* \"#utility.yul\":9254:9283   */\n      swap1\n      pop\n        /* \"#utility.yul\":9200:9289   */\n      swap2\n      swap1\n      pop\n      jump\t// out\n        /* \"#utility.yul\":9295:9355   */\n    tag_130:\n        /* \"#utility.yul\":9323:9326   */\n      0x00\n        /* \"#utility.yul\":9344:9349   */\n      dup2\n        /* \"#utility.yul\":9337:9349   */\n      swap1\n      pop\n        /* \"#utility.yul\":9295:9355   */\n      swap2\n      swap1\n      pop\n      jump\t// out\n        /* \"#utility.yul\":9361:9501   */\n    tag_131:\n        /* \"#utility.yul\":9410:9419   */\n      0x00\n        /* \"#utility.yul\":9443:9495   */\n      tag_221\n        /* \"#utility.yul\":9461:9494   */\n      tag_222\n        /* \"#utility.yul\":9470:9493   */\n      tag_223\n        /* \"#utility.yul\":9487:9492   */\n      dup5\n        /* \"#utility.yul\":9470:9493   */\n      tag_129\n      jump\t// in\n    tag_223:\n        /* \"#utility.yul\":9461:9494   */\n      tag_130\n      jump\t// in\n    tag_222:\n        /* \"#utility.yul\":9443:9495   */\n      tag_114\n      jump\t// in\n    tag_221:\n        /* \"#utility.yul\":9430:9495   */\n      swap1\n      pop\n        /* \"#utility.yul\":9361:9501   */\n      swap2\n      swap1\n      pop\n      jump\t// out\n        /* \"#utility.yul\":9507:9636   */\n    tag_132:\n        /* \"#utility.yul\":9593:9629   */\n      tag_225\n        /* \"#utility.yul\":9623:9628   */\n      dup2\n        /* \"#utility.yul\":9593:9629   */\n      tag_131\n      jump\t// in\n    tag_225:\n        /* \"#utility.yul\":9588:9591   */\n      dup3\n        /* \"#utility.yul\":9581:9630   */\n      mstore\n        /* \"#utility.yul\":9507:9636   */\n      pop\n      pop\n      jump\t// out\n        /* \"#utility.yul\":9642:9862   */\n    tag_52:\n        /* \"#utility.yul\":9734:9738   */\n      0x00\n        /* \"#utility.yul\":9772:9774   */\n      0x20\n        /* \"#utility.yul\":9761:9770   */\n      dup3\n        /* \"#utility.yul\":9757:9775   */\n      add\n        /* \"#utility.yul\":9749:9775   */\n      swap1\n      pop\n        /* \"#utility.yul\":9785:9855   */\n      tag_227\n        /* \"#utility.yul\":9852:9853   */\n      0x00\n        /* \"#utility.yul\":9841:9850   */\n      dup4\n        /* \"#utility.yul\":9837:9854   */\n      add\n        /* \"#utility.yul\":9828:9834   */\n      dup5\n        /* \"#utility.yul\":9785:9855   */\n      tag_132\n      jump\t// in\n    tag_227:\n        /* \"#utility.yul\":9642:9862   */\n      swap3\n      swap2\n      pop\n      pop\n      jump\t// out\n        /* \"#utility.yul\":9868:10011   */\n    tag_133:\n        /* \"#utility.yul\":9925:9930   */\n      0x00\n        /* \"#utility.yul\":9956:9962   */\n      dup2\n        /* \"#utility.yul\":9950:9963   */\n      mload\n        /* \"#utility.yul\":9941:9963   */\n      swap1\n      pop\n        /* \"#utility.yul\":9972:10005   */\n      tag_229\n        /* \"#utility.yul\":9999:10004   */\n      dup2\n        /* \"#utility.yul\":9972:10005   */\n      tag_112\n      jump\t// in\n    tag_229:\n        /* \"#utility.yul\":9868:10011   */\n      swap3\n      swap2\n      pop\n      pop\n      jump\t// out\n        /* \"#utility.yul\":10017:10368   */\n    tag_55:\n        /* \"#utility.yul\":10087:10093   */\n      0x00\n        /* \"#utility.yul\":10136:10138   */\n      0x20\n        /* \"#utility.yul\":10124:10133   */\n      dup3\n        /* \"#utility.yul\":10115:10122   */\n      dup5\n        /* \"#utility.yul\":10111:10134   */\n      sub\n        /* \"#utility.yul\":10107:10139   */\n      slt\n        /* \"#utility.yul\":10104:10223   */\n      iszero\n      tag_231\n      jumpi\n        /* \"#utility.yul\":10142:10221   */\n      tag_232\n      tag_108\n      jump\t// in\n    tag_232:\n        /* \"#utility.yul\":10104:10223   */\n    tag_231:\n        /* \"#utility.yul\":10262:10263   */\n      0x00\n        /* \"#utility.yul\":10287:10351   */\n      tag_233\n        /* \"#utility.yul\":10343:10350   */\n      dup5\n        /* \"#utility.yul\":10334:10340   */\n      dup3\n        /* \"#utility.yul\":10323:10332   */\n      dup6\n        /* \"#utility.yul\":10319:10341   */\n      add\n        /* \"#utility.yul\":10287:10351   */\n      tag_133\n      jump\t// in\n    tag_233:\n        /* \"#utility.yul\":10277:10351   */\n      swap2\n      pop\n        /* \"#utility.yul\":10233:10361   */\n      pop\n        /* \"#utility.yul\":10017:10368   */\n      swap3\n      swap2\n      pop\n      pop\n      jump\t// out\n        /* \"#utility.yul\":10374:10496   */\n    tag_134:\n        /* \"#utility.yul\":10447:10471   */\n      tag_235\n        /* \"#utility.yul\":10465:10470   */\n      dup2\n        /* \"#utility.yul\":10447:10471   */\n      tag_114\n      jump\t// in\n    tag_235:\n        /* \"#utility.yul\":10440:10445   */\n      dup2\n        /* \"#utility.yul\":10437:10472   */\n      eq\n        /* \"#utility.yul\":10427:10490   */\n      tag_236\n      jumpi\n        /* \"#utility.yul\":10486:10487   */\n      0x00\n        /* \"#utility.yul\":10483:10484   */\n      dup1\n        /* \"#utility.yul\":10476:10488   */\n      revert\n        /* \"#utility.yul\":10427:10490   */\n    tag_236:\n        /* \"#utility.yul\":10374:10496   */\n      pop\n      jump\t// out\n        /* \"#utility.yul\":10502:10645   */\n    tag_135:\n        /* \"#utility.yul\":10559:10564   */\n      0x00\n        /* \"#utility.yul\":10590:10596   */\n      dup2\n        /* \"#utility.yul\":10584:10597   */\n      mload\n        /* \"#utility.yul\":10575:10597   */\n      swap1\n      pop\n        /* \"#utility.yul\":10606:10639   */\n      tag_238\n        /* \"#utility.yul\":10633:10638   */\n      dup2\n        /* \"#utility.yul\":10606:10639   */\n      tag_134\n      jump\t// in\n    tag_238:\n        /* \"#utility.yul\":10502:10645   */\n      swap3\n      swap2\n      pop\n      pop\n      jump\t// out\n        /* \"#utility.yul\":10651:11002   */\n    tag_65:\n        /* \"#utility.yul\":10721:10727   */\n      0x00\n        /* \"#utility.yul\":10770:10772   */\n      0x20\n        /* \"#utility.yul\":10758:10767   */\n      dup3\n        /* \"#utility.yul\":10749:10756   */\n      dup5\n        /* \"#utility.yul\":10745:10768   */\n      sub\n        /* \"#utility.yul\":10741:10773   */\n      slt\n        /* \"#utility.yul\":10738:10857   */\n      iszero\n      tag_240\n      jumpi\n        /* \"#utility.yul\":10776:10855   */\n      tag_241\n      tag_108\n      jump\t// in\n    tag_241:\n        /* \"#utility.yul\":10738:10857   */\n    tag_240:\n        /* \"#utility.yul\":10896:10897   */\n      0x00\n        /* \"#utility.yul\":10921:10985   */\n      tag_242\n        /* \"#utility.yul\":10977:10984   */\n      dup5\n        /* \"#utility.yul\":10968:10974   */\n      dup3\n        /* \"#utility.yul\":10957:10966   */\n      dup6\n        /* \"#utility.yul\":10953:10975   */\n      add\n        /* \"#utility.yul\":10921:10985   */\n      tag_135\n      jump\t// in\n    tag_242:\n        /* \"#utility.yul\":10911:10985   */\n      swap2\n      pop\n        /* \"#utility.yul\":10867:10995   */\n      pop\n        /* \"#utility.yul\":10651:11002   */\n      swap3\n      swap2\n      pop\n      pop\n      jump\t// out\n        /* \"#utility.yul\":11008:11188   */\n    tag_68:\n        /* \"#utility.yul\":11056:11133   */\n      0x4e487b7100000000000000000000000000000000000000000000000000000000\n        /* \"#utility.yul\":11053:11054   */\n      0x00\n        /* \"#utility.yul\":11046:11134   */\n      mstore\n        /* \"#utility.yul\":11153:11157   */\n      0x32\n        /* \"#utility.yul\":11150:11151   */\n      0x04\n        /* \"#utility.yul\":11143:11158   */\n      mstore\n        /* \"#utility.yul\":11177:11181   */\n      0x24\n        /* \"#utility.yul\":11174:11175   */\n      0x00\n        /* \"#utility.yul\":11167:11182   */\n      revert\n        /* \"#utility.yul\":11194:11374   */\n    tag_136:\n        /* \"#utility.yul\":11242:11319   */\n      0x4e487b7100000000000000000000000000000000000000000000000000000000\n        /* \"#utility.yul\":11239:11240   */\n      0x00\n        /* \"#utility.yul\":11232:11320   */\n      mstore\n        /* \"#utility.yul\":11339:11343   */\n      0x11\n        /* \"#utility.yul\":11336:11337   */\n      0x04\n        /* \"#utility.yul\":11329:11344   */\n      mstore\n        /* \"#utility.yul\":11363:11367   */\n      0x24\n        /* \"#utility.yul\":11360:11361   */\n      0x00\n        /* \"#utility.yul\":11353:11368   */\n      revert\n        /* \"#utility.yul\":11380:11551   */\n    tag_70:\n        /* \"#utility.yul\":11418:11421   */\n      0x00\n        /* \"#utility.yul\":11441:11464   */\n      tag_246\n        /* \"#utility.yul\":11458:11463   */\n      dup3\n        /* \"#utility.yul\":11441:11464   */\n      tag_129\n      jump\t// in\n    tag_246:\n        /* \"#utility.yul\":11432:11464   */\n      swap2\n      pop\n        /* \"#utility.yul\":11486:11492   */\n      0xffff\n        /* \"#utility.yul\":11479:11484   */\n      dup3\n        /* \"#utility.yul\":11476:11493   */\n      sub\n        /* \"#utility.yul\":11473:11516   */\n      tag_247\n      jumpi\n        /* \"#utility.yul\":11496:11514   */\n      tag_248\n      tag_136\n      jump\t// in\n    tag_248:\n        /* \"#utility.yul\":11473:11516   */\n    tag_247:\n        /* \"#utility.yul\":11543:11544   */\n      0x01\n        /* \"#utility.yul\":11536:11541   */\n      dup3\n        /* \"#utility.yul\":11532:11545   */\n      add\n        /* \"#utility.yul\":11525:11545   */\n      swap1\n      pop\n        /* \"#utility.yul\":11380:11551   */\n      swap2\n      swap1\n      pop\n      jump\t// out\n        /* \"#utility.yul\":11557:11748   */\n    tag_93:\n        /* \"#utility.yul\":11597:11600   */\n      0x00\n        /* \"#utility.yul\":11616:11636   */\n      tag_250\n        /* \"#utility.yul\":11634:11635   */\n      dup3\n        /* \"#utility.yul\":11616:11636   */\n      tag_114\n      jump\t// in\n    tag_250:\n        /* \"#utility.yul\":11611:11636   */\n      swap2\n      pop\n        /* \"#utility.yul\":11650:11670   */\n      tag_251\n        /* \"#utility.yul\":11668:11669   */\n      dup4\n        /* \"#utility.yul\":11650:11670   */\n      tag_114\n      jump\t// in\n    tag_251:\n        /* \"#utility.yul\":11645:11670   */\n      swap3\n      pop\n        /* \"#utility.yul\":11693:11694   */\n      dup3\n        /* \"#utility.yul\":11690:11691   */\n      dup3\n        /* \"#utility.yul\":11686:11695   */\n      add\n        /* \"#utility.yul\":11679:11695   */\n      swap1\n      pop\n        /* \"#utility.yul\":11714:11717   */\n      dup1\n        /* \"#utility.yul\":11711:11712   */\n      dup3\n        /* \"#utility.yul\":11708:11718   */\n      gt\n        /* \"#utility.yul\":11705:11741   */\n      iszero\n      tag_252\n      jumpi\n        /* \"#utility.yul\":11721:11739   */\n      tag_253\n      tag_136\n      jump\t// in\n    tag_253:\n        /* \"#utility.yul\":11705:11741   */\n    tag_252:\n        /* \"#utility.yul\":11557:11748   */\n      swap3\n      swap2\n      pop\n      pop\n      jump\t// out\n\n    auxdata: 0xa264697066735822122074a2919893d42fc327910e14bb2822469b2a9634d8976bb679a3fdbb0f83f51064736f6c634300081a0033\n}\n",
				"bytecode": {
					"linkReferences": {},
					"object": "6080604052736797b6244fa75f2e78cdffc3a4eb169332b730cc60015f6101000a81548173ffffffffffffffffffffffffffffffffffffffff021916908373ffffffffffffffffffffffffffffffffffffffff1602179055507318f8d9193af3bbe7f79100dafc0aa40421f8036e60025f6101000a81548173ffffffffffffffffffffffffffffffffffffffff021916908373ffffffffffffffffffffffffffffffffffffffff160217905550734342f4bc5375ecaf56fdf8b5294de5dbc0fbe88960035f6101000a81548173ffffffffffffffffffffffffffffffffffffffff021916908373ffffffffffffffffffffffffffffffffffffffff1602179055506040518060400160405280600c81526020017f4541495574696c697469657300000000000000000000000000000000000000008152506004908161014491906103cf565b50348015610150575f80fd5b50335f806101000a81548173ffffffffffffffffffffffffffffffffffffffff021916908373ffffffffffffffffffffffffffffffffffffffff16021790555061049e565b5f81519050919050565b7f4e487b71000000000000000000000000000000000000000000000000000000005f52604160045260245ffd5b7f4e487b71000000000000000000000000000000000000000000000000000000005f52602260045260245ffd5b5f600282049050600182168061021057607f821691505b602082108103610223576102226101cc565b5b50919050565b5f819050815f5260205f209050919050565b5f6020601f8301049050919050565b5f82821b905092915050565b5f600883026102857fffffffffffffffffffffffffffffffffffffffffffffffffffffffffffffffff8261024a565b61028f868361024a565b95508019841693508086168417925050509392505050565b5f819050919050565b5f819050919050565b5f6102d36102ce6102c9846102a7565b6102b0565b6102a7565b9050919050565b5f819050919050565b6102ec836102b9565b6103006102f8826102da565b848454610256565b825550505050565b5f90565b610314610308565b61031f8184846102e3565b505050565b5b81811015610342576103375f8261030c565b600181019050610325565b5050565b601f8211156103875761035881610229565b6103618461023b565b81016020851015610370578190505b61038461037c8561023b565b830182610324565b50505b505050565b5f82821c905092915050565b5f6103a75f198460080261038c565b1980831691505092915050565b5f6103bf8383610398565b9150826002028217905092915050565b6103d882610195565b67ffffffffffffffff8111156103f1576103f061019f565b5b6103fb82546101f9565b610406828285610346565b5f60209050601f831160018114610437575f8415610425578287015190505b61042f85826103b4565b865550610496565b601f19841661044586610229565b5f5b8281101561046c57848901518255600182019150602085019450602081019050610447565b868310156104895784890151610485601f891682610398565b8355505b6001600288020188555050505b505050505050565b610ead806104ab5f395ff3fe608060405234801561000f575f80fd5b5060043610610055575f3560e01c806306fdde03146100595780632071088a1461007757806343352d61146100935780638da5cb5b146100b2578063b45aae52146100d0575b5f80fd5b610061610102565b60405161006e9190610946565b60405180910390f35b610091600480360381019061008c91906109c4565b61018e565b005b61009b6102e0565b6040516100a9929190610b1f565b60405180910390f35b6100ba6105b2565b6040516100c79190610b5c565b60405180910390f35b6100ea60048036038101906100e59190610b75565b6105d5565b6040516100f993929190610ba0565b60405180910390f35b6004805461010f90610c09565b80601f016020809104026020016040519081016040528092919081815260200182805461013b90610c09565b80156101865780601f1061015d57610100808354040283529160200191610186565b820191905f5260205f20905b81548152906001019060200180831161016957829003601f168201915b505050505081565b5f8054906101000a900473ffffffffffffffffffffffffffffffffffffffff1673ffffffffffffffffffffffffffffffffffffffff163373ffffffffffffffffffffffffffffffffffffffff161461021b576040517f08c379a000000000000000000000000000000000000000000000000000000000815260040161021290610c83565b60405180910390fd5b8260015f6101000a81548173ffffffffffffffffffffffffffffffffffffffff021916908373ffffffffffffffffffffffffffffffffffffffff1602179055508060035f6101000a81548173ffffffffffffffffffffffffffffffffffffffff021916908373ffffffffffffffffffffffffffffffffffffffff1602179055508160025f6101000a81548173ffffffffffffffffffffffffffffffffffffffff021916908373ffffffffffffffffffffffffffffffffffffffff160217905550505050565b5f60605f806107d090505f8161ffff1667ffffffffffffffff81111561030957610308610ca1565b5b60405190808252806020026020018201604052801561034257816020015b61032f6108a8565b8152602001906001900390816103275790505b5090505b8161ffff168361ffff1610156104ed5760025f9054906101000a900473ffffffffffffffffffffffffffffffffffffffff1673ffffffffffffffffffffffffffffffffffffffff1663fd5e6dd1846040518263ffffffff1660e01b81526004016103b09190610d14565b602060405180830381865afa9250505080156103ea57506040513d601f19601f820116820180604052508101906103e79190610d41565b60015b156104ed575f60035f9054906101000a900473ffffffffffffffffffffffffffffffffffffffff1673ffffffffffffffffffffffffffffffffffffffff166370a08231836040518263ffffffff1660e01b815260040161044a9190610b5c565b602060405180830381865afa158015610465573d5f803e3d5ffd5b505050506040513d601f19601f820116820180604052508101906104899190610d96565b905060405180604001604052808373ffffffffffffffffffffffffffffffffffffffff16815260200182815250838661ffff16815181106104cd576104cc610dc1565b5b602002602001018190525084806104e390610e1b565b9550505050610346565b5f8361ffff1667ffffffffffffffff81111561050c5761050b610ca1565b5b60405190808252806020026020018201604052801561054557816020015b6105326108a8565b81526020019060019003908161052a5790505b5090505f5b8461ffff1681101561059c5782818151811061056957610568610dc1565b5b602002602001015182828151811061058457610583610dc1565b5b6020026020010181905250808060010191505061054a565b5083818161ffff16915095509550505050509091565b5f8054906101000a900473ffffffffffffffffffffffffffffffffffffffff1681565b60605f805f60015f9054906101000a900473ffffffffffffffffffffffffffffffffffffffff1673ffffffffffffffffffffffffffffffffffffffff166370a08231866040518263ffffffff1660e01b81526004016106349190610b5c565b602060405180830381865afa15801561064f573d5f803e3d5ffd5b505050506040513d601f19601f820116820180604052508101906106739190610d96565b90505f60035f9054906101000a900473ffffffffffffffffffffffffffffffffffffffff1673ffffffffffffffffffffffffffffffffffffffff166370a08231876040518263ffffffff1660e01b81526004016106d09190610b5c565b602060405180830381865afa1580156106eb573d5f803e3d5ffd5b505050506040513d601f19601f8201168201806040525081019061070f9190610d96565b90505f818361071e9190610e44565b9050606069054b40b1f852bda000008210610770576040518060400160405280600881526020017f706c6174696e756d0000000000000000000000000000000000000000000000008152509050610894565b69010f0cf064dd5920000082106107be576040518060400160405280600481526020017f676f6c64000000000000000000000000000000000000000000000000000000008152509050610893565b68878678326eac900000821061080b576040518060400160405280600681526020017f73696c76657200000000000000000000000000000000000000000000000000008152509050610892565b6843c33c1937564800008210610858576040518060400160405280600681526020017f62726f6e7a6500000000000000000000000000000000000000000000000000008152509050610891565b6040518060400160405280600481526020017f6e6f6e650000000000000000000000000000000000000000000000000000000081525090505b5b5b5b808483965096509650505050509193909250565b60405180604001604052805f73ffffffffffffffffffffffffffffffffffffffff1681526020015f81525090565b5f81519050919050565b5f82825260208201905092915050565b8281835e5f83830152505050565b5f601f19601f8301169050919050565b5f610918826108d6565b61092281856108e0565b93506109328185602086016108f0565b61093b816108fe565b840191505092915050565b5f6020820190508181035f83015261095e818461090e565b905092915050565b5f80fd5b5f73ffffffffffffffffffffffffffffffffffffffff82169050919050565b5f6109938261096a565b9050919050565b6109a381610989565b81146109ad575f80fd5b50565b5f813590506109be8161099a565b92915050565b5f805f606084860312156109db576109da610966565b5b5f6109e8868287016109b0565b93505060206109f9868287016109b0565b9250506040610a0a868287016109b0565b9150509250925092565b5f819050919050565b610a2681610a14565b82525050565b5f81519050919050565b5f82825260208201905092915050565b5f819050602082019050919050565b610a5e81610989565b82525050565b610a6d81610a14565b82525050565b604082015f820151610a875f850182610a55565b506020820151610a9a6020850182610a64565b50505050565b5f610aab8383610a73565b60408301905092915050565b5f602082019050919050565b5f610acd82610a2c565b610ad78185610a36565b9350610ae283610a46565b805f5b83811015610b12578151610af98882610aa0565b9750610b0483610ab7565b925050600181019050610ae5565b5085935050505092915050565b5f604082019050610b325f830185610a1d565b8181036020830152610b448184610ac3565b90509392505050565b610b5681610989565b82525050565b5f602082019050610b6f5f830184610b4d565b92915050565b5f60208284031215610b8a57610b89610966565b5b5f610b97848285016109b0565b91505092915050565b5f6060820190508181035f830152610bb8818661090e565b9050610bc76020830185610a1d565b610bd46040830184610a1d565b949350505050565b7f4e487b71000000000000000000000000000000000000000000000000000000005f52602260045260245ffd5b5f6002820490506001821680610c2057607f821691505b602082108103610c3357610c32610bdc565b5b50919050565b7f4f776e61626c65000000000000000000000000000000000000000000000000005f82015250565b5f610c6d6007836108e0565b9150610c7882610c39565b602082019050919050565b5f6020820190508181035f830152610c9a81610c61565b9050919050565b7f4e487b71000000000000000000000000000000000000000000000000000000005f52604160045260245ffd5b5f61ffff82169050919050565b5f819050919050565b5f610cfe610cf9610cf484610cce565b610cdb565b610a14565b9050919050565b610d0e81610ce4565b82525050565b5f602082019050610d275f830184610d05565b92915050565b5f81519050610d3b8161099a565b92915050565b5f60208284031215610d5657610d55610966565b5b5f610d6384828501610d2d565b91505092915050565b610d7581610a14565b8114610d7f575f80fd5b50565b5f81519050610d9081610d6c565b92915050565b5f60208284031215610dab57610daa610966565b5b5f610db884828501610d82565b91505092915050565b7f4e487b71000000000000000000000000000000000000000000000000000000005f52603260045260245ffd5b7f4e487b71000000000000000000000000000000000000000000000000000000005f52601160045260245ffd5b5f610e2582610cce565b915061ffff8203610e3957610e38610dee565b5b600182019050919050565b5f610e4e82610a14565b9150610e5983610a14565b9250828201905080821115610e7157610e70610dee565b5b9291505056fea264697066735822122074a2919893d42fc327910e14bb2822469b2a9634d8976bb679a3fdbb0f83f51064736f6c634300081a0033",
					"opcodes": "PUSH1 0x80 PUSH1 0x40 MSTORE PUSH20 0x6797B6244FA75F2E78CDFFC3A4EB169332B730CC PUSH1 0x1 PUSH0 PUSH2 0x100 EXP DUP2 SLOAD DUP2 PUSH20 0xFFFFFFFFFFFFFFFFFFFFFFFFFFFFFFFFFFFFFFFF MUL NOT AND SWAP1 DUP4 PUSH20 0xFFFFFFFFFFFFFFFFFFFFFFFFFFFFFFFFFFFFFFFF AND MUL OR SWAP1 SSTORE POP PUSH20 0x18F8D9193AF3BBE7F79100DAFC0AA40421F8036E PUSH1 0x2 PUSH0 PUSH2 0x100 EXP DUP2 SLOAD DUP2 PUSH20 0xFFFFFFFFFFFFFFFFFFFFFFFFFFFFFFFFFFFFFFFF MUL NOT AND SWAP1 DUP4 PUSH20 0xFFFFFFFFFFFFFFFFFFFFFFFFFFFFFFFFFFFFFFFF AND MUL OR SWAP1 SSTORE POP PUSH20 0x4342F4BC5375ECAF56FDF8B5294DE5DBC0FBE889 PUSH1 0x3 PUSH0 PUSH2 0x100 EXP DUP2 SLOAD DUP2 PUSH20 0xFFFFFFFFFFFFFFFFFFFFFFFFFFFFFFFFFFFFFFFF MUL NOT AND SWAP1 DUP4 PUSH20 0xFFFFFFFFFFFFFFFFFFFFFFFFFFFFFFFFFFFFFFFF AND MUL OR SWAP1 SSTORE POP PUSH1 0x40 MLOAD DUP1 PUSH1 0x40 ADD PUSH1 0x40 MSTORE DUP1 PUSH1 0xC DUP2 MSTORE PUSH1 0x20 ADD PUSH32 0x4541495574696C69746965730000000000000000000000000000000000000000 DUP2 MSTORE POP PUSH1 0x4 SWAP1 DUP2 PUSH2 0x144 SWAP2 SWAP1 PUSH2 0x3CF JUMP JUMPDEST POP CALLVALUE DUP1 ISZERO PUSH2 0x150 JUMPI PUSH0 DUP1 REVERT JUMPDEST POP CALLER PUSH0 DUP1 PUSH2 0x100 EXP DUP2 SLOAD DUP2 PUSH20 0xFFFFFFFFFFFFFFFFFFFFFFFFFFFFFFFFFFFFFFFF MUL NOT AND SWAP1 DUP4 PUSH20 0xFFFFFFFFFFFFFFFFFFFFFFFFFFFFFFFFFFFFFFFF AND MUL OR SWAP1 SSTORE POP PUSH2 0x49E JUMP JUMPDEST PUSH0 DUP2 MLOAD SWAP1 POP SWAP2 SWAP1 POP JUMP JUMPDEST PUSH32 0x4E487B7100000000000000000000000000000000000000000000000000000000 PUSH0 MSTORE PUSH1 0x41 PUSH1 0x4 MSTORE PUSH1 0x24 PUSH0 REVERT JUMPDEST PUSH32 0x4E487B7100000000000000000000000000000000000000000000000000000000 PUSH0 MSTORE PUSH1 0x22 PUSH1 0x4 MSTORE PUSH1 0x24 PUSH0 REVERT JUMPDEST PUSH0 PUSH1 0x2 DUP3 DIV SWAP1 POP PUSH1 0x1 DUP3 AND DUP1 PUSH2 0x210 JUMPI PUSH1 0x7F DUP3 AND SWAP2 POP JUMPDEST PUSH1 0x20 DUP3 LT DUP2 SUB PUSH2 0x223 JUMPI PUSH2 0x222 PUSH2 0x1CC JUMP JUMPDEST JUMPDEST POP SWAP2 SWAP1 POP JUMP JUMPDEST PUSH0 DUP2 SWAP1 POP DUP2 PUSH0 MSTORE PUSH1 0x20 PUSH0 KECCAK256 SWAP1 POP SWAP2 SWAP1 POP JUMP JUMPDEST PUSH0 PUSH1 0x20 PUSH1 0x1F DUP4 ADD DIV SWAP1 POP SWAP2 SWAP1 POP JUMP JUMPDEST PUSH0 DUP3 DUP3 SHL SWAP1 POP SWAP3 SWAP2 POP POP JUMP JUMPDEST PUSH0 PUSH1 0x8 DUP4 MUL PUSH2 0x285 PUSH32 0xFFFFFFFFFFFFFFFFFFFFFFFFFFFFFFFFFFFFFFFFFFFFFFFFFFFFFFFFFFFFFFFF DUP3 PUSH2 0x24A JUMP JUMPDEST PUSH2 0x28F DUP7 DUP4 PUSH2 0x24A JUMP JUMPDEST SWAP6 POP DUP1 NOT DUP5 AND SWAP4 POP DUP1 DUP7 AND DUP5 OR SWAP3 POP POP POP SWAP4 SWAP3 POP POP POP JUMP JUMPDEST PUSH0 DUP2 SWAP1 POP SWAP2 SWAP1 POP JUMP JUMPDEST PUSH0 DUP2 SWAP1 POP SWAP2 SWAP1 POP JUMP JUMPDEST PUSH0 PUSH2 0x2D3 PUSH2 0x2CE PUSH2 0x2C9 DUP5 PUSH2 0x2A7 JUMP JUMPDEST PUSH2 0x2B0 JUMP JUMPDEST PUSH2 0x2A7 JUMP JUMPDEST SWAP1 POP SWAP2 SWAP1 POP JUMP JUMPDEST PUSH0 DUP2 SWAP1 POP SWAP2 SWAP1 POP JUMP JUMPDEST PUSH2 0x2EC DUP4 PUSH2 0x2B9 JUMP JUMPDEST PUSH2 0x300 PUSH2 0x2F8 DUP3 PUSH2 0x2DA JUMP JUMPDEST DUP5 DUP5 SLOAD PUSH2 0x256 JUMP JUMPDEST DUP3 SSTORE POP POP POP POP JUMP JUMPDEST PUSH0 SWAP1 JUMP JUMPDEST PUSH2 0x314 PUSH2 0x308 JUMP JUMPDEST PUSH2 0x31F DUP2 DUP5 DUP5 PUSH2 0x2E3 JUMP JUMPDEST POP POP POP JUMP JUMPDEST JUMPDEST DUP2 DUP2 LT ISZERO PUSH2 0x342 JUMPI PUSH2 0x337 PUSH0 DUP3 PUSH2 0x30C JUMP JUMPDEST PUSH1 0x1 DUP2 ADD SWAP1 POP PUSH2 0x325 JUMP JUMPDEST POP POP JUMP JUMPDEST PUSH1 0x1F DUP3 GT ISZERO PUSH2 0x387 JUMPI PUSH2 0x358 DUP2 PUSH2 0x229 JUMP JUMPDEST PUSH2 0x361 DUP5 PUSH2 0x23B JUMP JUMPDEST DUP2 ADD PUSH1 0x20 DUP6 LT ISZERO PUSH2 0x370 JUMPI DUP2 SWAP1 POP JUMPDEST PUSH2 0x384 PUSH2 0x37C DUP6 PUSH2 0x23B JUMP JUMPDEST DUP4 ADD DUP3 PUSH2 0x324 JUMP JUMPDEST POP POP JUMPDEST POP POP POP JUMP JUMPDEST PUSH0 DUP3 DUP3 SHR SWAP1 POP SWAP3 SWAP2 POP POP JUMP JUMPDEST PUSH0 PUSH2 0x3A7 PUSH0 NOT DUP5 PUSH1 0x8 MUL PUSH2 0x38C JUMP JUMPDEST NOT DUP1 DUP4 AND SWAP2 POP POP SWAP3 SWAP2 POP POP JUMP JUMPDEST PUSH0 PUSH2 0x3BF DUP4 DUP4 PUSH2 0x398 JUMP JUMPDEST SWAP2 POP DUP3 PUSH1 0x2 MUL DUP3 OR SWAP1 POP SWAP3 SWAP2 POP POP JUMP JUMPDEST PUSH2 0x3D8 DUP3 PUSH2 0x195 JUMP JUMPDEST PUSH8 0xFFFFFFFFFFFFFFFF DUP2 GT ISZERO PUSH2 0x3F1 JUMPI PUSH2 0x3F0 PUSH2 0x19F JUMP JUMPDEST JUMPDEST PUSH2 0x3FB DUP3 SLOAD PUSH2 0x1F9 JUMP JUMPDEST PUSH2 0x406 DUP3 DUP3 DUP6 PUSH2 0x346 JUMP JUMPDEST PUSH0 PUSH1 0x20 SWAP1 POP PUSH1 0x1F DUP4 GT PUSH1 0x1 DUP2 EQ PUSH2 0x437 JUMPI PUSH0 DUP5 ISZERO PUSH2 0x425 JUMPI DUP3 DUP8 ADD MLOAD SWAP1 POP JUMPDEST PUSH2 0x42F DUP6 DUP3 PUSH2 0x3B4 JUMP JUMPDEST DUP7 SSTORE POP PUSH2 0x496 JUMP JUMPDEST PUSH1 0x1F NOT DUP5 AND PUSH2 0x445 DUP7 PUSH2 0x229 JUMP JUMPDEST PUSH0 JUMPDEST DUP3 DUP2 LT ISZERO PUSH2 0x46C JUMPI DUP5 DUP10 ADD MLOAD DUP3 SSTORE PUSH1 0x1 DUP3 ADD SWAP2 POP PUSH1 0x20 DUP6 ADD SWAP5 POP PUSH1 0x20 DUP2 ADD SWAP1 POP PUSH2 0x447 JUMP JUMPDEST DUP7 DUP4 LT ISZERO PUSH2 0x489 JUMPI DUP5 DUP10 ADD MLOAD PUSH2 0x485 PUSH1 0x1F DUP10 AND DUP3 PUSH2 0x398 JUMP JUMPDEST DUP4 SSTORE POP JUMPDEST PUSH1 0x1 PUSH1 0x2 DUP9 MUL ADD DUP9 SSTORE POP POP POP JUMPDEST POP POP POP POP POP POP JUMP JUMPDEST PUSH2 0xEAD DUP1 PUSH2 0x4AB PUSH0 CODECOPY PUSH0 RETURN INVALID PUSH1 0x80 PUSH1 0x40 MSTORE CALLVALUE DUP1 ISZERO PUSH2 0xF JUMPI PUSH0 DUP1 REVERT JUMPDEST POP PUSH1 0x4 CALLDATASIZE LT PUSH2 0x55 JUMPI PUSH0 CALLDATALOAD PUSH1 0xE0 SHR DUP1 PUSH4 0x6FDDE03 EQ PUSH2 0x59 JUMPI DUP1 PUSH4 0x2071088A EQ PUSH2 0x77 JUMPI DUP1 PUSH4 0x43352D61 EQ PUSH2 0x93 JUMPI DUP1 PUSH4 0x8DA5CB5B EQ PUSH2 0xB2 JUMPI DUP1 PUSH4 0xB45AAE52 EQ PUSH2 0xD0 JUMPI JUMPDEST PUSH0 DUP1 REVERT JUMPDEST PUSH2 0x61 PUSH2 0x102 JUMP JUMPDEST PUSH1 0x40 MLOAD PUSH2 0x6E SWAP2 SWAP1 PUSH2 0x946 JUMP JUMPDEST PUSH1 0x40 MLOAD DUP1 SWAP2 SUB SWAP1 RETURN JUMPDEST PUSH2 0x91 PUSH1 0x4 DUP1 CALLDATASIZE SUB DUP2 ADD SWAP1 PUSH2 0x8C SWAP2 SWAP1 PUSH2 0x9C4 JUMP JUMPDEST PUSH2 0x18E JUMP JUMPDEST STOP JUMPDEST PUSH2 0x9B PUSH2 0x2E0 JUMP JUMPDEST PUSH1 0x40 MLOAD PUSH2 0xA9 SWAP3 SWAP2 SWAP1 PUSH2 0xB1F JUMP JUMPDEST PUSH1 0x40 MLOAD DUP1 SWAP2 SUB SWAP1 RETURN JUMPDEST PUSH2 0xBA PUSH2 0x5B2 JUMP JUMPDEST PUSH1 0x40 MLOAD PUSH2 0xC7 SWAP2 SWAP1 PUSH2 0xB5C JUMP JUMPDEST PUSH1 0x40 MLOAD DUP1 SWAP2 SUB SWAP1 RETURN JUMPDEST PUSH2 0xEA PUSH1 0x4 DUP1 CALLDATASIZE SUB DUP2 ADD SWAP1 PUSH2 0xE5 SWAP2 SWAP1 PUSH2 0xB75 JUMP JUMPDEST PUSH2 0x5D5 JUMP JUMPDEST PUSH1 0x40 MLOAD PUSH2 0xF9 SWAP4 SWAP3 SWAP2 SWAP1 PUSH2 0xBA0 JUMP JUMPDEST PUSH1 0x40 MLOAD DUP1 SWAP2 SUB SWAP1 RETURN JUMPDEST PUSH1 0x4 DUP1 SLOAD PUSH2 0x10F SWAP1 PUSH2 0xC09 JUMP JUMPDEST DUP1 PUSH1 0x1F ADD PUSH1 0x20 DUP1 SWAP2 DIV MUL PUSH1 0x20 ADD PUSH1 0x40 MLOAD SWAP1 DUP2 ADD PUSH1 0x40 MSTORE DUP1 SWAP3 SWAP2 SWAP1 DUP2 DUP2 MSTORE PUSH1 0x20 ADD DUP3 DUP1 SLOAD PUSH2 0x13B SWAP1 PUSH2 0xC09 JUMP JUMPDEST DUP1 ISZERO PUSH2 0x186 JUMPI DUP1 PUSH1 0x1F LT PUSH2 0x15D JUMPI PUSH2 0x100 DUP1 DUP4 SLOAD DIV MUL DUP4 MSTORE SWAP2 PUSH1 0x20 ADD SWAP2 PUSH2 0x186 JUMP JUMPDEST DUP3 ADD SWAP2 SWAP1 PUSH0 MSTORE PUSH1 0x20 PUSH0 KECCAK256 SWAP1 JUMPDEST DUP2 SLOAD DUP2 MSTORE SWAP1 PUSH1 0x1 ADD SWAP1 PUSH1 0x20 ADD DUP1 DUP4 GT PUSH2 0x169 JUMPI DUP3 SWAP1 SUB PUSH1 0x1F AND DUP3 ADD SWAP2 JUMPDEST POP POP POP POP POP DUP2 JUMP JUMPDEST PUSH0 DUP1 SLOAD SWAP1 PUSH2 0x100 EXP SWAP1 DIV PUSH20 0xFFFFFFFFFFFFFFFFFFFFFFFFFFFFFFFFFFFFFFFF AND PUSH20 0xFFFFFFFFFFFFFFFFFFFFFFFFFFFFFFFFFFFFFFFF AND CALLER PUSH20 0xFFFFFFFFFFFFFFFFFFFFFFFFFFFFFFFFFFFFFFFF AND EQ PUSH2 0x21B JUMPI PUSH1 0x40 MLOAD PUSH32 0x8C379A000000000000000000000000000000000000000000000000000000000 DUP2 MSTORE PUSH1 0x4 ADD PUSH2 0x212 SWAP1 PUSH2 0xC83 JUMP JUMPDEST PUSH1 0x40 MLOAD DUP1 SWAP2 SUB SWAP1 REVERT JUMPDEST DUP3 PUSH1 0x1 PUSH0 PUSH2 0x100 EXP DUP2 SLOAD DUP2 PUSH20 0xFFFFFFFFFFFFFFFFFFFFFFFFFFFFFFFFFFFFFFFF MUL NOT AND SWAP1 DUP4 PUSH20 0xFFFFFFFFFFFFFFFFFFFFFFFFFFFFFFFFFFFFFFFF AND MUL OR SWAP1 SSTORE POP DUP1 PUSH1 0x3 PUSH0 PUSH2 0x100 EXP DUP2 SLOAD DUP2 PUSH20 0xFFFFFFFFFFFFFFFFFFFFFFFFFFFFFFFFFFFFFFFF MUL NOT AND SWAP1 DUP4 PUSH20 0xFFFFFFFFFFFFFFFFFFFFFFFFFFFFFFFFFFFFFFFF AND MUL OR SWAP1 SSTORE POP DUP2 PUSH1 0x2 PUSH0 PUSH2 0x100 EXP DUP2 SLOAD DUP2 PUSH20 0xFFFFFFFFFFFFFFFFFFFFFFFFFFFFFFFFFFFFFFFF MUL NOT AND SWAP1 DUP4 PUSH20 0xFFFFFFFFFFFFFFFFFFFFFFFFFFFFFFFFFFFFFFFF AND MUL OR SWAP1 SSTORE POP POP POP POP JUMP JUMPDEST PUSH0 PUSH1 0x60 PUSH0 DUP1 PUSH2 0x7D0 SWAP1 POP PUSH0 DUP2 PUSH2 0xFFFF AND PUSH8 0xFFFFFFFFFFFFFFFF DUP2 GT ISZERO PUSH2 0x309 JUMPI PUSH2 0x308 PUSH2 0xCA1 JUMP JUMPDEST JUMPDEST PUSH1 0x40 MLOAD SWAP1 DUP1 DUP3 MSTORE DUP1 PUSH1 0x20 MUL PUSH1 0x20 ADD DUP3 ADD PUSH1 0x40 MSTORE DUP1 ISZERO PUSH2 0x342 JUMPI DUP2 PUSH1 0x20 ADD JUMPDEST PUSH2 0x32F PUSH2 0x8A8 JUMP JUMPDEST DUP2 MSTORE PUSH1 0x20 ADD SWAP1 PUSH1 0x1 SWAP1 SUB SWAP1 DUP2 PUSH2 0x327 JUMPI SWAP1 POP JUMPDEST POP SWAP1 POP JUMPDEST DUP2 PUSH2 0xFFFF AND DUP4 PUSH2 0xFFFF AND LT ISZERO PUSH2 0x4ED JUMPI PUSH1 0x2 PUSH0 SWAP1 SLOAD SWAP1 PUSH2 0x100 EXP SWAP1 DIV PUSH20 0xFFFFFFFFFFFFFFFFFFFFFFFFFFFFFFFFFFFFFFFF AND PUSH20 0xFFFFFFFFFFFFFFFFFFFFFFFFFFFFFFFFFFFFFFFF AND PUSH4 0xFD5E6DD1 DUP5 PUSH1 0x40 MLOAD DUP3 PUSH4 0xFFFFFFFF AND PUSH1 0xE0 SHL DUP2 MSTORE PUSH1 0x4 ADD PUSH2 0x3B0 SWAP2 SWAP1 PUSH2 0xD14 JUMP JUMPDEST PUSH1 0x20 PUSH1 0x40 MLOAD DUP1 DUP4 SUB DUP2 DUP7 GAS STATICCALL SWAP3 POP POP POP DUP1 ISZERO PUSH2 0x3EA JUMPI POP PUSH1 0x40 MLOAD RETURNDATASIZE PUSH1 0x1F NOT PUSH1 0x1F DUP3 ADD AND DUP3 ADD DUP1 PUSH1 0x40 MSTORE POP DUP2 ADD SWAP1 PUSH2 0x3E7 SWAP2 SWAP1 PUSH2 0xD41 JUMP JUMPDEST PUSH1 0x1 JUMPDEST ISZERO PUSH2 0x4ED JUMPI PUSH0 PUSH1 0x3 PUSH0 SWAP1 SLOAD SWAP1 PUSH2 0x100 EXP SWAP1 DIV PUSH20 0xFFFFFFFFFFFFFFFFFFFFFFFFFFFFFFFFFFFFFFFF AND PUSH20 0xFFFFFFFFFFFFFFFFFFFFFFFFFFFFFFFFFFFFFFFF AND PUSH4 0x70A08231 DUP4 PUSH1 0x40 MLOAD DUP3 PUSH4 0xFFFFFFFF AND PUSH1 0xE0 SHL DUP2 MSTORE PUSH1 0x4 ADD PUSH2 0x44A SWAP2 SWAP1 PUSH2 0xB5C JUMP JUMPDEST PUSH1 0x20 PUSH1 0x40 MLOAD DUP1 DUP4 SUB DUP2 DUP7 GAS STATICCALL ISZERO DUP1 ISZERO PUSH2 0x465 JUMPI RETURNDATASIZE PUSH0 DUP1 RETURNDATACOPY RETURNDATASIZE PUSH0 REVERT JUMPDEST POP POP POP POP PUSH1 0x40 MLOAD RETURNDATASIZE PUSH1 0x1F NOT PUSH1 0x1F DUP3 ADD AND DUP3 ADD DUP1 PUSH1 0x40 MSTORE POP DUP2 ADD SWAP1 PUSH2 0x489 SWAP2 SWAP1 PUSH2 0xD96 JUMP JUMPDEST SWAP1 POP PUSH1 0x40 MLOAD DUP1 PUSH1 0x40 ADD PUSH1 0x40 MSTORE DUP1 DUP4 PUSH20 0xFFFFFFFFFFFFFFFFFFFFFFFFFFFFFFFFFFFFFFFF AND DUP2 MSTORE PUSH1 0x20 ADD DUP3 DUP2 MSTORE POP DUP4 DUP7 PUSH2 0xFFFF AND DUP2 MLOAD DUP2 LT PUSH2 0x4CD JUMPI PUSH2 0x4CC PUSH2 0xDC1 JUMP JUMPDEST JUMPDEST PUSH1 0x20 MUL PUSH1 0x20 ADD ADD DUP2 SWAP1 MSTORE POP DUP5 DUP1 PUSH2 0x4E3 SWAP1 PUSH2 0xE1B JUMP JUMPDEST SWAP6 POP POP POP POP PUSH2 0x346 JUMP JUMPDEST PUSH0 DUP4 PUSH2 0xFFFF AND PUSH8 0xFFFFFFFFFFFFFFFF DUP2 GT ISZERO PUSH2 0x50C JUMPI PUSH2 0x50B PUSH2 0xCA1 JUMP JUMPDEST JUMPDEST PUSH1 0x40 MLOAD SWAP1 DUP1 DUP3 MSTORE DUP1 PUSH1 0x20 MUL PUSH1 0x20 ADD DUP3 ADD PUSH1 0x40 MSTORE DUP1 ISZERO PUSH2 0x545 JUMPI DUP2 PUSH1 0x20 ADD JUMPDEST PUSH2 0x532 PUSH2 0x8A8 JUMP JUMPDEST DUP2 MSTORE PUSH1 0x20 ADD SWAP1 PUSH1 0x1 SWAP1 SUB SWAP1 DUP2 PUSH2 0x52A JUMPI SWAP1 POP JUMPDEST POP SWAP1 POP PUSH0 JUMPDEST DUP5 PUSH2 0xFFFF AND DUP2 LT ISZERO PUSH2 0x59C JUMPI DUP3 DUP2 DUP2 MLOAD DUP2 LT PUSH2 0x569 JUMPI PUSH2 0x568 PUSH2 0xDC1 JUMP JUMPDEST JUMPDEST PUSH1 0x20 MUL PUSH1 0x20 ADD ADD MLOAD DUP3 DUP3 DUP2 MLOAD DUP2 LT PUSH2 0x584 JUMPI PUSH2 0x583 PUSH2 0xDC1 JUMP JUMPDEST JUMPDEST PUSH1 0x20 MUL PUSH1 0x20 ADD ADD DUP2 SWAP1 MSTORE POP DUP1 DUP1 PUSH1 0x1 ADD SWAP2 POP POP PUSH2 0x54A JUMP JUMPDEST POP DUP4 DUP2 DUP2 PUSH2 0xFFFF AND SWAP2 POP SWAP6 POP SWAP6 POP POP POP POP POP SWAP1 SWAP2 JUMP JUMPDEST PUSH0 DUP1 SLOAD SWAP1 PUSH2 0x100 EXP SWAP1 DIV PUSH20 0xFFFFFFFFFFFFFFFFFFFFFFFFFFFFFFFFFFFFFFFF AND DUP2 JUMP JUMPDEST PUSH1 0x60 PUSH0 DUP1 PUSH0 PUSH1 0x1 PUSH0 SWAP1 SLOAD SWAP1 PUSH2 0x100 EXP SWAP1 DIV PUSH20 0xFFFFFFFFFFFFFFFFFFFFFFFFFFFFFFFFFFFFFFFF AND PUSH20 0xFFFFFFFFFFFFFFFFFFFFFFFFFFFFFFFFFFFFFFFF AND PUSH4 0x70A08231 DUP7 PUSH1 0x40 MLOAD DUP3 PUSH4 0xFFFFFFFF AND PUSH1 0xE0 SHL DUP2 MSTORE PUSH1 0x4 ADD PUSH2 0x634 SWAP2 SWAP1 PUSH2 0xB5C JUMP JUMPDEST PUSH1 0x20 PUSH1 0x40 MLOAD DUP1 DUP4 SUB DUP2 DUP7 GAS STATICCALL ISZERO DUP1 ISZERO PUSH2 0x64F JUMPI RETURNDATASIZE PUSH0 DUP1 RETURNDATACOPY RETURNDATASIZE PUSH0 REVERT JUMPDEST POP POP POP POP PUSH1 0x40 MLOAD RETURNDATASIZE PUSH1 0x1F NOT PUSH1 0x1F DUP3 ADD AND DUP3 ADD DUP1 PUSH1 0x40 MSTORE POP DUP2 ADD SWAP1 PUSH2 0x673 SWAP2 SWAP1 PUSH2 0xD96 JUMP JUMPDEST SWAP1 POP PUSH0 PUSH1 0x3 PUSH0 SWAP1 SLOAD SWAP1 PUSH2 0x100 EXP SWAP1 DIV PUSH20 0xFFFFFFFFFFFFFFFFFFFFFFFFFFFFFFFFFFFFFFFF AND PUSH20 0xFFFFFFFFFFFFFFFFFFFFFFFFFFFFFFFFFFFFFFFF AND PUSH4 0x70A08231 DUP8 PUSH1 0x40 MLOAD DUP3 PUSH4 0xFFFFFFFF AND PUSH1 0xE0 SHL DUP2 MSTORE PUSH1 0x4 ADD PUSH2 0x6D0 SWAP2 SWAP1 PUSH2 0xB5C JUMP JUMPDEST PUSH1 0x20 PUSH1 0x40 MLOAD DUP1 DUP4 SUB DUP2 DUP7 GAS STATICCALL ISZERO DUP1 ISZERO PUSH2 0x6EB JUMPI RETURNDATASIZE PUSH0 DUP1 RETURNDATACOPY RETURNDATASIZE PUSH0 REVERT JUMPDEST POP POP POP POP PUSH1 0x40 MLOAD RETURNDATASIZE PUSH1 0x1F NOT PUSH1 0x1F DUP3 ADD AND DUP3 ADD DUP1 PUSH1 0x40 MSTORE POP DUP2 ADD SWAP1 PUSH2 0x70F SWAP2 SWAP1 PUSH2 0xD96 JUMP JUMPDEST SWAP1 POP PUSH0 DUP2 DUP4 PUSH2 0x71E SWAP2 SWAP1 PUSH2 0xE44 JUMP JUMPDEST SWAP1 POP PUSH1 0x60 PUSH10 0x54B40B1F852BDA00000 DUP3 LT PUSH2 0x770 JUMPI PUSH1 0x40 MLOAD DUP1 PUSH1 0x40 ADD PUSH1 0x40 MSTORE DUP1 PUSH1 0x8 DUP2 MSTORE PUSH1 0x20 ADD PUSH32 0x706C6174696E756D000000000000000000000000000000000000000000000000 DUP2 MSTORE POP SWAP1 POP PUSH2 0x894 JUMP JUMPDEST PUSH10 0x10F0CF064DD59200000 DUP3 LT PUSH2 0x7BE JUMPI PUSH1 0x40 MLOAD DUP1 PUSH1 0x40 ADD PUSH1 0x40 MSTORE DUP1 PUSH1 0x4 DUP2 MSTORE PUSH1 0x20 ADD PUSH32 0x676F6C6400000000000000000000000000000000000000000000000000000000 DUP2 MSTORE POP SWAP1 POP PUSH2 0x893 JUMP JUMPDEST PUSH9 0x878678326EAC900000 DUP3 LT PUSH2 0x80B JUMPI PUSH1 0x40 MLOAD DUP1 PUSH1 0x40 ADD PUSH1 0x40 MSTORE DUP1 PUSH1 0x6 DUP2 MSTORE PUSH1 0x20 ADD PUSH32 0x73696C7665720000000000000000000000000000000000000000000000000000 DUP2 MSTORE POP SWAP1 POP PUSH2 0x892 JUMP JUMPDEST PUSH9 0x43C33C193756480000 DUP3 LT PUSH2 0x858 JUMPI PUSH1 0x40 MLOAD DUP1 PUSH1 0x40 ADD PUSH1 0x40 MSTORE DUP1 PUSH1 0x6 DUP2 MSTORE PUSH1 0x20 ADD PUSH32 0x62726F6E7A650000000000000000000000000000000000000000000000000000 DUP2 MSTORE POP SWAP1 POP PUSH2 0x891 JUMP JUMPDEST PUSH1 0x40 MLOAD DUP1 PUSH1 0x40 ADD PUSH1 0x40 MSTORE DUP1 PUSH1 0x4 DUP2 MSTORE PUSH1 0x20 ADD PUSH32 0x6E6F6E6500000000000000000000000000000000000000000000000000000000 DUP2 MSTORE POP SWAP1 POP JUMPDEST JUMPDEST JUMPDEST JUMPDEST DUP1 DUP5 DUP4 SWAP7 POP SWAP7 POP SWAP7 POP POP POP POP POP SWAP2 SWAP4 SWAP1 SWAP3 POP JUMP JUMPDEST PUSH1 0x40 MLOAD DUP1 PUSH1 0x40 ADD PUSH1 0x40 MSTORE DUP1 PUSH0 PUSH20 0xFFFFFFFFFFFFFFFFFFFFFFFFFFFFFFFFFFFFFFFF AND DUP2 MSTORE PUSH1 0x20 ADD PUSH0 DUP2 MSTORE POP SWAP1 JUMP JUMPDEST PUSH0 DUP2 MLOAD SWAP1 POP SWAP2 SWAP1 POP JUMP JUMPDEST PUSH0 DUP3 DUP3 MSTORE PUSH1 0x20 DUP3 ADD SWAP1 POP SWAP3 SWAP2 POP POP JUMP JUMPDEST DUP3 DUP2 DUP4 MCOPY PUSH0 DUP4 DUP4 ADD MSTORE POP POP POP JUMP JUMPDEST PUSH0 PUSH1 0x1F NOT PUSH1 0x1F DUP4 ADD AND SWAP1 POP SWAP2 SWAP1 POP JUMP JUMPDEST PUSH0 PUSH2 0x918 DUP3 PUSH2 0x8D6 JUMP JUMPDEST PUSH2 0x922 DUP2 DUP6 PUSH2 0x8E0 JUMP JUMPDEST SWAP4 POP PUSH2 0x932 DUP2 DUP6 PUSH1 0x20 DUP7 ADD PUSH2 0x8F0 JUMP JUMPDEST PUSH2 0x93B DUP2 PUSH2 0x8FE JUMP JUMPDEST DUP5 ADD SWAP2 POP POP SWAP3 SWAP2 POP POP JUMP JUMPDEST PUSH0 PUSH1 0x20 DUP3 ADD SWAP1 POP DUP2 DUP2 SUB PUSH0 DUP4 ADD MSTORE PUSH2 0x95E DUP2 DUP5 PUSH2 0x90E JUMP JUMPDEST SWAP1 POP SWAP3 SWAP2 POP POP JUMP JUMPDEST PUSH0 DUP1 REVERT JUMPDEST PUSH0 PUSH20 0xFFFFFFFFFFFFFFFFFFFFFFFFFFFFFFFFFFFFFFFF DUP3 AND SWAP1 POP SWAP2 SWAP1 POP JUMP JUMPDEST PUSH0 PUSH2 0x993 DUP3 PUSH2 0x96A JUMP JUMPDEST SWAP1 POP SWAP2 SWAP1 POP JUMP JUMPDEST PUSH2 0x9A3 DUP2 PUSH2 0x989 JUMP JUMPDEST DUP2 EQ PUSH2 0x9AD JUMPI PUSH0 DUP1 REVERT JUMPDEST POP JUMP JUMPDEST PUSH0 DUP2 CALLDATALOAD SWAP1 POP PUSH2 0x9BE DUP2 PUSH2 0x99A JUMP JUMPDEST SWAP3 SWAP2 POP POP JUMP JUMPDEST PUSH0 DUP1 PUSH0 PUSH1 0x60 DUP5 DUP7 SUB SLT ISZERO PUSH2 0x9DB JUMPI PUSH2 0x9DA PUSH2 0x966 JUMP JUMPDEST JUMPDEST PUSH0 PUSH2 0x9E8 DUP7 DUP3 DUP8 ADD PUSH2 0x9B0 JUMP JUMPDEST SWAP4 POP POP PUSH1 0x20 PUSH2 0x9F9 DUP7 DUP3 DUP8 ADD PUSH2 0x9B0 JUMP JUMPDEST SWAP3 POP POP PUSH1 0x40 PUSH2 0xA0A DUP7 DUP3 DUP8 ADD PUSH2 0x9B0 JUMP JUMPDEST SWAP2 POP POP SWAP3 POP SWAP3 POP SWAP3 JUMP JUMPDEST PUSH0 DUP2 SWAP1 POP SWAP2 SWAP1 POP JUMP JUMPDEST PUSH2 0xA26 DUP2 PUSH2 0xA14 JUMP JUMPDEST DUP3 MSTORE POP POP JUMP JUMPDEST PUSH0 DUP2 MLOAD SWAP1 POP SWAP2 SWAP1 POP JUMP JUMPDEST PUSH0 DUP3 DUP3 MSTORE PUSH1 0x20 DUP3 ADD SWAP1 POP SWAP3 SWAP2 POP POP JUMP JUMPDEST PUSH0 DUP2 SWAP1 POP PUSH1 0x20 DUP3 ADD SWAP1 POP SWAP2 SWAP1 POP JUMP JUMPDEST PUSH2 0xA5E DUP2 PUSH2 0x989 JUMP JUMPDEST DUP3 MSTORE POP POP JUMP JUMPDEST PUSH2 0xA6D DUP2 PUSH2 0xA14 JUMP JUMPDEST DUP3 MSTORE POP POP JUMP JUMPDEST PUSH1 0x40 DUP3 ADD PUSH0 DUP3 ADD MLOAD PUSH2 0xA87 PUSH0 DUP6 ADD DUP3 PUSH2 0xA55 JUMP JUMPDEST POP PUSH1 0x20 DUP3 ADD MLOAD PUSH2 0xA9A PUSH1 0x20 DUP6 ADD DUP3 PUSH2 0xA64 JUMP JUMPDEST POP POP POP POP JUMP JUMPDEST PUSH0 PUSH2 0xAAB DUP4 DUP4 PUSH2 0xA73 JUMP JUMPDEST PUSH1 0x40 DUP4 ADD SWAP1 POP SWAP3 SWAP2 POP POP JUMP JUMPDEST PUSH0 PUSH1 0x20 DUP3 ADD SWAP1 POP SWAP2 SWAP1 POP JUMP JUMPDEST PUSH0 PUSH2 0xACD DUP3 PUSH2 0xA2C JUMP JUMPDEST PUSH2 0xAD7 DUP2 DUP6 PUSH2 0xA36 JUMP JUMPDEST SWAP4 POP PUSH2 0xAE2 DUP4 PUSH2 0xA46 JUMP JUMPDEST DUP1 PUSH0 JUMPDEST DUP4 DUP2 LT ISZERO PUSH2 0xB12 JUMPI DUP2 MLOAD PUSH2 0xAF9 DUP9 DUP3 PUSH2 0xAA0 JUMP JUMPDEST SWAP8 POP PUSH2 0xB04 DUP4 PUSH2 0xAB7 JUMP JUMPDEST SWAP3 POP POP PUSH1 0x1 DUP2 ADD SWAP1 POP PUSH2 0xAE5 JUMP JUMPDEST POP DUP6 SWAP4 POP POP POP POP SWAP3 SWAP2 POP POP JUMP JUMPDEST PUSH0 PUSH1 0x40 DUP3 ADD SWAP1 POP PUSH2 0xB32 PUSH0 DUP4 ADD DUP6 PUSH2 0xA1D JUMP JUMPDEST DUP2 DUP2 SUB PUSH1 0x20 DUP4 ADD MSTORE PUSH2 0xB44 DUP2 DUP5 PUSH2 0xAC3 JUMP JUMPDEST SWAP1 POP SWAP4 SWAP3 POP POP POP JUMP JUMPDEST PUSH2 0xB56 DUP2 PUSH2 0x989 JUMP JUMPDEST DUP3 MSTORE POP POP JUMP JUMPDEST PUSH0 PUSH1 0x20 DUP3 ADD SWAP1 POP PUSH2 0xB6F PUSH0 DUP4 ADD DUP5 PUSH2 0xB4D JUMP JUMPDEST SWAP3 SWAP2 POP POP JUMP JUMPDEST PUSH0 PUSH1 0x20 DUP3 DUP5 SUB SLT ISZERO PUSH2 0xB8A JUMPI PUSH2 0xB89 PUSH2 0x966 JUMP JUMPDEST JUMPDEST PUSH0 PUSH2 0xB97 DUP5 DUP3 DUP6 ADD PUSH2 0x9B0 JUMP JUMPDEST SWAP2 POP POP SWAP3 SWAP2 POP POP JUMP JUMPDEST PUSH0 PUSH1 0x60 DUP3 ADD SWAP1 POP DUP2 DUP2 SUB PUSH0 DUP4 ADD MSTORE PUSH2 0xBB8 DUP2 DUP7 PUSH2 0x90E JUMP JUMPDEST SWAP1 POP PUSH2 0xBC7 PUSH1 0x20 DUP4 ADD DUP6 PUSH2 0xA1D JUMP JUMPDEST PUSH2 0xBD4 PUSH1 0x40 DUP4 ADD DUP5 PUSH2 0xA1D JUMP JUMPDEST SWAP5 SWAP4 POP POP POP POP JUMP JUMPDEST PUSH32 0x4E487B7100000000000000000000000000000000000000000000000000000000 PUSH0 MSTORE PUSH1 0x22 PUSH1 0x4 MSTORE PUSH1 0x24 PUSH0 REVERT JUMPDEST PUSH0 PUSH1 0x2 DUP3 DIV SWAP1 POP PUSH1 0x1 DUP3 AND DUP1 PUSH2 0xC20 JUMPI PUSH1 0x7F DUP3 AND SWAP2 POP JUMPDEST PUSH1 0x20 DUP3 LT DUP2 SUB PUSH2 0xC33 JUMPI PUSH2 0xC32 PUSH2 0xBDC JUMP JUMPDEST JUMPDEST POP SWAP2 SWAP1 POP JUMP JUMPDEST PUSH32 0x4F776E61626C6500000000000000000000000000000000000000000000000000 PUSH0 DUP3 ADD MSTORE POP JUMP JUMPDEST PUSH0 PUSH2 0xC6D PUSH1 0x7 DUP4 PUSH2 0x8E0 JUMP JUMPDEST SWAP2 POP PUSH2 0xC78 DUP3 PUSH2 0xC39 JUMP JUMPDEST PUSH1 0x20 DUP3 ADD SWAP1 POP SWAP2 SWAP1 POP JUMP JUMPDEST PUSH0 PUSH1 0x20 DUP3 ADD SWAP1 POP DUP2 DUP2 SUB PUSH0 DUP4 ADD MSTORE PUSH2 0xC9A DUP2 PUSH2 0xC61 JUMP JUMPDEST SWAP1 POP SWAP2 SWAP1 POP JUMP JUMPDEST PUSH32 0x4E487B7100000000000000000000000000000000000000000000000000000000 PUSH0 MSTORE PUSH1 0x41 PUSH1 0x4 MSTORE PUSH1 0x24 PUSH0 REVERT JUMPDEST PUSH0 PUSH2 0xFFFF DUP3 AND SWAP1 POP SWAP2 SWAP1 POP JUMP JUMPDEST PUSH0 DUP2 SWAP1 POP SWAP2 SWAP1 POP JUMP JUMPDEST PUSH0 PUSH2 0xCFE PUSH2 0xCF9 PUSH2 0xCF4 DUP5 PUSH2 0xCCE JUMP JUMPDEST PUSH2 0xCDB JUMP JUMPDEST PUSH2 0xA14 JUMP JUMPDEST SWAP1 POP SWAP2 SWAP1 POP JUMP JUMPDEST PUSH2 0xD0E DUP2 PUSH2 0xCE4 JUMP JUMPDEST DUP3 MSTORE POP POP JUMP JUMPDEST PUSH0 PUSH1 0x20 DUP3 ADD SWAP1 POP PUSH2 0xD27 PUSH0 DUP4 ADD DUP5 PUSH2 0xD05 JUMP JUMPDEST SWAP3 SWAP2 POP POP JUMP JUMPDEST PUSH0 DUP2 MLOAD SWAP1 POP PUSH2 0xD3B DUP2 PUSH2 0x99A JUMP JUMPDEST SWAP3 SWAP2 POP POP JUMP JUMPDEST PUSH0 PUSH1 0x20 DUP3 DUP5 SUB SLT ISZERO PUSH2 0xD56 JUMPI PUSH2 0xD55 PUSH2 0x966 JUMP JUMPDEST JUMPDEST PUSH0 PUSH2 0xD63 DUP5 DUP3 DUP6 ADD PUSH2 0xD2D JUMP JUMPDEST SWAP2 POP POP SWAP3 SWAP2 POP POP JUMP JUMPDEST PUSH2 0xD75 DUP2 PUSH2 0xA14 JUMP JUMPDEST DUP2 EQ PUSH2 0xD7F JUMPI PUSH0 DUP1 REVERT JUMPDEST POP JUMP JUMPDEST PUSH0 DUP2 MLOAD SWAP1 POP PUSH2 0xD90 DUP2 PUSH2 0xD6C JUMP JUMPDEST SWAP3 SWAP2 POP POP JUMP JUMPDEST PUSH0 PUSH1 0x20 DUP3 DUP5 SUB SLT ISZERO PUSH2 0xDAB JUMPI PUSH2 0xDAA PUSH2 0x966 JUMP JUMPDEST JUMPDEST PUSH0 PUSH2 0xDB8 DUP5 DUP3 DUP6 ADD PUSH2 0xD82 JUMP JUMPDEST SWAP2 POP POP SWAP3 SWAP2 POP POP JUMP JUMPDEST PUSH32 0x4E487B7100000000000000000000000000000000000000000000000000000000 PUSH0 MSTORE PUSH1 0x32 PUSH1 0x4 MSTORE PUSH1 0x24 PUSH0 REVERT JUMPDEST PUSH32 0x4E487B7100000000000000000000000000000000000000000000000000000000 PUSH0 MSTORE PUSH1 0x11 PUSH1 0x4 MSTORE PUSH1 0x24 PUSH0 REVERT JUMPDEST PUSH0 PUSH2 0xE25 DUP3 PUSH2 0xCCE JUMP JUMPDEST SWAP2 POP PUSH2 0xFFFF DUP3 SUB PUSH2 0xE39 JUMPI PUSH2 0xE38 PUSH2 0xDEE JUMP JUMPDEST JUMPDEST PUSH1 0x1 DUP3 ADD SWAP1 POP SWAP2 SWAP1 POP JUMP JUMPDEST PUSH0 PUSH2 0xE4E DUP3 PUSH2 0xA14 JUMP JUMPDEST SWAP2 POP PUSH2 0xE59 DUP4 PUSH2 0xA14 JUMP JUMPDEST SWAP3 POP DUP3 DUP3 ADD SWAP1 POP DUP1 DUP3 GT ISZERO PUSH2 0xE71 JUMPI PUSH2 0xE70 PUSH2 0xDEE JUMP JUMPDEST JUMPDEST SWAP3 SWAP2 POP POP JUMP INVALID LOG2 PUSH5 0x6970667358 0x22 SLT KECCAK256 PUSH21 0xA2919893D42FC327910E14BB2822469B2A9634D897 PUSH12 0xB679A3FDBB0F83F51064736F PUSH13 0x634300081A0033000000000000 "
				},
				"gasEstimates": {
					"creation": {
						"codeDepositCost": "751400",
						"executionCost": "infinite",
						"totalCost": "infinite"
					},
					"external": {
						"getStakers()": "infinite",
						"getTier(address)": "infinite",
						"name()": "infinite",
						"owner()": "2549",
						"updateContractAddresses(address,address,address)": "infinite"
					}
				},
				"methodIdentifiers": {
					"getStakers()": "43352d61",
					"getTier(address)": "b45aae52",
					"name()": "06fdde03",
					"owner()": "8da5cb5b",
					"updateContractAddresses(address,address,address)": "2071088a"
				}
			},
			"storageLayout": {
				"storage": [
					{
						"astId": 24,
						"contract": "contracts/stakers.sol:EAIUtilities",
						"label": "owner",
						"offset": 0,
						"slot": "0",
						"type": "t_address"
					},
					{
						"astId": 51,
						"contract": "contracts/stakers.sol:EAIUtilities",
						"label": "eai",
						"offset": 0,
						"slot": "1",
						"type": "t_address"
					},
					{
						"astId": 54,
						"contract": "contracts/stakers.sol:EAIUtilities",
						"label": "staking",
						"offset": 0,
						"slot": "2",
						"type": "t_address"
					},
					{
						"astId": 57,
						"contract": "contracts/stakers.sol:EAIUtilities",
						"label": "tdeai",
						"offset": 0,
						"slot": "3",
						"type": "t_address"
					},
					{
						"astId": 60,
						"contract": "contracts/stakers.sol:EAIUtilities",
						"label": "name",
						"offset": 0,
						"slot": "4",
						"type": "t_string_storage"
					}
				],
				"types": {
					"t_address": {
						"encoding": "inplace",
						"label": "address",
						"numberOfBytes": "20"
					},
					"t_string_storage": {
						"encoding": "bytes",
						"label": "string",
						"numberOfBytes": "32"
					}
				}
			},
			"userdoc": {
				"kind": "user",
				"methods": {},
				"version": 1
			}
		}
	}
}