{
	"contracts/5_EAIStakingRanks.sol": {
		"Ranks": {
			"abi": [
				{
					"inputs": [],
					"stateMutability": "nonpayable",
					"type": "constructor"
				},
				{
					"inputs": [],
					"name": "owner",
					"outputs": [
						{
							"internalType": "address",
							"name": "",
							"type": "address"
						}
					],
					"stateMutability": "view",
					"type": "function"
				},
				{
					"inputs": [],
					"name": "stakers",
					"outputs": [
						{
							"internalType": "uint256",
							"name": "",
							"type": "uint256"
						},
						{
							"components": [
								{
									"internalType": "address",
									"name": "user",
									"type": "address"
								},
								{
									"internalType": "uint256",
									"name": "balance",
									"type": "uint256"
								}
							],
							"internalType": "struct WalletBalance[]",
							"name": "",
							"type": "tuple[]"
						}
					],
					"stateMutability": "view",
					"type": "function"
				}
			],
			"devdoc": {
				"kind": "dev",
				"methods": {},
				"version": 1
			},
			"evm": {
				"assembly": "    /* \"contracts/5_EAIStakingRanks.sol\":300:1288  contract Ranks {... */\n  mstore(0x40, 0x80)\n    /* \"contracts/5_EAIStakingRanks.sol\":350:392  0xDa41c4Ff79C9809c8EE7B5A00Cb28C34049d3404 */\n  0xda41c4ff79c9809c8ee7b5a00cb28c34049d3404\n    /* \"contracts/5_EAIStakingRanks.sol\":321:392  address private eaistaking = 0xDa41c4Ff79C9809c8EE7B5A00Cb28C34049d3404 */\n  0x00\n  dup1\n  0x0100\n  exp\n  dup2\n  sload\n  dup2\n  0xffffffffffffffffffffffffffffffffffffffff\n  mul\n  not\n  and\n  swap1\n  dup4\n  0xffffffffffffffffffffffffffffffffffffffff\n  and\n  mul\n  or\n  swap1\n  sstore\n  pop\n    /* \"contracts/5_EAIStakingRanks.sol\":422:464  0x55eE7ea10fd88DC9fa7Bb1fb541083A6d5bCacd2 */\n  0x55ee7ea10fd88dc9fa7bb1fb541083a6d5bcacd2\n    /* \"contracts/5_EAIStakingRanks.sol\":398:464  address private tdeai = 0x55eE7ea10fd88DC9fa7Bb1fb541083A6d5bCacd2 */\n  0x01\n  exp(0x0100, 0x00)\n  dup2\n  sload\n  dup2\n  0xffffffffffffffffffffffffffffffffffffffff\n  mul\n  not\n  and\n  swap1\n  dup4\n  0xffffffffffffffffffffffffffffffffffffffff\n  and\n  mul\n  or\n  swap1\n  sstore\n  pop\n    /* \"contracts/5_EAIStakingRanks.sol\":497:546  constructor() {... */\n  callvalue\n  dup1\n  iszero\n  tag_1\n  jumpi\n  0x00\n  dup1\n  revert\ntag_1:\n  pop\n    /* \"contracts/5_EAIStakingRanks.sol\":529:539  msg.sender */\n  caller\n    /* \"contracts/5_EAIStakingRanks.sol\":521:526  owner */\n  0x02\n  0x00\n    /* \"contracts/5_EAIStakingRanks.sol\":521:539  owner = msg.sender */\n  0x0100\n  exp\n  dup2\n  sload\n  dup2\n  0xffffffffffffffffffffffffffffffffffffffff\n  mul\n  not\n  and\n  swap1\n  dup4\n  0xffffffffffffffffffffffffffffffffffffffff\n  and\n  mul\n  or\n  swap1\n  sstore\n  pop\n    /* \"contracts/5_EAIStakingRanks.sol\":300:1288  contract Ranks {... */\n  dataSize(sub_0)\n  dup1\n  dataOffset(sub_0)\n  0x00\n  codecopy\n  0x00\n  return\nstop\n\nsub_0: assembly {\n        /* \"contracts/5_EAIStakingRanks.sol\":300:1288  contract Ranks {... */\n      mstore(0x40, 0x80)\n      callvalue\n      dup1\n      iszero\n      tag_1\n      jumpi\n      0x00\n      dup1\n      revert\n    tag_1:\n      pop\n      jumpi(tag_2, lt(calldatasize, 0x04))\n      shr(0xe0, calldataload(0x00))\n      dup1\n      0x8da5cb5b\n      eq\n      tag_3\n      jumpi\n      dup1\n      0xfed1252a\n      eq\n      tag_4\n      jumpi\n    tag_2:\n      0x00\n      dup1\n      revert\n        /* \"contracts/5_EAIStakingRanks.sol\":470:490  address public owner */\n    tag_3:\n      tag_5\n      tag_6\n      jump\t// in\n    tag_5:\n      mload(0x40)\n      tag_7\n      swap2\n      swap1\n      tag_8\n      jump\t// in\n    tag_7:\n      mload(0x40)\n      dup1\n      swap2\n      sub\n      swap1\n      return\n        /* \"contracts/5_EAIStakingRanks.sol\":552:1286  function stakers() public view returns (uint256, WalletBalance[] memory) {... */\n    tag_4:\n      tag_9\n      tag_10\n      jump\t// in\n    tag_9:\n      mload(0x40)\n      tag_11\n      swap3\n      swap2\n      swap1\n      tag_12\n      jump\t// in\n    tag_11:\n      mload(0x40)\n      dup1\n      swap2\n      sub\n      swap1\n      return\n        /* \"contracts/5_EAIStakingRanks.sol\":470:490  address public owner */\n    tag_6:\n      0x02\n      0x00\n      swap1\n      sload\n      swap1\n      0x0100\n      exp\n      swap1\n      div\n      0xffffffffffffffffffffffffffffffffffffffff\n      and\n      dup2\n      jump\t// out\n        /* \"contracts/5_EAIStakingRanks.sol\":552:1286  function stakers() public view returns (uint256, WalletBalance[] memory) {... */\n    tag_10:\n        /* \"contracts/5_EAIStakingRanks.sol\":592:599  uint256 */\n      0x00\n        /* \"contracts/5_EAIStakingRanks.sol\":601:623  WalletBalance[] memory */\n      0x60\n        /* \"contracts/5_EAIStakingRanks.sol\":635:647  uint16 count */\n      0x00\n        /* \"contracts/5_EAIStakingRanks.sol\":661:671  uint16 max */\n      dup1\n        /* \"contracts/5_EAIStakingRanks.sol\":674:677  500 */\n      0x01f4\n        /* \"contracts/5_EAIStakingRanks.sol\":661:677  uint16 max = 500 */\n      swap1\n      pop\n        /* \"contracts/5_EAIStakingRanks.sol\":688:720  WalletBalance[] memory addresses */\n      0x00\n        /* \"contracts/5_EAIStakingRanks.sol\":743:746  max */\n      dup2\n        /* \"contracts/5_EAIStakingRanks.sol\":723:747  new WalletBalance[](max) */\n      0xffff\n      and\n      0xffffffffffffffff\n      dup2\n      gt\n      iszero\n      tag_14\n      jumpi\n      tag_15\n      tag_16\n      jump\t// in\n    tag_15:\n    tag_14:\n      mload(0x40)\n      swap1\n      dup1\n      dup3\n      mstore\n      dup1\n      0x20\n      mul\n      0x20\n      add\n      dup3\n      add\n      0x40\n      mstore\n      dup1\n      iszero\n      tag_17\n      jumpi\n      dup2\n      0x20\n      add\n    tag_18:\n      tag_19\n      tag_20\n      jump\t// in\n    tag_19:\n      dup2\n      mstore\n      0x20\n      add\n      swap1\n      0x01\n      swap1\n      sub\n      swap1\n      dup2\n      tag_18\n      jumpi\n      swap1\n      pop\n    tag_17:\n      pop\n        /* \"contracts/5_EAIStakingRanks.sol\":688:747  WalletBalance[] memory addresses = new WalletBalance[](max) */\n      swap1\n      pop\n        /* \"contracts/5_EAIStakingRanks.sol\":758:1084  while (count < max) {... */\n    tag_21:\n        /* \"contracts/5_EAIStakingRanks.sol\":773:776  max */\n      dup2\n        /* \"contracts/5_EAIStakingRanks.sol\":765:776  count < max */\n      0xffff\n      and\n        /* \"contracts/5_EAIStakingRanks.sol\":765:770  count */\n      dup4\n        /* \"contracts/5_EAIStakingRanks.sol\":765:776  count < max */\n      0xffff\n      and\n      lt\n        /* \"contracts/5_EAIStakingRanks.sol\":758:1084  while (count < max) {... */\n      iszero\n      tag_22\n      jumpi\n        /* \"contracts/5_EAIStakingRanks.sol\":808:818  eaistaking */\n      0x00\n      dup1\n      sload\n      swap1\n      0x0100\n      exp\n      swap1\n      div\n      0xffffffffffffffffffffffffffffffffffffffff\n      and\n        /* \"contracts/5_EAIStakingRanks.sol\":796:827  IEAIStaking(eaistaking).stakers */\n      0xffffffffffffffffffffffffffffffffffffffff\n      and\n      0xfd5e6dd1\n        /* \"contracts/5_EAIStakingRanks.sol\":828:833  count */\n      dup5\n        /* \"contracts/5_EAIStakingRanks.sol\":796:834  IEAIStaking(eaistaking).stakers(count) */\n      mload(0x40)\n      dup3\n      0xffffffff\n      and\n      0xe0\n      shl\n      dup2\n      mstore\n      0x04\n      add\n      tag_23\n      swap2\n      swap1\n      tag_24\n      jump\t// in\n    tag_23:\n      0x20\n      mload(0x40)\n      dup1\n      dup4\n      sub\n      dup2\n      dup7\n      gas\n      staticcall\n      swap3\n      pop\n      pop\n      pop\n      dup1\n      iszero\n      tag_25\n      jumpi\n      pop\n      mload(0x40)\n      returndatasize\n      not(0x1f)\n      0x1f\n      dup3\n      add\n      and\n      dup3\n      add\n      dup1\n      0x40\n      mstore\n      pop\n      dup2\n      add\n      swap1\n      tag_26\n      swap2\n      swap1\n      tag_27\n      jump\t// in\n    tag_26:\n      0x01\n    tag_25:\n        /* \"contracts/5_EAIStakingRanks.sol\":792:1074  try IEAIStaking(eaistaking).stakers(count) returns (address user) {... */\n      iszero\n        /* \"contracts/5_EAIStakingRanks.sol\":1054:1059  break */\n      tag_22\n        /* \"contracts/5_EAIStakingRanks.sol\":792:1074  try IEAIStaking(eaistaking).stakers(count) returns (address user) {... */\n      jumpi\n        /* \"contracts/5_EAIStakingRanks.sol\":876:891  uint256 balance */\n      0x00\n        /* \"contracts/5_EAIStakingRanks.sol\":901:906  tdeai */\n      0x01\n      0x00\n      swap1\n      sload\n      swap1\n      0x0100\n      exp\n      swap1\n      div\n      0xffffffffffffffffffffffffffffffffffffffff\n      and\n        /* \"contracts/5_EAIStakingRanks.sol\":894:917  ITdEAI(tdeai).balanceOf */\n      0xffffffffffffffffffffffffffffffffffffffff\n      and\n      0x70a08231\n        /* \"contracts/5_EAIStakingRanks.sol\":918:922  user */\n      dup4\n        /* \"contracts/5_EAIStakingRanks.sol\":894:923  ITdEAI(tdeai).balanceOf(user) */\n      mload(0x40)\n      dup3\n      0xffffffff\n      and\n      0xe0\n      shl\n      dup2\n      mstore\n      0x04\n      add\n      tag_33\n      swap2\n      swap1\n      tag_8\n      jump\t// in\n    tag_33:\n      0x20\n      mload(0x40)\n      dup1\n      dup4\n      sub\n      dup2\n      dup7\n      gas\n      staticcall\n      iszero\n      dup1\n      iszero\n      tag_35\n      jumpi\n      returndatasize\n      0x00\n      dup1\n      returndatacopy\n      revert(0x00, returndatasize)\n    tag_35:\n      pop\n      pop\n      pop\n      pop\n      mload(0x40)\n      returndatasize\n      not(0x1f)\n      0x1f\n      dup3\n      add\n      and\n      dup3\n      add\n      dup1\n      0x40\n      mstore\n      pop\n      dup2\n      add\n      swap1\n      tag_36\n      swap2\n      swap1\n      tag_37\n      jump\t// in\n    tag_36:\n        /* \"contracts/5_EAIStakingRanks.sol\":876:923  uint256 balance = ITdEAI(tdeai).balanceOf(user) */\n      swap1\n      pop\n        /* \"contracts/5_EAIStakingRanks.sol\":961:989  WalletBalance(user, balance) */\n      mload(0x40)\n      dup1\n      0x40\n      add\n      0x40\n      mstore\n      dup1\n        /* \"contracts/5_EAIStakingRanks.sol\":975:979  user */\n      dup4\n        /* \"contracts/5_EAIStakingRanks.sol\":961:989  WalletBalance(user, balance) */\n      0xffffffffffffffffffffffffffffffffffffffff\n      and\n      dup2\n      mstore\n      0x20\n      add\n        /* \"contracts/5_EAIStakingRanks.sol\":981:988  balance */\n      dup3\n        /* \"contracts/5_EAIStakingRanks.sol\":961:989  WalletBalance(user, balance) */\n      dup2\n      mstore\n      pop\n        /* \"contracts/5_EAIStakingRanks.sol\":942:951  addresses */\n      dup4\n        /* \"contracts/5_EAIStakingRanks.sol\":952:957  count */\n      dup7\n        /* \"contracts/5_EAIStakingRanks.sol\":942:958  addresses[count] */\n      0xffff\n      and\n      dup2\n      mload\n      dup2\n      lt\n      tag_38\n      jumpi\n      tag_39\n      tag_40\n      jump\t// in\n    tag_39:\n    tag_38:\n      0x20\n      mul\n      0x20\n      add\n      add\n        /* \"contracts/5_EAIStakingRanks.sol\":942:989  addresses[count] = WalletBalance(user, balance) */\n      dup2\n      swap1\n      mstore\n      pop\n        /* \"contracts/5_EAIStakingRanks.sol\":1007:1014  count++ */\n      dup5\n      dup1\n      tag_41\n      swap1\n      tag_42\n      jump\t// in\n    tag_41:\n      swap6\n      pop\n      pop\n        /* \"contracts/5_EAIStakingRanks.sol\":858:1029  {... */\n      pop\n        /* \"contracts/5_EAIStakingRanks.sol\":835:1029  returns (address user) {... */\n      pop\n        /* \"contracts/5_EAIStakingRanks.sol\":758:1084  while (count < max) {... */\n      jump(tag_21)\n    tag_22:\n        /* \"contracts/5_EAIStakingRanks.sol\":1094:1123  WalletBalance[] memory result */\n      0x00\n        /* \"contracts/5_EAIStakingRanks.sol\":1146:1151  count */\n      dup4\n        /* \"contracts/5_EAIStakingRanks.sol\":1126:1152  new WalletBalance[](count) */\n      0xffff\n      and\n      0xffffffffffffffff\n      dup2\n      gt\n      iszero\n      tag_43\n      jumpi\n      tag_44\n      tag_16\n      jump\t// in\n    tag_44:\n    tag_43:\n      mload(0x40)\n      swap1\n      dup1\n      dup3\n      mstore\n      dup1\n      0x20\n      mul\n      0x20\n      add\n      dup3\n      add\n      0x40\n      mstore\n      dup1\n      iszero\n      tag_45\n      jumpi\n      dup2\n      0x20\n      add\n    tag_46:\n      tag_47\n      tag_20\n      jump\t// in\n    tag_47:\n      dup2\n      mstore\n      0x20\n      add\n      swap1\n      0x01\n      swap1\n      sub\n      swap1\n      dup2\n      tag_46\n      jumpi\n      swap1\n      pop\n    tag_45:\n      pop\n        /* \"contracts/5_EAIStakingRanks.sol\":1094:1152  WalletBalance[] memory result = new WalletBalance[](count) */\n      swap1\n      pop\n        /* \"contracts/5_EAIStakingRanks.sol\":1167:1176  uint256 i */\n      0x00\n        /* \"contracts/5_EAIStakingRanks.sol\":1162:1247  for (uint256 i = 0; i < count; i++) {... */\n    tag_48:\n        /* \"contracts/5_EAIStakingRanks.sol\":1186:1191  count */\n      dup5\n        /* \"contracts/5_EAIStakingRanks.sol\":1182:1191  i < count */\n      0xffff\n      and\n        /* \"contracts/5_EAIStakingRanks.sol\":1182:1183  i */\n      dup2\n        /* \"contracts/5_EAIStakingRanks.sol\":1182:1191  i < count */\n      lt\n        /* \"contracts/5_EAIStakingRanks.sol\":1162:1247  for (uint256 i = 0; i < count; i++) {... */\n      iszero\n      tag_49\n      jumpi\n        /* \"contracts/5_EAIStakingRanks.sol\":1224:1233  addresses */\n      dup3\n        /* \"contracts/5_EAIStakingRanks.sol\":1234:1235  i */\n      dup2\n        /* \"contracts/5_EAIStakingRanks.sol\":1224:1236  addresses[i] */\n      dup2\n      mload\n      dup2\n      lt\n      tag_51\n      jumpi\n      tag_52\n      tag_40\n      jump\t// in\n    tag_52:\n    tag_51:\n      0x20\n      mul\n      0x20\n      add\n      add\n      mload\n        /* \"contracts/5_EAIStakingRanks.sol\":1212:1218  result */\n      dup3\n        /* \"contracts/5_EAIStakingRanks.sol\":1219:1220  i */\n      dup3\n        /* \"contracts/5_EAIStakingRanks.sol\":1212:1221  result[i] */\n      dup2\n      mload\n      dup2\n      lt\n      tag_53\n      jumpi\n      tag_54\n      tag_40\n      jump\t// in\n    tag_54:\n    tag_53:\n      0x20\n      mul\n      0x20\n      add\n      add\n        /* \"contracts/5_EAIStakingRanks.sol\":1212:1236  result[i] = addresses[i] */\n      dup2\n      swap1\n      mstore\n      pop\n        /* \"contracts/5_EAIStakingRanks.sol\":1193:1196  i++ */\n      dup1\n      dup1\n      0x01\n      add\n      swap2\n      pop\n      pop\n        /* \"contracts/5_EAIStakingRanks.sol\":1162:1247  for (uint256 i = 0; i < count; i++) {... */\n      jump(tag_48)\n    tag_49:\n      pop\n        /* \"contracts/5_EAIStakingRanks.sol\":1265:1270  count */\n      dup4\n        /* \"contracts/5_EAIStakingRanks.sol\":1272:1278  result */\n      dup2\n        /* \"contracts/5_EAIStakingRanks.sol\":1257:1279  return (count, result) */\n      dup2\n      0xffff\n      and\n      swap2\n      pop\n      swap6\n      pop\n      swap6\n      pop\n      pop\n      pop\n      pop\n      pop\n        /* \"contracts/5_EAIStakingRanks.sol\":552:1286  function stakers() public view returns (uint256, WalletBalance[] memory) {... */\n      swap1\n      swap2\n      jump\t// out\n    tag_20:\n      mload(0x40)\n      dup1\n      0x40\n      add\n      0x40\n      mstore\n      dup1\n      and(0xffffffffffffffffffffffffffffffffffffffff, 0x00)\n      dup2\n      mstore\n      0x20\n      add\n      0x00\n      dup2\n      mstore\n      pop\n      swap1\n      jump\t// out\n        /* \"#utility.yul\":7:133   */\n    tag_55:\n        /* \"#utility.yul\":44:51   */\n      0x00\n        /* \"#utility.yul\":84:126   */\n      0xffffffffffffffffffffffffffffffffffffffff\n        /* \"#utility.yul\":77:82   */\n      dup3\n        /* \"#utility.yul\":73:127   */\n      and\n        /* \"#utility.yul\":62:127   */\n      swap1\n      pop\n        /* \"#utility.yul\":7:133   */\n      swap2\n      swap1\n      pop\n      jump\t// out\n        /* \"#utility.yul\":139:235   */\n    tag_56:\n        /* \"#utility.yul\":176:183   */\n      0x00\n        /* \"#utility.yul\":205:229   */\n      tag_84\n        /* \"#utility.yul\":223:228   */\n      dup3\n        /* \"#utility.yul\":205:229   */\n      tag_55\n      jump\t// in\n    tag_84:\n        /* \"#utility.yul\":194:229   */\n      swap1\n      pop\n        /* \"#utility.yul\":139:235   */\n      swap2\n      swap1\n      pop\n      jump\t// out\n        /* \"#utility.yul\":241:359   */\n    tag_57:\n        /* \"#utility.yul\":328:352   */\n      tag_86\n        /* \"#utility.yul\":346:351   */\n      dup2\n        /* \"#utility.yul\":328:352   */\n      tag_56\n      jump\t// in\n    tag_86:\n        /* \"#utility.yul\":323:326   */\n      dup3\n        /* \"#utility.yul\":316:353   */\n      mstore\n        /* \"#utility.yul\":241:359   */\n      pop\n      pop\n      jump\t// out\n        /* \"#utility.yul\":365:587   */\n    tag_8:\n        /* \"#utility.yul\":458:462   */\n      0x00\n        /* \"#utility.yul\":496:498   */\n      0x20\n        /* \"#utility.yul\":485:494   */\n      dup3\n        /* \"#utility.yul\":481:499   */\n      add\n        /* \"#utility.yul\":473:499   */\n      swap1\n      pop\n        /* \"#utility.yul\":509:580   */\n      tag_88\n        /* \"#utility.yul\":577:578   */\n      0x00\n        /* \"#utility.yul\":566:575   */\n      dup4\n        /* \"#utility.yul\":562:579   */\n      add\n        /* \"#utility.yul\":553:559   */\n      dup5\n        /* \"#utility.yul\":509:580   */\n      tag_57\n      jump\t// in\n    tag_88:\n        /* \"#utility.yul\":365:587   */\n      swap3\n      swap2\n      pop\n      pop\n      jump\t// out\n        /* \"#utility.yul\":593:670   */\n    tag_58:\n        /* \"#utility.yul\":630:637   */\n      0x00\n        /* \"#utility.yul\":659:664   */\n      dup2\n        /* \"#utility.yul\":648:664   */\n      swap1\n      pop\n        /* \"#utility.yul\":593:670   */\n      swap2\n      swap1\n      pop\n      jump\t// out\n        /* \"#utility.yul\":676:794   */\n    tag_59:\n        /* \"#utility.yul\":763:787   */\n      tag_91\n        /* \"#utility.yul\":781:786   */\n      dup2\n        /* \"#utility.yul\":763:787   */\n      tag_58\n      jump\t// in\n    tag_91:\n        /* \"#utility.yul\":758:761   */\n      dup3\n        /* \"#utility.yul\":751:788   */\n      mstore\n        /* \"#utility.yul\":676:794   */\n      pop\n      pop\n      jump\t// out\n        /* \"#utility.yul\":800:943   */\n    tag_60:\n        /* \"#utility.yul\":896:902   */\n      0x00\n        /* \"#utility.yul\":930:935   */\n      dup2\n        /* \"#utility.yul\":924:936   */\n      mload\n        /* \"#utility.yul\":914:936   */\n      swap1\n      pop\n        /* \"#utility.yul\":800:943   */\n      swap2\n      swap1\n      pop\n      jump\t// out\n        /* \"#utility.yul\":949:1162   */\n    tag_61:\n        /* \"#utility.yul\":1077:1088   */\n      0x00\n        /* \"#utility.yul\":1111:1117   */\n      dup3\n        /* \"#utility.yul\":1106:1109   */\n      dup3\n        /* \"#utility.yul\":1099:1118   */\n      mstore\n        /* \"#utility.yul\":1151:1155   */\n      0x20\n        /* \"#utility.yul\":1146:1149   */\n      dup3\n        /* \"#utility.yul\":1142:1156   */\n      add\n        /* \"#utility.yul\":1127:1156   */\n      swap1\n      pop\n        /* \"#utility.yul\":949:1162   */\n      swap3\n      swap2\n      pop\n      pop\n      jump\t// out\n        /* \"#utility.yul\":1168:1329   */\n    tag_62:\n        /* \"#utility.yul\":1264:1268   */\n      0x00\n        /* \"#utility.yul\":1287:1290   */\n      dup2\n        /* \"#utility.yul\":1279:1290   */\n      swap1\n      pop\n        /* \"#utility.yul\":1317:1321   */\n      0x20\n        /* \"#utility.yul\":1312:1315   */\n      dup3\n        /* \"#utility.yul\":1308:1322   */\n      add\n        /* \"#utility.yul\":1300:1322   */\n      swap1\n      pop\n        /* \"#utility.yul\":1168:1329   */\n      swap2\n      swap1\n      pop\n      jump\t// out\n        /* \"#utility.yul\":1335:1443   */\n    tag_63:\n        /* \"#utility.yul\":1412:1436   */\n      tag_96\n        /* \"#utility.yul\":1430:1435   */\n      dup2\n        /* \"#utility.yul\":1412:1436   */\n      tag_56\n      jump\t// in\n    tag_96:\n        /* \"#utility.yul\":1407:1410   */\n      dup3\n        /* \"#utility.yul\":1400:1437   */\n      mstore\n        /* \"#utility.yul\":1335:1443   */\n      pop\n      pop\n      jump\t// out\n        /* \"#utility.yul\":1449:1557   */\n    tag_64:\n        /* \"#utility.yul\":1526:1550   */\n      tag_98\n        /* \"#utility.yul\":1544:1549   */\n      dup2\n        /* \"#utility.yul\":1526:1550   */\n      tag_58\n      jump\t// in\n    tag_98:\n        /* \"#utility.yul\":1521:1524   */\n      dup3\n        /* \"#utility.yul\":1514:1551   */\n      mstore\n        /* \"#utility.yul\":1449:1557   */\n      pop\n      pop\n      jump\t// out\n        /* \"#utility.yul\":1615:2123   */\n    tag_65:\n        /* \"#utility.yul\":1760:1764   */\n      0x40\n        /* \"#utility.yul\":1755:1758   */\n      dup3\n        /* \"#utility.yul\":1751:1765   */\n      add\n        /* \"#utility.yul\":1847:1851   */\n      0x00\n        /* \"#utility.yul\":1840:1845   */\n      dup3\n        /* \"#utility.yul\":1836:1852   */\n      add\n        /* \"#utility.yul\":1830:1853   */\n      mload\n        /* \"#utility.yul\":1866:1929   */\n      tag_100\n        /* \"#utility.yul\":1923:1927   */\n      0x00\n        /* \"#utility.yul\":1918:1921   */\n      dup6\n        /* \"#utility.yul\":1914:1928   */\n      add\n        /* \"#utility.yul\":1900:1912   */\n      dup3\n        /* \"#utility.yul\":1866:1929   */\n      tag_63\n      jump\t// in\n    tag_100:\n        /* \"#utility.yul\":1775:1939   */\n      pop\n        /* \"#utility.yul\":2024:2028   */\n      0x20\n        /* \"#utility.yul\":2017:2022   */\n      dup3\n        /* \"#utility.yul\":2013:2029   */\n      add\n        /* \"#utility.yul\":2007:2030   */\n      mload\n        /* \"#utility.yul\":2043:2106   */\n      tag_101\n        /* \"#utility.yul\":2100:2104   */\n      0x20\n        /* \"#utility.yul\":2095:2098   */\n      dup6\n        /* \"#utility.yul\":2091:2105   */\n      add\n        /* \"#utility.yul\":2077:2089   */\n      dup3\n        /* \"#utility.yul\":2043:2106   */\n      tag_64\n      jump\t// in\n    tag_101:\n        /* \"#utility.yul\":1949:2116   */\n      pop\n        /* \"#utility.yul\":1729:2123   */\n      pop\n        /* \"#utility.yul\":1615:2123   */\n      pop\n      pop\n      jump\t// out\n        /* \"#utility.yul\":2129:2424   */\n    tag_66:\n        /* \"#utility.yul\":2256:2266   */\n      0x00\n        /* \"#utility.yul\":2277:2381   */\n      tag_103\n        /* \"#utility.yul\":2377:2380   */\n      dup4\n        /* \"#utility.yul\":2369:2375   */\n      dup4\n        /* \"#utility.yul\":2277:2381   */\n      tag_65\n      jump\t// in\n    tag_103:\n        /* \"#utility.yul\":2413:2417   */\n      0x40\n        /* \"#utility.yul\":2408:2411   */\n      dup4\n        /* \"#utility.yul\":2404:2418   */\n      add\n        /* \"#utility.yul\":2390:2418   */\n      swap1\n      pop\n        /* \"#utility.yul\":2129:2424   */\n      swap3\n      swap2\n      pop\n      pop\n      jump\t// out\n        /* \"#utility.yul\":2430:2572   */\n    tag_67:\n        /* \"#utility.yul\":2529:2533   */\n      0x00\n        /* \"#utility.yul\":2561:2565   */\n      0x20\n        /* \"#utility.yul\":2556:2559   */\n      dup3\n        /* \"#utility.yul\":2552:2566   */\n      add\n        /* \"#utility.yul\":2544:2566   */\n      swap1\n      pop\n        /* \"#utility.yul\":2430:2572   */\n      swap2\n      swap1\n      pop\n      jump\t// out\n        /* \"#utility.yul\":2634:3598   */\n    tag_68:\n        /* \"#utility.yul\":2811:2814   */\n      0x00\n        /* \"#utility.yul\":2840:2923   */\n      tag_106\n        /* \"#utility.yul\":2917:2922   */\n      dup3\n        /* \"#utility.yul\":2840:2923   */\n      tag_60\n      jump\t// in\n    tag_106:\n        /* \"#utility.yul\":2939:3054   */\n      tag_107\n        /* \"#utility.yul\":3047:3053   */\n      dup2\n        /* \"#utility.yul\":3042:3045   */\n      dup6\n        /* \"#utility.yul\":2939:3054   */\n      tag_61\n      jump\t// in\n    tag_107:\n        /* \"#utility.yul\":2932:3054   */\n      swap4\n      pop\n        /* \"#utility.yul\":3078:3163   */\n      tag_108\n        /* \"#utility.yul\":3157:3162   */\n      dup4\n        /* \"#utility.yul\":3078:3163   */\n      tag_62\n      jump\t// in\n    tag_108:\n        /* \"#utility.yul\":3186:3193   */\n      dup1\n        /* \"#utility.yul\":3217:3218   */\n      0x00\n        /* \"#utility.yul\":3202:3573   */\n    tag_109:\n        /* \"#utility.yul\":3227:3233   */\n      dup4\n        /* \"#utility.yul\":3224:3225   */\n      dup2\n        /* \"#utility.yul\":3221:3234   */\n      lt\n        /* \"#utility.yul\":3202:3573   */\n      iszero\n      tag_111\n      jumpi\n        /* \"#utility.yul\":3303:3309   */\n      dup2\n        /* \"#utility.yul\":3297:3310   */\n      mload\n        /* \"#utility.yul\":3330:3451   */\n      tag_112\n        /* \"#utility.yul\":3447:3450   */\n      dup9\n        /* \"#utility.yul\":3432:3445   */\n      dup3\n        /* \"#utility.yul\":3330:3451   */\n      tag_66\n      jump\t// in\n    tag_112:\n        /* \"#utility.yul\":3323:3451   */\n      swap8\n      pop\n        /* \"#utility.yul\":3474:3563   */\n      tag_113\n        /* \"#utility.yul\":3556:3562   */\n      dup4\n        /* \"#utility.yul\":3474:3563   */\n      tag_67\n      jump\t// in\n    tag_113:\n        /* \"#utility.yul\":3464:3563   */\n      swap3\n      pop\n        /* \"#utility.yul\":3262:3573   */\n      pop\n        /* \"#utility.yul\":3249:3250   */\n      0x01\n        /* \"#utility.yul\":3246:3247   */\n      dup2\n        /* \"#utility.yul\":3242:3251   */\n      add\n        /* \"#utility.yul\":3237:3251   */\n      swap1\n      pop\n        /* \"#utility.yul\":3202:3573   */\n      jump(tag_109)\n    tag_111:\n        /* \"#utility.yul\":3206:3220   */\n      pop\n        /* \"#utility.yul\":3589:3592   */\n      dup6\n        /* \"#utility.yul\":3582:3592   */\n      swap4\n      pop\n        /* \"#utility.yul\":2816:3598   */\n      pop\n      pop\n      pop\n        /* \"#utility.yul\":2634:3598   */\n      swap3\n      swap2\n      pop\n      pop\n      jump\t// out\n        /* \"#utility.yul\":3604:4203   */\n    tag_12:\n        /* \"#utility.yul\":3833:3837   */\n      0x00\n        /* \"#utility.yul\":3871:3873   */\n      0x40\n        /* \"#utility.yul\":3860:3869   */\n      dup3\n        /* \"#utility.yul\":3856:3874   */\n      add\n        /* \"#utility.yul\":3848:3874   */\n      swap1\n      pop\n        /* \"#utility.yul\":3884:3955   */\n      tag_115\n        /* \"#utility.yul\":3952:3953   */\n      0x00\n        /* \"#utility.yul\":3941:3950   */\n      dup4\n        /* \"#utility.yul\":3937:3954   */\n      add\n        /* \"#utility.yul\":3928:3934   */\n      dup6\n        /* \"#utility.yul\":3884:3955   */\n      tag_59\n      jump\t// in\n    tag_115:\n        /* \"#utility.yul\":4002:4011   */\n      dup2\n        /* \"#utility.yul\":3996:4000   */\n      dup2\n        /* \"#utility.yul\":3992:4012   */\n      sub\n        /* \"#utility.yul\":3987:3989   */\n      0x20\n        /* \"#utility.yul\":3976:3985   */\n      dup4\n        /* \"#utility.yul\":3972:3990   */\n      add\n        /* \"#utility.yul\":3965:4013   */\n      mstore\n        /* \"#utility.yul\":4030:4196   */\n      tag_116\n        /* \"#utility.yul\":4191:4195   */\n      dup2\n        /* \"#utility.yul\":4182:4188   */\n      dup5\n        /* \"#utility.yul\":4030:4196   */\n      tag_68\n      jump\t// in\n    tag_116:\n        /* \"#utility.yul\":4022:4196   */\n      swap1\n      pop\n        /* \"#utility.yul\":3604:4203   */\n      swap4\n      swap3\n      pop\n      pop\n      pop\n      jump\t// out\n        /* \"#utility.yul\":4209:4389   */\n    tag_16:\n        /* \"#utility.yul\":4257:4334   */\n      0x4e487b7100000000000000000000000000000000000000000000000000000000\n        /* \"#utility.yul\":4254:4255   */\n      0x00\n        /* \"#utility.yul\":4247:4335   */\n      mstore\n        /* \"#utility.yul\":4354:4358   */\n      0x41\n        /* \"#utility.yul\":4351:4352   */\n      0x04\n        /* \"#utility.yul\":4344:4359   */\n      mstore\n        /* \"#utility.yul\":4378:4382   */\n      0x24\n        /* \"#utility.yul\":4375:4376   */\n      0x00\n        /* \"#utility.yul\":4368:4383   */\n      revert\n        /* \"#utility.yul\":4395:4484   */\n    tag_69:\n        /* \"#utility.yul\":4431:4438   */\n      0x00\n        /* \"#utility.yul\":4471:4477   */\n      0xffff\n        /* \"#utility.yul\":4464:4469   */\n      dup3\n        /* \"#utility.yul\":4460:4478   */\n      and\n        /* \"#utility.yul\":4449:4478   */\n      swap1\n      pop\n        /* \"#utility.yul\":4395:4484   */\n      swap2\n      swap1\n      pop\n      jump\t// out\n        /* \"#utility.yul\":4490:4550   */\n    tag_70:\n        /* \"#utility.yul\":4518:4521   */\n      0x00\n        /* \"#utility.yul\":4539:4544   */\n      dup2\n        /* \"#utility.yul\":4532:4544   */\n      swap1\n      pop\n        /* \"#utility.yul\":4490:4550   */\n      swap2\n      swap1\n      pop\n      jump\t// out\n        /* \"#utility.yul\":4556:4696   */\n    tag_71:\n        /* \"#utility.yul\":4605:4614   */\n      0x00\n        /* \"#utility.yul\":4638:4690   */\n      tag_121\n        /* \"#utility.yul\":4656:4689   */\n      tag_122\n        /* \"#utility.yul\":4665:4688   */\n      tag_123\n        /* \"#utility.yul\":4682:4687   */\n      dup5\n        /* \"#utility.yul\":4665:4688   */\n      tag_69\n      jump\t// in\n    tag_123:\n        /* \"#utility.yul\":4656:4689   */\n      tag_70\n      jump\t// in\n    tag_122:\n        /* \"#utility.yul\":4638:4690   */\n      tag_58\n      jump\t// in\n    tag_121:\n        /* \"#utility.yul\":4625:4690   */\n      swap1\n      pop\n        /* \"#utility.yul\":4556:4696   */\n      swap2\n      swap1\n      pop\n      jump\t// out\n        /* \"#utility.yul\":4702:4831   */\n    tag_72:\n        /* \"#utility.yul\":4788:4824   */\n      tag_125\n        /* \"#utility.yul\":4818:4823   */\n      dup2\n        /* \"#utility.yul\":4788:4824   */\n      tag_71\n      jump\t// in\n    tag_125:\n        /* \"#utility.yul\":4783:4786   */\n      dup3\n        /* \"#utility.yul\":4776:4825   */\n      mstore\n        /* \"#utility.yul\":4702:4831   */\n      pop\n      pop\n      jump\t// out\n        /* \"#utility.yul\":4837:5057   */\n    tag_24:\n        /* \"#utility.yul\":4929:4933   */\n      0x00\n        /* \"#utility.yul\":4967:4969   */\n      0x20\n        /* \"#utility.yul\":4956:4965   */\n      dup3\n        /* \"#utility.yul\":4952:4970   */\n      add\n        /* \"#utility.yul\":4944:4970   */\n      swap1\n      pop\n        /* \"#utility.yul\":4980:5050   */\n      tag_127\n        /* \"#utility.yul\":5047:5048   */\n      0x00\n        /* \"#utility.yul\":5036:5045   */\n      dup4\n        /* \"#utility.yul\":5032:5049   */\n      add\n        /* \"#utility.yul\":5023:5029   */\n      dup5\n        /* \"#utility.yul\":4980:5050   */\n      tag_72\n      jump\t// in\n    tag_127:\n        /* \"#utility.yul\":4837:5057   */\n      swap3\n      swap2\n      pop\n      pop\n      jump\t// out\n        /* \"#utility.yul\":5144:5261   */\n    tag_74:\n        /* \"#utility.yul\":5253:5254   */\n      0x00\n        /* \"#utility.yul\":5250:5251   */\n      dup1\n        /* \"#utility.yul\":5243:5255   */\n      revert\n        /* \"#utility.yul\":5390:5512   */\n    tag_76:\n        /* \"#utility.yul\":5463:5487   */\n      tag_132\n        /* \"#utility.yul\":5481:5486   */\n      dup2\n        /* \"#utility.yul\":5463:5487   */\n      tag_56\n      jump\t// in\n    tag_132:\n        /* \"#utility.yul\":5456:5461   */\n      dup2\n        /* \"#utility.yul\":5453:5488   */\n      eq\n        /* \"#utility.yul\":5443:5506   */\n      tag_133\n      jumpi\n        /* \"#utility.yul\":5502:5503   */\n      0x00\n        /* \"#utility.yul\":5499:5500   */\n      dup1\n        /* \"#utility.yul\":5492:5504   */\n      revert\n        /* \"#utility.yul\":5443:5506   */\n    tag_133:\n        /* \"#utility.yul\":5390:5512   */\n      pop\n      jump\t// out\n        /* \"#utility.yul\":5518:5661   */\n    tag_77:\n        /* \"#utility.yul\":5575:5580   */\n      0x00\n        /* \"#utility.yul\":5606:5612   */\n      dup2\n        /* \"#utility.yul\":5600:5613   */\n      mload\n        /* \"#utility.yul\":5591:5613   */\n      swap1\n      pop\n        /* \"#utility.yul\":5622:5655   */\n      tag_135\n        /* \"#utility.yul\":5649:5654   */\n      dup2\n        /* \"#utility.yul\":5622:5655   */\n      tag_76\n      jump\t// in\n    tag_135:\n        /* \"#utility.yul\":5518:5661   */\n      swap3\n      swap2\n      pop\n      pop\n      jump\t// out\n        /* \"#utility.yul\":5667:6018   */\n    tag_27:\n        /* \"#utility.yul\":5737:5743   */\n      0x00\n        /* \"#utility.yul\":5786:5788   */\n      0x20\n        /* \"#utility.yul\":5774:5783   */\n      dup3\n        /* \"#utility.yul\":5765:5772   */\n      dup5\n        /* \"#utility.yul\":5761:5784   */\n      sub\n        /* \"#utility.yul\":5757:5789   */\n      slt\n        /* \"#utility.yul\":5754:5873   */\n      iszero\n      tag_137\n      jumpi\n        /* \"#utility.yul\":5792:5871   */\n      tag_138\n      tag_74\n      jump\t// in\n    tag_138:\n        /* \"#utility.yul\":5754:5873   */\n    tag_137:\n        /* \"#utility.yul\":5912:5913   */\n      0x00\n        /* \"#utility.yul\":5937:6001   */\n      tag_139\n        /* \"#utility.yul\":5993:6000   */\n      dup5\n        /* \"#utility.yul\":5984:5990   */\n      dup3\n        /* \"#utility.yul\":5973:5982   */\n      dup6\n        /* \"#utility.yul\":5969:5991   */\n      add\n        /* \"#utility.yul\":5937:6001   */\n      tag_77\n      jump\t// in\n    tag_139:\n        /* \"#utility.yul\":5927:6001   */\n      swap2\n      pop\n        /* \"#utility.yul\":5883:6011   */\n      pop\n        /* \"#utility.yul\":5667:6018   */\n      swap3\n      swap2\n      pop\n      pop\n      jump\t// out\n        /* \"#utility.yul\":6024:6146   */\n    tag_78:\n        /* \"#utility.yul\":6097:6121   */\n      tag_141\n        /* \"#utility.yul\":6115:6120   */\n      dup2\n        /* \"#utility.yul\":6097:6121   */\n      tag_58\n      jump\t// in\n    tag_141:\n        /* \"#utility.yul\":6090:6095   */\n      dup2\n        /* \"#utility.yul\":6087:6122   */\n      eq\n        /* \"#utility.yul\":6077:6140   */\n      tag_142\n      jumpi\n        /* \"#utility.yul\":6136:6137   */\n      0x00\n        /* \"#utility.yul\":6133:6134   */\n      dup1\n        /* \"#utility.yul\":6126:6138   */\n      revert\n        /* \"#utility.yul\":6077:6140   */\n    tag_142:\n        /* \"#utility.yul\":6024:6146   */\n      pop\n      jump\t// out\n        /* \"#utility.yul\":6152:6295   */\n    tag_79:\n        /* \"#utility.yul\":6209:6214   */\n      0x00\n        /* \"#utility.yul\":6240:6246   */\n      dup2\n        /* \"#utility.yul\":6234:6247   */\n      mload\n        /* \"#utility.yul\":6225:6247   */\n      swap1\n      pop\n        /* \"#utility.yul\":6256:6289   */\n      tag_144\n        /* \"#utility.yul\":6283:6288   */\n      dup2\n        /* \"#utility.yul\":6256:6289   */\n      tag_78\n      jump\t// in\n    tag_144:\n        /* \"#utility.yul\":6152:6295   */\n      swap3\n      swap2\n      pop\n      pop\n      jump\t// out\n        /* \"#utility.yul\":6301:6652   */\n    tag_37:\n        /* \"#utility.yul\":6371:6377   */\n      0x00\n        /* \"#utility.yul\":6420:6422   */\n      0x20\n        /* \"#utility.yul\":6408:6417   */\n      dup3\n        /* \"#utility.yul\":6399:6406   */\n      dup5\n        /* \"#utility.yul\":6395:6418   */\n      sub\n        /* \"#utility.yul\":6391:6423   */\n      slt\n        /* \"#utility.yul\":6388:6507   */\n      iszero\n      tag_146\n      jumpi\n        /* \"#utility.yul\":6426:6505   */\n      tag_147\n      tag_74\n      jump\t// in\n    tag_147:\n        /* \"#utility.yul\":6388:6507   */\n    tag_146:\n        /* \"#utility.yul\":6546:6547   */\n      0x00\n        /* \"#utility.yul\":6571:6635   */\n      tag_148\n        /* \"#utility.yul\":6627:6634   */\n      dup5\n        /* \"#utility.yul\":6618:6624   */\n      dup3\n        /* \"#utility.yul\":6607:6616   */\n      dup6\n        /* \"#utility.yul\":6603:6625   */\n      add\n        /* \"#utility.yul\":6571:6635   */\n      tag_79\n      jump\t// in\n    tag_148:\n        /* \"#utility.yul\":6561:6635   */\n      swap2\n      pop\n        /* \"#utility.yul\":6517:6645   */\n      pop\n        /* \"#utility.yul\":6301:6652   */\n      swap3\n      swap2\n      pop\n      pop\n      jump\t// out\n        /* \"#utility.yul\":6658:6838   */\n    tag_40:\n        /* \"#utility.yul\":6706:6783   */\n      0x4e487b7100000000000000000000000000000000000000000000000000000000\n        /* \"#utility.yul\":6703:6704   */\n      0x00\n        /* \"#utility.yul\":6696:6784   */\n      mstore\n        /* \"#utility.yul\":6803:6807   */\n      0x32\n        /* \"#utility.yul\":6800:6801   */\n      0x04\n        /* \"#utility.yul\":6793:6808   */\n      mstore\n        /* \"#utility.yul\":6827:6831   */\n      0x24\n        /* \"#utility.yul\":6824:6825   */\n      0x00\n        /* \"#utility.yul\":6817:6832   */\n      revert\n        /* \"#utility.yul\":6844:7024   */\n    tag_80:\n        /* \"#utility.yul\":6892:6969   */\n      0x4e487b7100000000000000000000000000000000000000000000000000000000\n        /* \"#utility.yul\":6889:6890   */\n      0x00\n        /* \"#utility.yul\":6882:6970   */\n      mstore\n        /* \"#utility.yul\":6989:6993   */\n      0x11\n        /* \"#utility.yul\":6986:6987   */\n      0x04\n        /* \"#utility.yul\":6979:6994   */\n      mstore\n        /* \"#utility.yul\":7013:7017   */\n      0x24\n        /* \"#utility.yul\":7010:7011   */\n      0x00\n        /* \"#utility.yul\":7003:7018   */\n      revert\n        /* \"#utility.yul\":7030:7201   */\n    tag_42:\n        /* \"#utility.yul\":7068:7071   */\n      0x00\n        /* \"#utility.yul\":7091:7114   */\n      tag_152\n        /* \"#utility.yul\":7108:7113   */\n      dup3\n        /* \"#utility.yul\":7091:7114   */\n      tag_69\n      jump\t// in\n    tag_152:\n        /* \"#utility.yul\":7082:7114   */\n      swap2\n      pop\n        /* \"#utility.yul\":7136:7142   */\n      0xffff\n        /* \"#utility.yul\":7129:7134   */\n      dup3\n        /* \"#utility.yul\":7126:7143   */\n      sub\n        /* \"#utility.yul\":7123:7166   */\n      tag_153\n      jumpi\n        /* \"#utility.yul\":7146:7164   */\n      tag_154\n      tag_80\n      jump\t// in\n    tag_154:\n        /* \"#utility.yul\":7123:7166   */\n    tag_153:\n        /* \"#utility.yul\":7193:7194   */\n      0x01\n        /* \"#utility.yul\":7186:7191   */\n      dup3\n        /* \"#utility.yul\":7182:7195   */\n      add\n        /* \"#utility.yul\":7175:7195   */\n      swap1\n      pop\n        /* \"#utility.yul\":7030:7201   */\n      swap2\n      swap1\n      pop\n      jump\t// out\n\n    auxdata: 0xa2646970667358221220efa4dce09d96dfc93f7ce28615e12fc718bca7300af5cfa71cf466fbc69928bf64736f6c634300081a0033\n}\n",
				"bytecode": {
					"linkReferences": {},
					"object": "608060405273da41c4ff79c9809c8ee7b5a00cb28c34049d34045f806101000a81548173ffffffffffffffffffffffffffffffffffffffff021916908373ffffffffffffffffffffffffffffffffffffffff1602179055507355ee7ea10fd88dc9fa7bb1fb541083a6d5bcacd260015f6101000a81548173ffffffffffffffffffffffffffffffffffffffff021916908373ffffffffffffffffffffffffffffffffffffffff1602179055503480156100b6575f80fd5b503360025f6101000a81548173ffffffffffffffffffffffffffffffffffffffff021916908373ffffffffffffffffffffffffffffffffffffffff16021790555061071c806101045f395ff3fe608060405234801561000f575f80fd5b5060043610610034575f3560e01c80638da5cb5b14610038578063fed1252a14610056575b5f80fd5b610040610075565b60405161004d91906103d7565b60405180910390f35b61005e61009a565b60405161006c9291906104fb565b60405180910390f35b60025f9054906101000a900473ffffffffffffffffffffffffffffffffffffffff1681565b5f60605f806101f490505f8161ffff1667ffffffffffffffff8111156100c3576100c2610529565b5b6040519080825280602002602001820160405280156100fc57816020015b6100e961036a565b8152602001906001900390816100e15790505b5090505b8161ffff168361ffff1610156102a5575f8054906101000a900473ffffffffffffffffffffffffffffffffffffffff1673ffffffffffffffffffffffffffffffffffffffff1663fd5e6dd1846040518263ffffffff1660e01b8152600401610168919061059c565b602060405180830381865afa9250505080156101a257506040513d601f19601f8201168201806040525081019061019f91906105e3565b60015b156102a5575f60015f9054906101000a900473ffffffffffffffffffffffffffffffffffffffff1673ffffffffffffffffffffffffffffffffffffffff166370a08231836040518263ffffffff1660e01b815260040161020291906103d7565b602060405180830381865afa15801561021d573d5f803e3d5ffd5b505050506040513d601f19601f820116820180604052508101906102419190610638565b905060405180604001604052808373ffffffffffffffffffffffffffffffffffffffff16815260200182815250838661ffff168151811061028557610284610663565b5b6020026020010181905250848061029b906106bd565b9550505050610100565b5f8361ffff1667ffffffffffffffff8111156102c4576102c3610529565b5b6040519080825280602002602001820160405280156102fd57816020015b6102ea61036a565b8152602001906001900390816102e25790505b5090505f5b8461ffff168110156103545782818151811061032157610320610663565b5b602002602001015182828151811061033c5761033b610663565b5b60200260200101819052508080600101915050610302565b5083818161ffff16915095509550505050509091565b60405180604001604052805f73ffffffffffffffffffffffffffffffffffffffff1681526020015f81525090565b5f73ffffffffffffffffffffffffffffffffffffffff82169050919050565b5f6103c182610398565b9050919050565b6103d1816103b7565b82525050565b5f6020820190506103ea5f8301846103c8565b92915050565b5f819050919050565b610402816103f0565b82525050565b5f81519050919050565b5f82825260208201905092915050565b5f819050602082019050919050565b61043a816103b7565b82525050565b610449816103f0565b82525050565b604082015f8201516104635f850182610431565b5060208201516104766020850182610440565b50505050565b5f610487838361044f565b60408301905092915050565b5f602082019050919050565b5f6104a982610408565b6104b38185610412565b93506104be83610422565b805f5b838110156104ee5781516104d5888261047c565b97506104e083610493565b9250506001810190506104c1565b5085935050505092915050565b5f60408201905061050e5f8301856103f9565b8181036020830152610520818461049f565b90509392505050565b7f4e487b71000000000000000000000000000000000000000000000000000000005f52604160045260245ffd5b5f61ffff82169050919050565b5f819050919050565b5f61058661058161057c84610556565b610563565b6103f0565b9050919050565b6105968161056c565b82525050565b5f6020820190506105af5f83018461058d565b92915050565b5f80fd5b6105c2816103b7565b81146105cc575f80fd5b50565b5f815190506105dd816105b9565b92915050565b5f602082840312156105f8576105f76105b5565b5b5f610605848285016105cf565b91505092915050565b610617816103f0565b8114610621575f80fd5b50565b5f815190506106328161060e565b92915050565b5f6020828403121561064d5761064c6105b5565b5b5f61065a84828501610624565b91505092915050565b7f4e487b71000000000000000000000000000000000000000000000000000000005f52603260045260245ffd5b7f4e487b71000000000000000000000000000000000000000000000000000000005f52601160045260245ffd5b5f6106c782610556565b915061ffff82036106db576106da610690565b5b60018201905091905056fea2646970667358221220efa4dce09d96dfc93f7ce28615e12fc718bca7300af5cfa71cf466fbc69928bf64736f6c634300081a0033",
					"opcodes": "PUSH1 0x80 PUSH1 0x40 MSTORE PUSH20 0xDA41C4FF79C9809C8EE7B5A00CB28C34049D3404 PUSH0 DUP1 PUSH2 0x100 EXP DUP2 SLOAD DUP2 PUSH20 0xFFFFFFFFFFFFFFFFFFFFFFFFFFFFFFFFFFFFFFFF MUL NOT AND SWAP1 DUP4 PUSH20 0xFFFFFFFFFFFFFFFFFFFFFFFFFFFFFFFFFFFFFFFF AND MUL OR SWAP1 SSTORE POP PUSH20 0x55EE7EA10FD88DC9FA7BB1FB541083A6D5BCACD2 PUSH1 0x1 PUSH0 PUSH2 0x100 EXP DUP2 SLOAD DUP2 PUSH20 0xFFFFFFFFFFFFFFFFFFFFFFFFFFFFFFFFFFFFFFFF MUL NOT AND SWAP1 DUP4 PUSH20 0xFFFFFFFFFFFFFFFFFFFFFFFFFFFFFFFFFFFFFFFF AND MUL OR SWAP1 SSTORE POP CALLVALUE DUP1 ISZERO PUSH2 0xB6 JUMPI PUSH0 DUP1 REVERT JUMPDEST POP CALLER PUSH1 0x2 PUSH0 PUSH2 0x100 EXP DUP2 SLOAD DUP2 PUSH20 0xFFFFFFFFFFFFFFFFFFFFFFFFFFFFFFFFFFFFFFFF MUL NOT AND SWAP1 DUP4 PUSH20 0xFFFFFFFFFFFFFFFFFFFFFFFFFFFFFFFFFFFFFFFF AND MUL OR SWAP1 SSTORE POP PUSH2 0x71C DUP1 PUSH2 0x104 PUSH0 CODECOPY PUSH0 RETURN INVALID PUSH1 0x80 PUSH1 0x40 MSTORE CALLVALUE DUP1 ISZERO PUSH2 0xF JUMPI PUSH0 DUP1 REVERT JUMPDEST POP PUSH1 0x4 CALLDATASIZE LT PUSH2 0x34 JUMPI PUSH0 CALLDATALOAD PUSH1 0xE0 SHR DUP1 PUSH4 0x8DA5CB5B EQ PUSH2 0x38 JUMPI DUP1 PUSH4 0xFED1252A EQ PUSH2 0x56 JUMPI JUMPDEST PUSH0 DUP1 REVERT JUMPDEST PUSH2 0x40 PUSH2 0x75 JUMP JUMPDEST PUSH1 0x40 MLOAD PUSH2 0x4D SWAP2 SWAP1 PUSH2 0x3D7 JUMP JUMPDEST PUSH1 0x40 MLOAD DUP1 SWAP2 SUB SWAP1 RETURN JUMPDEST PUSH2 0x5E PUSH2 0x9A JUMP JUMPDEST PUSH1 0x40 MLOAD PUSH2 0x6C SWAP3 SWAP2 SWAP1 PUSH2 0x4FB JUMP JUMPDEST PUSH1 0x40 MLOAD DUP1 SWAP2 SUB SWAP1 RETURN JUMPDEST PUSH1 0x2 PUSH0 SWAP1 SLOAD SWAP1 PUSH2 0x100 EXP SWAP1 DIV PUSH20 0xFFFFFFFFFFFFFFFFFFFFFFFFFFFFFFFFFFFFFFFF AND DUP2 JUMP JUMPDEST PUSH0 PUSH1 0x60 PUSH0 DUP1 PUSH2 0x1F4 SWAP1 POP PUSH0 DUP2 PUSH2 0xFFFF AND PUSH8 0xFFFFFFFFFFFFFFFF DUP2 GT ISZERO PUSH2 0xC3 JUMPI PUSH2 0xC2 PUSH2 0x529 JUMP JUMPDEST JUMPDEST PUSH1 0x40 MLOAD SWAP1 DUP1 DUP3 MSTORE DUP1 PUSH1 0x20 MUL PUSH1 0x20 ADD DUP3 ADD PUSH1 0x40 MSTORE DUP1 ISZERO PUSH2 0xFC JUMPI DUP2 PUSH1 0x20 ADD JUMPDEST PUSH2 0xE9 PUSH2 0x36A JUMP JUMPDEST DUP2 MSTORE PUSH1 0x20 ADD SWAP1 PUSH1 0x1 SWAP1 SUB SWAP1 DUP2 PUSH2 0xE1 JUMPI SWAP1 POP JUMPDEST POP SWAP1 POP JUMPDEST DUP2 PUSH2 0xFFFF AND DUP4 PUSH2 0xFFFF AND LT ISZERO PUSH2 0x2A5 JUMPI PUSH0 DUP1 SLOAD SWAP1 PUSH2 0x100 EXP SWAP1 DIV PUSH20 0xFFFFFFFFFFFFFFFFFFFFFFFFFFFFFFFFFFFFFFFF AND PUSH20 0xFFFFFFFFFFFFFFFFFFFFFFFFFFFFFFFFFFFFFFFF AND PUSH4 0xFD5E6DD1 DUP5 PUSH1 0x40 MLOAD DUP3 PUSH4 0xFFFFFFFF AND PUSH1 0xE0 SHL DUP2 MSTORE PUSH1 0x4 ADD PUSH2 0x168 SWAP2 SWAP1 PUSH2 0x59C JUMP JUMPDEST PUSH1 0x20 PUSH1 0x40 MLOAD DUP1 DUP4 SUB DUP2 DUP7 GAS STATICCALL SWAP3 POP POP POP DUP1 ISZERO PUSH2 0x1A2 JUMPI POP PUSH1 0x40 MLOAD RETURNDATASIZE PUSH1 0x1F NOT PUSH1 0x1F DUP3 ADD AND DUP3 ADD DUP1 PUSH1 0x40 MSTORE POP DUP2 ADD SWAP1 PUSH2 0x19F SWAP2 SWAP1 PUSH2 0x5E3 JUMP JUMPDEST PUSH1 0x1 JUMPDEST ISZERO PUSH2 0x2A5 JUMPI PUSH0 PUSH1 0x1 PUSH0 SWAP1 SLOAD SWAP1 PUSH2 0x100 EXP SWAP1 DIV PUSH20 0xFFFFFFFFFFFFFFFFFFFFFFFFFFFFFFFFFFFFFFFF AND PUSH20 0xFFFFFFFFFFFFFFFFFFFFFFFFFFFFFFFFFFFFFFFF AND PUSH4 0x70A08231 DUP4 PUSH1 0x40 MLOAD DUP3 PUSH4 0xFFFFFFFF AND PUSH1 0xE0 SHL DUP2 MSTORE PUSH1 0x4 ADD PUSH2 0x202 SWAP2 SWAP1 PUSH2 0x3D7 JUMP JUMPDEST PUSH1 0x20 PUSH1 0x40 MLOAD DUP1 DUP4 SUB DUP2 DUP7 GAS STATICCALL ISZERO DUP1 ISZERO PUSH2 0x21D JUMPI RETURNDATASIZE PUSH0 DUP1 RETURNDATACOPY RETURNDATASIZE PUSH0 REVERT JUMPDEST POP POP POP POP PUSH1 0x40 MLOAD RETURNDATASIZE PUSH1 0x1F NOT PUSH1 0x1F DUP3 ADD AND DUP3 ADD DUP1 PUSH1 0x40 MSTORE POP DUP2 ADD SWAP1 PUSH2 0x241 SWAP2 SWAP1 PUSH2 0x638 JUMP JUMPDEST SWAP1 POP PUSH1 0x40 MLOAD DUP1 PUSH1 0x40 ADD PUSH1 0x40 MSTORE DUP1 DUP4 PUSH20 0xFFFFFFFFFFFFFFFFFFFFFFFFFFFFFFFFFFFFFFFF AND DUP2 MSTORE PUSH1 0x20 ADD DUP3 DUP2 MSTORE POP DUP4 DUP7 PUSH2 0xFFFF AND DUP2 MLOAD DUP2 LT PUSH2 0x285 JUMPI PUSH2 0x284 PUSH2 0x663 JUMP JUMPDEST JUMPDEST PUSH1 0x20 MUL PUSH1 0x20 ADD ADD DUP2 SWAP1 MSTORE POP DUP5 DUP1 PUSH2 0x29B SWAP1 PUSH2 0x6BD JUMP JUMPDEST SWAP6 POP POP POP POP PUSH2 0x100 JUMP JUMPDEST PUSH0 DUP4 PUSH2 0xFFFF AND PUSH8 0xFFFFFFFFFFFFFFFF DUP2 GT ISZERO PUSH2 0x2C4 JUMPI PUSH2 0x2C3 PUSH2 0x529 JUMP JUMPDEST JUMPDEST PUSH1 0x40 MLOAD SWAP1 DUP1 DUP3 MSTORE DUP1 PUSH1 0x20 MUL PUSH1 0x20 ADD DUP3 ADD PUSH1 0x40 MSTORE DUP1 ISZERO PUSH2 0x2FD JUMPI DUP2 PUSH1 0x20 ADD JUMPDEST PUSH2 0x2EA PUSH2 0x36A JUMP JUMPDEST DUP2 MSTORE PUSH1 0x20 ADD SWAP1 PUSH1 0x1 SWAP1 SUB SWAP1 DUP2 PUSH2 0x2E2 JUMPI SWAP1 POP JUMPDEST POP SWAP1 POP PUSH0 JUMPDEST DUP5 PUSH2 0xFFFF AND DUP2 LT ISZERO PUSH2 0x354 JUMPI DUP3 DUP2 DUP2 MLOAD DUP2 LT PUSH2 0x321 JUMPI PUSH2 0x320 PUSH2 0x663 JUMP JUMPDEST JUMPDEST PUSH1 0x20 MUL PUSH1 0x20 ADD ADD MLOAD DUP3 DUP3 DUP2 MLOAD DUP2 LT PUSH2 0x33C JUMPI PUSH2 0x33B PUSH2 0x663 JUMP JUMPDEST JUMPDEST PUSH1 0x20 MUL PUSH1 0x20 ADD ADD DUP2 SWAP1 MSTORE POP DUP1 DUP1 PUSH1 0x1 ADD SWAP2 POP POP PUSH2 0x302 JUMP JUMPDEST POP DUP4 DUP2 DUP2 PUSH2 0xFFFF AND SWAP2 POP SWAP6 POP SWAP6 POP POP POP POP POP SWAP1 SWAP2 JUMP JUMPDEST PUSH1 0x40 MLOAD DUP1 PUSH1 0x40 ADD PUSH1 0x40 MSTORE DUP1 PUSH0 PUSH20 0xFFFFFFFFFFFFFFFFFFFFFFFFFFFFFFFFFFFFFFFF AND DUP2 MSTORE PUSH1 0x20 ADD PUSH0 DUP2 MSTORE POP SWAP1 JUMP JUMPDEST PUSH0 PUSH20 0xFFFFFFFFFFFFFFFFFFFFFFFFFFFFFFFFFFFFFFFF DUP3 AND SWAP1 POP SWAP2 SWAP1 POP JUMP JUMPDEST PUSH0 PUSH2 0x3C1 DUP3 PUSH2 0x398 JUMP JUMPDEST SWAP1 POP SWAP2 SWAP1 POP JUMP JUMPDEST PUSH2 0x3D1 DUP2 PUSH2 0x3B7 JUMP JUMPDEST DUP3 MSTORE POP POP JUMP JUMPDEST PUSH0 PUSH1 0x20 DUP3 ADD SWAP1 POP PUSH2 0x3EA PUSH0 DUP4 ADD DUP5 PUSH2 0x3C8 JUMP JUMPDEST SWAP3 SWAP2 POP POP JUMP JUMPDEST PUSH0 DUP2 SWAP1 POP SWAP2 SWAP1 POP JUMP JUMPDEST PUSH2 0x402 DUP2 PUSH2 0x3F0 JUMP JUMPDEST DUP3 MSTORE POP POP JUMP JUMPDEST PUSH0 DUP2 MLOAD SWAP1 POP SWAP2 SWAP1 POP JUMP JUMPDEST PUSH0 DUP3 DUP3 MSTORE PUSH1 0x20 DUP3 ADD SWAP1 POP SWAP3 SWAP2 POP POP JUMP JUMPDEST PUSH0 DUP2 SWAP1 POP PUSH1 0x20 DUP3 ADD SWAP1 POP SWAP2 SWAP1 POP JUMP JUMPDEST PUSH2 0x43A DUP2 PUSH2 0x3B7 JUMP JUMPDEST DUP3 MSTORE POP POP JUMP JUMPDEST PUSH2 0x449 DUP2 PUSH2 0x3F0 JUMP JUMPDEST DUP3 MSTORE POP POP JUMP JUMPDEST PUSH1 0x40 DUP3 ADD PUSH0 DUP3 ADD MLOAD PUSH2 0x463 PUSH0 DUP6 ADD DUP3 PUSH2 0x431 JUMP JUMPDEST POP PUSH1 0x20 DUP3 ADD MLOAD PUSH2 0x476 PUSH1 0x20 DUP6 ADD DUP3 PUSH2 0x440 JUMP JUMPDEST POP POP POP POP JUMP JUMPDEST PUSH0 PUSH2 0x487 DUP4 DUP4 PUSH2 0x44F JUMP JUMPDEST PUSH1 0x40 DUP4 ADD SWAP1 POP SWAP3 SWAP2 POP POP JUMP JUMPDEST PUSH0 PUSH1 0x20 DUP3 ADD SWAP1 POP SWAP2 SWAP1 POP JUMP JUMPDEST PUSH0 PUSH2 0x4A9 DUP3 PUSH2 0x408 JUMP JUMPDEST PUSH2 0x4B3 DUP2 DUP6 PUSH2 0x412 JUMP JUMPDEST SWAP4 POP PUSH2 0x4BE DUP4 PUSH2 0x422 JUMP JUMPDEST DUP1 PUSH0 JUMPDEST DUP4 DUP2 LT ISZERO PUSH2 0x4EE JUMPI DUP2 MLOAD PUSH2 0x4D5 DUP9 DUP3 PUSH2 0x47C JUMP JUMPDEST SWAP8 POP PUSH2 0x4E0 DUP4 PUSH2 0x493 JUMP JUMPDEST SWAP3 POP POP PUSH1 0x1 DUP2 ADD SWAP1 POP PUSH2 0x4C1 JUMP JUMPDEST POP DUP6 SWAP4 POP POP POP POP SWAP3 SWAP2 POP POP JUMP JUMPDEST PUSH0 PUSH1 0x40 DUP3 ADD SWAP1 POP PUSH2 0x50E PUSH0 DUP4 ADD DUP6 PUSH2 0x3F9 JUMP JUMPDEST DUP2 DUP2 SUB PUSH1 0x20 DUP4 ADD MSTORE PUSH2 0x520 DUP2 DUP5 PUSH2 0x49F JUMP JUMPDEST SWAP1 POP SWAP4 SWAP3 POP POP POP JUMP JUMPDEST PUSH32 0x4E487B7100000000000000000000000000000000000000000000000000000000 PUSH0 MSTORE PUSH1 0x41 PUSH1 0x4 MSTORE PUSH1 0x24 PUSH0 REVERT JUMPDEST PUSH0 PUSH2 0xFFFF DUP3 AND SWAP1 POP SWAP2 SWAP1 POP JUMP JUMPDEST PUSH0 DUP2 SWAP1 POP SWAP2 SWAP1 POP JUMP JUMPDEST PUSH0 PUSH2 0x586 PUSH2 0x581 PUSH2 0x57C DUP5 PUSH2 0x556 JUMP JUMPDEST PUSH2 0x563 JUMP JUMPDEST PUSH2 0x3F0 JUMP JUMPDEST SWAP1 POP SWAP2 SWAP1 POP JUMP JUMPDEST PUSH2 0x596 DUP2 PUSH2 0x56C JUMP JUMPDEST DUP3 MSTORE POP POP JUMP JUMPDEST PUSH0 PUSH1 0x20 DUP3 ADD SWAP1 POP PUSH2 0x5AF PUSH0 DUP4 ADD DUP5 PUSH2 0x58D JUMP JUMPDEST SWAP3 SWAP2 POP POP JUMP JUMPDEST PUSH0 DUP1 REVERT JUMPDEST PUSH2 0x5C2 DUP2 PUSH2 0x3B7 JUMP JUMPDEST DUP2 EQ PUSH2 0x5CC JUMPI PUSH0 DUP1 REVERT JUMPDEST POP JUMP JUMPDEST PUSH0 DUP2 MLOAD SWAP1 POP PUSH2 0x5DD DUP2 PUSH2 0x5B9 JUMP JUMPDEST SWAP3 SWAP2 POP POP JUMP JUMPDEST PUSH0 PUSH1 0x20 DUP3 DUP5 SUB SLT ISZERO PUSH2 0x5F8 JUMPI PUSH2 0x5F7 PUSH2 0x5B5 JUMP JUMPDEST JUMPDEST PUSH0 PUSH2 0x605 DUP5 DUP3 DUP6 ADD PUSH2 0x5CF JUMP JUMPDEST SWAP2 POP POP SWAP3 SWAP2 POP POP JUMP JUMPDEST PUSH2 0x617 DUP2 PUSH2 0x3F0 JUMP JUMPDEST DUP2 EQ PUSH2 0x621 JUMPI PUSH0 DUP1 REVERT JUMPDEST POP JUMP JUMPDEST PUSH0 DUP2 MLOAD SWAP1 POP PUSH2 0x632 DUP2 PUSH2 0x60E JUMP JUMPDEST SWAP3 SWAP2 POP POP JUMP JUMPDEST PUSH0 PUSH1 0x20 DUP3 DUP5 SUB SLT ISZERO PUSH2 0x64D JUMPI PUSH2 0x64C PUSH2 0x5B5 JUMP JUMPDEST JUMPDEST PUSH0 PUSH2 0x65A DUP5 DUP3 DUP6 ADD PUSH2 0x624 JUMP JUMPDEST SWAP2 POP POP SWAP3 SWAP2 POP POP JUMP JUMPDEST PUSH32 0x4E487B7100000000000000000000000000000000000000000000000000000000 PUSH0 MSTORE PUSH1 0x32 PUSH1 0x4 MSTORE PUSH1 0x24 PUSH0 REVERT JUMPDEST PUSH32 0x4E487B7100000000000000000000000000000000000000000000000000000000 PUSH0 MSTORE PUSH1 0x11 PUSH1 0x4 MSTORE PUSH1 0x24 PUSH0 REVERT JUMPDEST PUSH0 PUSH2 0x6C7 DUP3 PUSH2 0x556 JUMP JUMPDEST SWAP2 POP PUSH2 0xFFFF DUP3 SUB PUSH2 0x6DB JUMPI PUSH2 0x6DA PUSH2 0x690 JUMP JUMPDEST JUMPDEST PUSH1 0x1 DUP3 ADD SWAP1 POP SWAP2 SWAP1 POP JUMP INVALID LOG2 PUSH5 0x6970667358 0x22 SLT KECCAK256 0xEF LOG4 0xDC 0xE0 SWAP14 SWAP7 0xDF 0xC9 EXTCODEHASH PUSH29 0xE28615E12FC718BCA7300AF5CFA71CF466FBC69928BF64736F6C634300 ADDMOD BYTE STOP CALLER "
				},
				"gasEstimates": {
					"creation": {
						"codeDepositCost": "364000",
						"executionCost": "73194",
						"totalCost": "437194"
					},
					"external": {
						"owner()": "2486",
						"stakers()": "infinite"
					}
				},
				"methodIdentifiers": {
					"owner()": "8da5cb5b",
					"stakers()": "fed1252a"
				}
			},
			"storageLayout": {
				"storage": [
					{
						"astId": 25,
						"contract": "contracts/5_EAIStakingRanks.sol:Ranks",
						"label": "eaistaking",
						"offset": 0,
						"slot": "0",
						"type": "t_address"
					},
					{
						"astId": 28,
						"contract": "contracts/5_EAIStakingRanks.sol:Ranks",
						"label": "tdeai",
						"offset": 0,
						"slot": "1",
						"type": "t_address"
					},
					{
						"astId": 30,
						"contract": "contracts/5_EAIStakingRanks.sol:Ranks",
						"label": "owner",
						"offset": 0,
						"slot": "2",
						"type": "t_address"
					}
				],
				"types": {
					"t_address": {
						"encoding": "inplace",
						"label": "address",
						"numberOfBytes": "20"
					}
				}
			},
			"userdoc": {
				"kind": "user",
				"methods": {},
				"version": 1
			}
		}
	}
}