{
	"contracts/stakers.sol": {
		"EAIUtilities": {
			"abi": [
				{
					"inputs": [],
					"stateMutability": "nonpayable",
					"type": "constructor"
				},
				{
					"inputs": [
						{
							"internalType": "address",
							"name": "wallet",
							"type": "address"
						}
					],
					"name": "getTier",
					"outputs": [
						{
							"internalType": "string",
							"name": "",
							"type": "string"
						},
						{
							"internalType": "uint256",
							"name": "",
							"type": "uint256"
						},
						{
							"internalType": "uint256",
							"name": "",
							"type": "uint256"
						}
					],
					"stateMutability": "view",
					"type": "function"
				},
				{
					"inputs": [],
					"name": "owner",
					"outputs": [
						{
							"internalType": "address",
							"name": "",
							"type": "address"
						}
					],
					"stateMutability": "view",
					"type": "function"
				},
				{
					"inputs": [],
					"name": "stakers",
					"outputs": [
						{
							"internalType": "uint256",
							"name": "totalStakers",
							"type": "uint256"
						},
						{
							"components": [
								{
									"internalType": "address",
									"name": "user",
									"type": "address"
								},
								{
									"internalType": "uint256",
									"name": "balance",
									"type": "uint256"
								}
							],
							"internalType": "struct WalletBalance[]",
							"name": "wallets",
							"type": "tuple[]"
						}
					],
					"stateMutability": "view",
					"type": "function"
				}
			],
			"devdoc": {
				"kind": "dev",
				"methods": {
					"getTier(address)": {
						"details": "Checks the EAI and tdEAI holding of a wallet and returns the balance as well as tier wallet falls"
					},
					"stakers()": {
						"details": "Get a list of all stakers and checks how much tdEAI each wallet holds"
					}
				},
				"version": 1
			},
			"evm": {
				"assembly": "    /* \"contracts/stakers.sol\":301:2319  contract EAIUtilities {... */\n  mstore(0x40, 0x80)\n    /* \"contracts/stakers.sol\":351:393  0x6797B6244fA75F2e78cDFfC3a4eb169332b730cc */\n  0x6797b6244fa75f2e78cdffc3a4eb169332b730cc\n    /* \"contracts/stakers.sol\":329:393  address private eai = 0x6797B6244fA75F2e78cDFfC3a4eb169332b730cc */\n  0x00\n  dup1\n  0x0100\n  exp\n  dup2\n  sload\n  dup2\n  0xffffffffffffffffffffffffffffffffffffffff\n  mul\n  not\n  and\n  swap1\n  dup4\n  0xffffffffffffffffffffffffffffffffffffffff\n  and\n  mul\n  or\n  swap1\n  sstore\n  pop\n    /* \"contracts/stakers.sol\":428:470  0x18f8D9193af3bbE7f79100DafC0aa40421f8036E */\n  0x18f8d9193af3bbe7f79100dafc0aa40421f8036e\n    /* \"contracts/stakers.sol\":399:470  address private eaistaking = 0x18f8D9193af3bbE7f79100DafC0aa40421f8036E */\n  0x01\n  exp(0x0100, 0x00)\n  dup2\n  sload\n  dup2\n  0xffffffffffffffffffffffffffffffffffffffff\n  mul\n  not\n  and\n  swap1\n  dup4\n  0xffffffffffffffffffffffffffffffffffffffff\n  and\n  mul\n  or\n  swap1\n  sstore\n  pop\n    /* \"contracts/stakers.sol\":500:542  0x4342f4BC5375eCaF56fDf8b5294dE5DbC0fBe889 */\n  0x4342f4bc5375ecaf56fdf8b5294de5dbc0fbe889\n    /* \"contracts/stakers.sol\":476:542  address private tdeai = 0x4342f4BC5375eCaF56fDf8b5294dE5DbC0fBe889 */\n  0x02\n  exp(0x0100, 0x00)\n  dup2\n  sload\n  dup2\n  0xffffffffffffffffffffffffffffffffffffffff\n  mul\n  not\n  and\n  swap1\n  dup4\n  0xffffffffffffffffffffffffffffffffffffffff\n  and\n  mul\n  or\n  swap1\n  sstore\n  pop\n    /* \"contracts/stakers.sol\":575:624  constructor() {... */\n  callvalue\n  dup1\n  iszero\n  tag_1\n  jumpi\n  0x00\n  dup1\n  revert\ntag_1:\n  pop\n    /* \"contracts/stakers.sol\":607:617  msg.sender */\n  caller\n    /* \"contracts/stakers.sol\":599:604  owner */\n  0x03\n  0x00\n    /* \"contracts/stakers.sol\":599:617  owner = msg.sender */\n  0x0100\n  exp\n  dup2\n  sload\n  dup2\n  0xffffffffffffffffffffffffffffffffffffffff\n  mul\n  not\n  and\n  swap1\n  dup4\n  0xffffffffffffffffffffffffffffffffffffffff\n  and\n  mul\n  or\n  swap1\n  sstore\n  pop\n    /* \"contracts/stakers.sol\":301:2319  contract EAIUtilities {... */\n  dataSize(sub_0)\n  dup1\n  dataOffset(sub_0)\n  0x00\n  codecopy\n  0x00\n  return\nstop\n\nsub_0: assembly {\n        /* \"contracts/stakers.sol\":301:2319  contract EAIUtilities {... */\n      mstore(0x40, 0x80)\n      callvalue\n      dup1\n      iszero\n      tag_1\n      jumpi\n      0x00\n      dup1\n      revert\n    tag_1:\n      pop\n      jumpi(tag_2, lt(calldatasize, 0x04))\n      shr(0xe0, calldataload(0x00))\n      dup1\n      0x8da5cb5b\n      eq\n      tag_3\n      jumpi\n      dup1\n      0xb45aae52\n      eq\n      tag_4\n      jumpi\n      dup1\n      0xfed1252a\n      eq\n      tag_5\n      jumpi\n    tag_2:\n      0x00\n      dup1\n      revert\n        /* \"contracts/stakers.sol\":548:568  address public owner */\n    tag_3:\n      tag_6\n      tag_7\n      jump\t// in\n    tag_6:\n      mload(0x40)\n      tag_8\n      swap2\n      swap1\n      tag_9\n      jump\t// in\n    tag_8:\n      mload(0x40)\n      dup1\n      swap2\n      sub\n      swap1\n      return\n        /* \"contracts/stakers.sol\":1644:2317  function getTier(address wallet)... */\n    tag_4:\n      tag_10\n      0x04\n      dup1\n      calldatasize\n      sub\n      dup2\n      add\n      swap1\n      tag_11\n      swap2\n      swap1\n      tag_12\n      jump\t// in\n    tag_11:\n      tag_13\n      jump\t// in\n    tag_10:\n      mload(0x40)\n      tag_14\n      swap4\n      swap3\n      swap2\n      swap1\n      tag_15\n      jump\t// in\n    tag_14:\n      mload(0x40)\n      dup1\n      swap2\n      sub\n      swap1\n      return\n        /* \"contracts/stakers.sol\":728:1512  function stakers()... */\n    tag_5:\n      tag_16\n      tag_17\n      jump\t// in\n    tag_16:\n      mload(0x40)\n      tag_18\n      swap3\n      swap2\n      swap1\n      tag_19\n      jump\t// in\n    tag_18:\n      mload(0x40)\n      dup1\n      swap2\n      sub\n      swap1\n      return\n        /* \"contracts/stakers.sol\":548:568  address public owner */\n    tag_7:\n      0x03\n      0x00\n      swap1\n      sload\n      swap1\n      0x0100\n      exp\n      swap1\n      div\n      0xffffffffffffffffffffffffffffffffffffffff\n      and\n      dup2\n      jump\t// out\n        /* \"contracts/stakers.sol\":1644:2317  function getTier(address wallet)... */\n    tag_13:\n        /* \"contracts/stakers.sol\":1735:1748  string memory */\n      0x60\n        /* \"contracts/stakers.sol\":1762:1769  uint256 */\n      0x00\n        /* \"contracts/stakers.sol\":1783:1790  uint256 */\n      dup1\n        /* \"contracts/stakers.sol\":1815:1833  uint256 eaiBalance */\n      0x00\n        /* \"contracts/stakers.sol\":1843:1846  eai */\n      dup1\n      0x00\n      swap1\n      sload\n      swap1\n      0x0100\n      exp\n      swap1\n      div\n      0xffffffffffffffffffffffffffffffffffffffff\n      and\n        /* \"contracts/stakers.sol\":1836:1857  IERC20(eai).balanceOf */\n      0xffffffffffffffffffffffffffffffffffffffff\n      and\n      0x70a08231\n        /* \"contracts/stakers.sol\":1858:1864  wallet */\n      dup7\n        /* \"contracts/stakers.sol\":1836:1865  IERC20(eai).balanceOf(wallet) */\n      mload(0x40)\n      dup3\n      0xffffffff\n      and\n      0xe0\n      shl\n      dup2\n      mstore\n      0x04\n      add\n      tag_21\n      swap2\n      swap1\n      tag_9\n      jump\t// in\n    tag_21:\n      0x20\n      mload(0x40)\n      dup1\n      dup4\n      sub\n      dup2\n      dup7\n      gas\n      staticcall\n      iszero\n      dup1\n      iszero\n      tag_23\n      jumpi\n      returndatasize\n      0x00\n      dup1\n      returndatacopy\n      revert(0x00, returndatasize)\n    tag_23:\n      pop\n      pop\n      pop\n      pop\n      mload(0x40)\n      returndatasize\n      not(0x1f)\n      0x1f\n      dup3\n      add\n      and\n      dup3\n      add\n      dup1\n      0x40\n      mstore\n      pop\n      dup2\n      add\n      swap1\n      tag_24\n      swap2\n      swap1\n      tag_25\n      jump\t// in\n    tag_24:\n        /* \"contracts/stakers.sol\":1815:1865  uint256 eaiBalance = IERC20(eai).balanceOf(wallet) */\n      swap1\n      pop\n        /* \"contracts/stakers.sol\":1875:1895  uint256 tdeaiBalance */\n      0x00\n        /* \"contracts/stakers.sol\":1905:1910  tdeai */\n      0x02\n      0x00\n      swap1\n      sload\n      swap1\n      0x0100\n      exp\n      swap1\n      div\n      0xffffffffffffffffffffffffffffffffffffffff\n      and\n        /* \"contracts/stakers.sol\":1898:1921  IERC20(tdeai).balanceOf */\n      0xffffffffffffffffffffffffffffffffffffffff\n      and\n      0x70a08231\n        /* \"contracts/stakers.sol\":1922:1928  wallet */\n      dup8\n        /* \"contracts/stakers.sol\":1898:1929  IERC20(tdeai).balanceOf(wallet) */\n      mload(0x40)\n      dup3\n      0xffffffff\n      and\n      0xe0\n      shl\n      dup2\n      mstore\n      0x04\n      add\n      tag_26\n      swap2\n      swap1\n      tag_9\n      jump\t// in\n    tag_26:\n      0x20\n      mload(0x40)\n      dup1\n      dup4\n      sub\n      dup2\n      dup7\n      gas\n      staticcall\n      iszero\n      dup1\n      iszero\n      tag_28\n      jumpi\n      returndatasize\n      0x00\n      dup1\n      returndatacopy\n      revert(0x00, returndatasize)\n    tag_28:\n      pop\n      pop\n      pop\n      pop\n      mload(0x40)\n      returndatasize\n      not(0x1f)\n      0x1f\n      dup3\n      add\n      and\n      dup3\n      add\n      dup1\n      0x40\n      mstore\n      pop\n      dup2\n      add\n      swap1\n      tag_29\n      swap2\n      swap1\n      tag_25\n      jump\t// in\n    tag_29:\n        /* \"contracts/stakers.sol\":1875:1929  uint256 tdeaiBalance = IERC20(tdeai).balanceOf(wallet) */\n      swap1\n      pop\n        /* \"contracts/stakers.sol\":1940:1953  uint256 total */\n      0x00\n        /* \"contracts/stakers.sol\":1969:1981  tdeaiBalance */\n      dup2\n        /* \"contracts/stakers.sol\":1956:1966  eaiBalance */\n      dup4\n        /* \"contracts/stakers.sol\":1956:1981  eaiBalance + tdeaiBalance */\n      tag_30\n      swap2\n      swap1\n      tag_31\n      jump\t// in\n    tag_30:\n        /* \"contracts/stakers.sol\":1940:1981  uint256 total = eaiBalance + tdeaiBalance */\n      swap1\n      pop\n        /* \"contracts/stakers.sol\":1992:2010  string memory tier */\n      0x60\n        /* \"contracts/stakers.sol\":2034:2048  25000 * 10**18 */\n      0x054b40b1f852bda00000\n        /* \"contracts/stakers.sol\":2025:2030  total */\n      dup3\n        /* \"contracts/stakers.sol\":2025:2048  total >= 25000 * 10**18 */\n      lt\n        /* \"contracts/stakers.sol\":2021:2267  if (total >= 25000 * 10**18) tier = \"platinum\";... */\n      tag_32\n      jumpi\n        /* \"contracts/stakers.sol\":2050:2067  tier = \"platinum\" */\n      mload(0x40)\n      dup1\n      0x40\n      add\n      0x40\n      mstore\n      dup1\n      0x08\n      dup2\n      mstore\n      0x20\n      add\n      0x706c6174696e756d000000000000000000000000000000000000000000000000\n      dup2\n      mstore\n      pop\n      swap1\n      pop\n        /* \"contracts/stakers.sol\":2021:2267  if (total >= 25000 * 10**18) tier = \"platinum\";... */\n      jump(tag_33)\n    tag_32:\n        /* \"contracts/stakers.sol\":2095:2108  5000 * 10**18 */\n      0x010f0cf064dd59200000\n        /* \"contracts/stakers.sol\":2086:2091  total */\n      dup3\n        /* \"contracts/stakers.sol\":2086:2108  total >= 5000 * 10**18 */\n      lt\n        /* \"contracts/stakers.sol\":2082:2267  if (total >= 5000 * 10**18) tier = \"gold\";... */\n      tag_34\n      jumpi\n        /* \"contracts/stakers.sol\":2110:2123  tier = \"gold\" */\n      mload(0x40)\n      dup1\n      0x40\n      add\n      0x40\n      mstore\n      dup1\n      0x04\n      dup2\n      mstore\n      0x20\n      add\n      0x676f6c6400000000000000000000000000000000000000000000000000000000\n      dup2\n      mstore\n      pop\n      swap1\n      pop\n        /* \"contracts/stakers.sol\":2082:2267  if (total >= 5000 * 10**18) tier = \"gold\";... */\n      jump(tag_35)\n    tag_34:\n        /* \"contracts/stakers.sol\":2151:2164  2500 * 10**18 */\n      0x878678326eac900000\n        /* \"contracts/stakers.sol\":2142:2147  total */\n      dup3\n        /* \"contracts/stakers.sol\":2142:2164  total >= 2500 * 10**18 */\n      lt\n        /* \"contracts/stakers.sol\":2138:2267  if (total >= 2500 * 10**18) tier = \"silver\";... */\n      tag_36\n      jumpi\n        /* \"contracts/stakers.sol\":2166:2181  tier = \"silver\" */\n      mload(0x40)\n      dup1\n      0x40\n      add\n      0x40\n      mstore\n      dup1\n      0x06\n      dup2\n      mstore\n      0x20\n      add\n      0x73696c7665720000000000000000000000000000000000000000000000000000\n      dup2\n      mstore\n      pop\n      swap1\n      pop\n        /* \"contracts/stakers.sol\":2138:2267  if (total >= 2500 * 10**18) tier = \"silver\";... */\n      jump(tag_37)\n    tag_36:\n        /* \"contracts/stakers.sol\":2209:2222  1250 * 10**18 */\n      0x43c33c193756480000\n        /* \"contracts/stakers.sol\":2200:2205  total */\n      dup3\n        /* \"contracts/stakers.sol\":2200:2222  total >= 1250 * 10**18 */\n      lt\n        /* \"contracts/stakers.sol\":2196:2267  if (total >= 1250 * 10**18) tier = \"bronze\";... */\n      tag_38\n      jumpi\n        /* \"contracts/stakers.sol\":2224:2239  tier = \"bronze\" */\n      mload(0x40)\n      dup1\n      0x40\n      add\n      0x40\n      mstore\n      dup1\n      0x06\n      dup2\n      mstore\n      0x20\n      add\n      0x62726f6e7a650000000000000000000000000000000000000000000000000000\n      dup2\n      mstore\n      pop\n      swap1\n      pop\n        /* \"contracts/stakers.sol\":2196:2267  if (total >= 1250 * 10**18) tier = \"bronze\";... */\n      jump(tag_39)\n    tag_38:\n        /* \"contracts/stakers.sol\":2254:2267  tier = \"none\" */\n      mload(0x40)\n      dup1\n      0x40\n      add\n      0x40\n      mstore\n      dup1\n      0x04\n      dup2\n      mstore\n      0x20\n      add\n      0x6e6f6e6500000000000000000000000000000000000000000000000000000000\n      dup2\n      mstore\n      pop\n      swap1\n      pop\n        /* \"contracts/stakers.sol\":2196:2267  if (total >= 1250 * 10**18) tier = \"bronze\";... */\n    tag_39:\n        /* \"contracts/stakers.sol\":2138:2267  if (total >= 2500 * 10**18) tier = \"silver\";... */\n    tag_37:\n        /* \"contracts/stakers.sol\":2082:2267  if (total >= 5000 * 10**18) tier = \"gold\";... */\n    tag_35:\n        /* \"contracts/stakers.sol\":2021:2267  if (total >= 25000 * 10**18) tier = \"platinum\";... */\n    tag_33:\n        /* \"contracts/stakers.sol\":2286:2290  tier */\n      dup1\n        /* \"contracts/stakers.sol\":2292:2302  eaiBalance */\n      dup5\n        /* \"contracts/stakers.sol\":2304:2309  total */\n      dup4\n        /* \"contracts/stakers.sol\":2278:2310  return (tier, eaiBalance, total) */\n      swap7\n      pop\n      swap7\n      pop\n      swap7\n      pop\n      pop\n      pop\n      pop\n      pop\n        /* \"contracts/stakers.sol\":1644:2317  function getTier(address wallet)... */\n      swap2\n      swap4\n      swap1\n      swap3\n      pop\n      jump\t// out\n        /* \"contracts/stakers.sol\":728:1512  function stakers()... */\n    tag_17:\n        /* \"contracts/stakers.sol\":792:812  uint256 totalStakers */\n      0x00\n        /* \"contracts/stakers.sol\":814:844  WalletBalance[] memory wallets */\n      0x60\n        /* \"contracts/stakers.sol\":860:872  uint16 count */\n      0x00\n        /* \"contracts/stakers.sol\":886:896  uint16 max */\n      dup1\n        /* \"contracts/stakers.sol\":899:903  2000 */\n      0x07d0\n        /* \"contracts/stakers.sol\":886:903  uint16 max = 2000 */\n      swap1\n      pop\n        /* \"contracts/stakers.sol\":914:946  WalletBalance[] memory addresses */\n      0x00\n        /* \"contracts/stakers.sol\":969:972  max */\n      dup2\n        /* \"contracts/stakers.sol\":949:973  new WalletBalance[](max) */\n      0xffff\n      and\n      0xffffffffffffffff\n      dup2\n      gt\n      iszero\n      tag_41\n      jumpi\n      tag_42\n      tag_43\n      jump\t// in\n    tag_42:\n    tag_41:\n      mload(0x40)\n      swap1\n      dup1\n      dup3\n      mstore\n      dup1\n      0x20\n      mul\n      0x20\n      add\n      dup3\n      add\n      0x40\n      mstore\n      dup1\n      iszero\n      tag_44\n      jumpi\n      dup2\n      0x20\n      add\n    tag_45:\n      tag_46\n      tag_47\n      jump\t// in\n    tag_46:\n      dup2\n      mstore\n      0x20\n      add\n      swap1\n      0x01\n      swap1\n      sub\n      swap1\n      dup2\n      tag_45\n      jumpi\n      swap1\n      pop\n    tag_44:\n      pop\n        /* \"contracts/stakers.sol\":914:973  WalletBalance[] memory addresses = new WalletBalance[](max) */\n      swap1\n      pop\n        /* \"contracts/stakers.sol\":984:1310  while (count < max) {... */\n    tag_48:\n        /* \"contracts/stakers.sol\":999:1002  max */\n      dup2\n        /* \"contracts/stakers.sol\":991:1002  count < max */\n      0xffff\n      and\n        /* \"contracts/stakers.sol\":991:996  count */\n      dup4\n        /* \"contracts/stakers.sol\":991:1002  count < max */\n      0xffff\n      and\n      lt\n        /* \"contracts/stakers.sol\":984:1310  while (count < max) {... */\n      iszero\n      tag_49\n      jumpi\n        /* \"contracts/stakers.sol\":1034:1044  eaistaking */\n      0x01\n      0x00\n      swap1\n      sload\n      swap1\n      0x0100\n      exp\n      swap1\n      div\n      0xffffffffffffffffffffffffffffffffffffffff\n      and\n        /* \"contracts/stakers.sol\":1022:1053  IEAIStaking(eaistaking).stakers */\n      0xffffffffffffffffffffffffffffffffffffffff\n      and\n      0xfd5e6dd1\n        /* \"contracts/stakers.sol\":1054:1059  count */\n      dup5\n        /* \"contracts/stakers.sol\":1022:1060  IEAIStaking(eaistaking).stakers(count) */\n      mload(0x40)\n      dup3\n      0xffffffff\n      and\n      0xe0\n      shl\n      dup2\n      mstore\n      0x04\n      add\n      tag_50\n      swap2\n      swap1\n      tag_51\n      jump\t// in\n    tag_50:\n      0x20\n      mload(0x40)\n      dup1\n      dup4\n      sub\n      dup2\n      dup7\n      gas\n      staticcall\n      swap3\n      pop\n      pop\n      pop\n      dup1\n      iszero\n      tag_52\n      jumpi\n      pop\n      mload(0x40)\n      returndatasize\n      not(0x1f)\n      0x1f\n      dup3\n      add\n      and\n      dup3\n      add\n      dup1\n      0x40\n      mstore\n      pop\n      dup2\n      add\n      swap1\n      tag_53\n      swap2\n      swap1\n      tag_54\n      jump\t// in\n    tag_53:\n      0x01\n    tag_52:\n        /* \"contracts/stakers.sol\":1018:1300  try IEAIStaking(eaistaking).stakers(count) returns (address user) {... */\n      iszero\n        /* \"contracts/stakers.sol\":1280:1285  break */\n      tag_49\n        /* \"contracts/stakers.sol\":1018:1300  try IEAIStaking(eaistaking).stakers(count) returns (address user) {... */\n      jumpi\n        /* \"contracts/stakers.sol\":1102:1117  uint256 balance */\n      0x00\n        /* \"contracts/stakers.sol\":1127:1132  tdeai */\n      0x02\n      0x00\n      swap1\n      sload\n      swap1\n      0x0100\n      exp\n      swap1\n      div\n      0xffffffffffffffffffffffffffffffffffffffff\n      and\n        /* \"contracts/stakers.sol\":1120:1143  IERC20(tdeai).balanceOf */\n      0xffffffffffffffffffffffffffffffffffffffff\n      and\n      0x70a08231\n        /* \"contracts/stakers.sol\":1144:1148  user */\n      dup4\n        /* \"contracts/stakers.sol\":1120:1149  IERC20(tdeai).balanceOf(user) */\n      mload(0x40)\n      dup3\n      0xffffffff\n      and\n      0xe0\n      shl\n      dup2\n      mstore\n      0x04\n      add\n      tag_60\n      swap2\n      swap1\n      tag_9\n      jump\t// in\n    tag_60:\n      0x20\n      mload(0x40)\n      dup1\n      dup4\n      sub\n      dup2\n      dup7\n      gas\n      staticcall\n      iszero\n      dup1\n      iszero\n      tag_62\n      jumpi\n      returndatasize\n      0x00\n      dup1\n      returndatacopy\n      revert(0x00, returndatasize)\n    tag_62:\n      pop\n      pop\n      pop\n      pop\n      mload(0x40)\n      returndatasize\n      not(0x1f)\n      0x1f\n      dup3\n      add\n      and\n      dup3\n      add\n      dup1\n      0x40\n      mstore\n      pop\n      dup2\n      add\n      swap1\n      tag_63\n      swap2\n      swap1\n      tag_25\n      jump\t// in\n    tag_63:\n        /* \"contracts/stakers.sol\":1102:1149  uint256 balance = IERC20(tdeai).balanceOf(user) */\n      swap1\n      pop\n        /* \"contracts/stakers.sol\":1187:1215  WalletBalance(user, balance) */\n      mload(0x40)\n      dup1\n      0x40\n      add\n      0x40\n      mstore\n      dup1\n        /* \"contracts/stakers.sol\":1201:1205  user */\n      dup4\n        /* \"contracts/stakers.sol\":1187:1215  WalletBalance(user, balance) */\n      0xffffffffffffffffffffffffffffffffffffffff\n      and\n      dup2\n      mstore\n      0x20\n      add\n        /* \"contracts/stakers.sol\":1207:1214  balance */\n      dup3\n        /* \"contracts/stakers.sol\":1187:1215  WalletBalance(user, balance) */\n      dup2\n      mstore\n      pop\n        /* \"contracts/stakers.sol\":1168:1177  addresses */\n      dup4\n        /* \"contracts/stakers.sol\":1178:1183  count */\n      dup7\n        /* \"contracts/stakers.sol\":1168:1184  addresses[count] */\n      0xffff\n      and\n      dup2\n      mload\n      dup2\n      lt\n      tag_64\n      jumpi\n      tag_65\n      tag_66\n      jump\t// in\n    tag_65:\n    tag_64:\n      0x20\n      mul\n      0x20\n      add\n      add\n        /* \"contracts/stakers.sol\":1168:1215  addresses[count] = WalletBalance(user, balance) */\n      dup2\n      swap1\n      mstore\n      pop\n        /* \"contracts/stakers.sol\":1233:1240  count++ */\n      dup5\n      dup1\n      tag_67\n      swap1\n      tag_68\n      jump\t// in\n    tag_67:\n      swap6\n      pop\n      pop\n        /* \"contracts/stakers.sol\":1084:1255  {... */\n      pop\n        /* \"contracts/stakers.sol\":1061:1255  returns (address user) {... */\n      pop\n        /* \"contracts/stakers.sol\":984:1310  while (count < max) {... */\n      jump(tag_48)\n    tag_49:\n        /* \"contracts/stakers.sol\":1320:1349  WalletBalance[] memory result */\n      0x00\n        /* \"contracts/stakers.sol\":1372:1377  count */\n      dup4\n        /* \"contracts/stakers.sol\":1352:1378  new WalletBalance[](count) */\n      0xffff\n      and\n      0xffffffffffffffff\n      dup2\n      gt\n      iszero\n      tag_69\n      jumpi\n      tag_70\n      tag_43\n      jump\t// in\n    tag_70:\n    tag_69:\n      mload(0x40)\n      swap1\n      dup1\n      dup3\n      mstore\n      dup1\n      0x20\n      mul\n      0x20\n      add\n      dup3\n      add\n      0x40\n      mstore\n      dup1\n      iszero\n      tag_71\n      jumpi\n      dup2\n      0x20\n      add\n    tag_72:\n      tag_73\n      tag_47\n      jump\t// in\n    tag_73:\n      dup2\n      mstore\n      0x20\n      add\n      swap1\n      0x01\n      swap1\n      sub\n      swap1\n      dup2\n      tag_72\n      jumpi\n      swap1\n      pop\n    tag_71:\n      pop\n        /* \"contracts/stakers.sol\":1320:1378  WalletBalance[] memory result = new WalletBalance[](count) */\n      swap1\n      pop\n        /* \"contracts/stakers.sol\":1393:1402  uint256 i */\n      0x00\n        /* \"contracts/stakers.sol\":1388:1473  for (uint256 i = 0; i < count; i++) {... */\n    tag_74:\n        /* \"contracts/stakers.sol\":1412:1417  count */\n      dup5\n        /* \"contracts/stakers.sol\":1408:1417  i < count */\n      0xffff\n      and\n        /* \"contracts/stakers.sol\":1408:1409  i */\n      dup2\n        /* \"contracts/stakers.sol\":1408:1417  i < count */\n      lt\n        /* \"contracts/stakers.sol\":1388:1473  for (uint256 i = 0; i < count; i++) {... */\n      iszero\n      tag_75\n      jumpi\n        /* \"contracts/stakers.sol\":1450:1459  addresses */\n      dup3\n        /* \"contracts/stakers.sol\":1460:1461  i */\n      dup2\n        /* \"contracts/stakers.sol\":1450:1462  addresses[i] */\n      dup2\n      mload\n      dup2\n      lt\n      tag_77\n      jumpi\n      tag_78\n      tag_66\n      jump\t// in\n    tag_78:\n    tag_77:\n      0x20\n      mul\n      0x20\n      add\n      add\n      mload\n        /* \"contracts/stakers.sol\":1438:1444  result */\n      dup3\n        /* \"contracts/stakers.sol\":1445:1446  i */\n      dup3\n        /* \"contracts/stakers.sol\":1438:1447  result[i] */\n      dup2\n      mload\n      dup2\n      lt\n      tag_79\n      jumpi\n      tag_80\n      tag_66\n      jump\t// in\n    tag_80:\n    tag_79:\n      0x20\n      mul\n      0x20\n      add\n      add\n        /* \"contracts/stakers.sol\":1438:1462  result[i] = addresses[i] */\n      dup2\n      swap1\n      mstore\n      pop\n        /* \"contracts/stakers.sol\":1419:1422  i++ */\n      dup1\n      dup1\n      0x01\n      add\n      swap2\n      pop\n      pop\n        /* \"contracts/stakers.sol\":1388:1473  for (uint256 i = 0; i < count; i++) {... */\n      jump(tag_74)\n    tag_75:\n      pop\n        /* \"contracts/stakers.sol\":1491:1496  count */\n      dup4\n        /* \"contracts/stakers.sol\":1498:1504  result */\n      dup2\n        /* \"contracts/stakers.sol\":1483:1505  return (count, result) */\n      dup2\n      0xffff\n      and\n      swap2\n      pop\n      swap6\n      pop\n      swap6\n      pop\n      pop\n      pop\n      pop\n      pop\n        /* \"contracts/stakers.sol\":728:1512  function stakers()... */\n      swap1\n      swap2\n      jump\t// out\n    tag_47:\n      mload(0x40)\n      dup1\n      0x40\n      add\n      0x40\n      mstore\n      dup1\n      and(0xffffffffffffffffffffffffffffffffffffffff, 0x00)\n      dup2\n      mstore\n      0x20\n      add\n      0x00\n      dup2\n      mstore\n      pop\n      swap1\n      jump\t// out\n        /* \"#utility.yul\":7:133   */\n    tag_81:\n        /* \"#utility.yul\":44:51   */\n      0x00\n        /* \"#utility.yul\":84:126   */\n      0xffffffffffffffffffffffffffffffffffffffff\n        /* \"#utility.yul\":77:82   */\n      dup3\n        /* \"#utility.yul\":73:127   */\n      and\n        /* \"#utility.yul\":62:127   */\n      swap1\n      pop\n        /* \"#utility.yul\":7:133   */\n      swap2\n      swap1\n      pop\n      jump\t// out\n        /* \"#utility.yul\":139:235   */\n    tag_82:\n        /* \"#utility.yul\":176:183   */\n      0x00\n        /* \"#utility.yul\":205:229   */\n      tag_116\n        /* \"#utility.yul\":223:228   */\n      dup3\n        /* \"#utility.yul\":205:229   */\n      tag_81\n      jump\t// in\n    tag_116:\n        /* \"#utility.yul\":194:229   */\n      swap1\n      pop\n        /* \"#utility.yul\":139:235   */\n      swap2\n      swap1\n      pop\n      jump\t// out\n        /* \"#utility.yul\":241:359   */\n    tag_83:\n        /* \"#utility.yul\":328:352   */\n      tag_118\n        /* \"#utility.yul\":346:351   */\n      dup2\n        /* \"#utility.yul\":328:352   */\n      tag_82\n      jump\t// in\n    tag_118:\n        /* \"#utility.yul\":323:326   */\n      dup3\n        /* \"#utility.yul\":316:353   */\n      mstore\n        /* \"#utility.yul\":241:359   */\n      pop\n      pop\n      jump\t// out\n        /* \"#utility.yul\":365:587   */\n    tag_9:\n        /* \"#utility.yul\":458:462   */\n      0x00\n        /* \"#utility.yul\":496:498   */\n      0x20\n        /* \"#utility.yul\":485:494   */\n      dup3\n        /* \"#utility.yul\":481:499   */\n      add\n        /* \"#utility.yul\":473:499   */\n      swap1\n      pop\n        /* \"#utility.yul\":509:580   */\n      tag_120\n        /* \"#utility.yul\":577:578   */\n      0x00\n        /* \"#utility.yul\":566:575   */\n      dup4\n        /* \"#utility.yul\":562:579   */\n      add\n        /* \"#utility.yul\":553:559   */\n      dup5\n        /* \"#utility.yul\":509:580   */\n      tag_83\n      jump\t// in\n    tag_120:\n        /* \"#utility.yul\":365:587   */\n      swap3\n      swap2\n      pop\n      pop\n      jump\t// out\n        /* \"#utility.yul\":674:791   */\n    tag_85:\n        /* \"#utility.yul\":783:784   */\n      0x00\n        /* \"#utility.yul\":780:781   */\n      dup1\n        /* \"#utility.yul\":773:785   */\n      revert\n        /* \"#utility.yul\":920:1042   */\n    tag_87:\n        /* \"#utility.yul\":993:1017   */\n      tag_125\n        /* \"#utility.yul\":1011:1016   */\n      dup2\n        /* \"#utility.yul\":993:1017   */\n      tag_82\n      jump\t// in\n    tag_125:\n        /* \"#utility.yul\":986:991   */\n      dup2\n        /* \"#utility.yul\":983:1018   */\n      eq\n        /* \"#utility.yul\":973:1036   */\n      tag_126\n      jumpi\n        /* \"#utility.yul\":1032:1033   */\n      0x00\n        /* \"#utility.yul\":1029:1030   */\n      dup1\n        /* \"#utility.yul\":1022:1034   */\n      revert\n        /* \"#utility.yul\":973:1036   */\n    tag_126:\n        /* \"#utility.yul\":920:1042   */\n      pop\n      jump\t// out\n        /* \"#utility.yul\":1048:1187   */\n    tag_88:\n        /* \"#utility.yul\":1094:1099   */\n      0x00\n        /* \"#utility.yul\":1132:1138   */\n      dup2\n        /* \"#utility.yul\":1119:1139   */\n      calldataload\n        /* \"#utility.yul\":1110:1139   */\n      swap1\n      pop\n        /* \"#utility.yul\":1148:1181   */\n      tag_128\n        /* \"#utility.yul\":1175:1180   */\n      dup2\n        /* \"#utility.yul\":1148:1181   */\n      tag_87\n      jump\t// in\n    tag_128:\n        /* \"#utility.yul\":1048:1187   */\n      swap3\n      swap2\n      pop\n      pop\n      jump\t// out\n        /* \"#utility.yul\":1193:1522   */\n    tag_12:\n        /* \"#utility.yul\":1252:1258   */\n      0x00\n        /* \"#utility.yul\":1301:1303   */\n      0x20\n        /* \"#utility.yul\":1289:1298   */\n      dup3\n        /* \"#utility.yul\":1280:1287   */\n      dup5\n        /* \"#utility.yul\":1276:1299   */\n      sub\n        /* \"#utility.yul\":1272:1304   */\n      slt\n        /* \"#utility.yul\":1269:1388   */\n      iszero\n      tag_130\n      jumpi\n        /* \"#utility.yul\":1307:1386   */\n      tag_131\n      tag_85\n      jump\t// in\n    tag_131:\n        /* \"#utility.yul\":1269:1388   */\n    tag_130:\n        /* \"#utility.yul\":1427:1428   */\n      0x00\n        /* \"#utility.yul\":1452:1505   */\n      tag_132\n        /* \"#utility.yul\":1497:1504   */\n      dup5\n        /* \"#utility.yul\":1488:1494   */\n      dup3\n        /* \"#utility.yul\":1477:1486   */\n      dup6\n        /* \"#utility.yul\":1473:1495   */\n      add\n        /* \"#utility.yul\":1452:1505   */\n      tag_88\n      jump\t// in\n    tag_132:\n        /* \"#utility.yul\":1442:1505   */\n      swap2\n      pop\n        /* \"#utility.yul\":1398:1515   */\n      pop\n        /* \"#utility.yul\":1193:1522   */\n      swap3\n      swap2\n      pop\n      pop\n      jump\t// out\n        /* \"#utility.yul\":1528:1627   */\n    tag_89:\n        /* \"#utility.yul\":1580:1586   */\n      0x00\n        /* \"#utility.yul\":1614:1619   */\n      dup2\n        /* \"#utility.yul\":1608:1620   */\n      mload\n        /* \"#utility.yul\":1598:1620   */\n      swap1\n      pop\n        /* \"#utility.yul\":1528:1627   */\n      swap2\n      swap1\n      pop\n      jump\t// out\n        /* \"#utility.yul\":1633:1802   */\n    tag_90:\n        /* \"#utility.yul\":1717:1728   */\n      0x00\n        /* \"#utility.yul\":1751:1757   */\n      dup3\n        /* \"#utility.yul\":1746:1749   */\n      dup3\n        /* \"#utility.yul\":1739:1758   */\n      mstore\n        /* \"#utility.yul\":1791:1795   */\n      0x20\n        /* \"#utility.yul\":1786:1789   */\n      dup3\n        /* \"#utility.yul\":1782:1796   */\n      add\n        /* \"#utility.yul\":1767:1796   */\n      swap1\n      pop\n        /* \"#utility.yul\":1633:1802   */\n      swap3\n      swap2\n      pop\n      pop\n      jump\t// out\n        /* \"#utility.yul\":1808:1947   */\n    tag_91:\n        /* \"#utility.yul\":1897:1903   */\n      dup3\n        /* \"#utility.yul\":1892:1895   */\n      dup2\n        /* \"#utility.yul\":1887:1890   */\n      dup4\n        /* \"#utility.yul\":1881:1904   */\n      mcopy\n        /* \"#utility.yul\":1938:1939   */\n      0x00\n        /* \"#utility.yul\":1929:1935   */\n      dup4\n        /* \"#utility.yul\":1924:1927   */\n      dup4\n        /* \"#utility.yul\":1920:1936   */\n      add\n        /* \"#utility.yul\":1913:1940   */\n      mstore\n        /* \"#utility.yul\":1808:1947   */\n      pop\n      pop\n      pop\n      jump\t// out\n        /* \"#utility.yul\":1953:2055   */\n    tag_92:\n        /* \"#utility.yul\":1994:2000   */\n      0x00\n        /* \"#utility.yul\":2045:2047   */\n      0x1f\n        /* \"#utility.yul\":2041:2048   */\n      not\n        /* \"#utility.yul\":2036:2038   */\n      0x1f\n        /* \"#utility.yul\":2029:2034   */\n      dup4\n        /* \"#utility.yul\":2025:2039   */\n      add\n        /* \"#utility.yul\":2021:2049   */\n      and\n        /* \"#utility.yul\":2011:2049   */\n      swap1\n      pop\n        /* \"#utility.yul\":1953:2055   */\n      swap2\n      swap1\n      pop\n      jump\t// out\n        /* \"#utility.yul\":2061:2438   */\n    tag_93:\n        /* \"#utility.yul\":2149:2152   */\n      0x00\n        /* \"#utility.yul\":2177:2216   */\n      tag_138\n        /* \"#utility.yul\":2210:2215   */\n      dup3\n        /* \"#utility.yul\":2177:2216   */\n      tag_89\n      jump\t// in\n    tag_138:\n        /* \"#utility.yul\":2232:2303   */\n      tag_139\n        /* \"#utility.yul\":2296:2302   */\n      dup2\n        /* \"#utility.yul\":2291:2294   */\n      dup6\n        /* \"#utility.yul\":2232:2303   */\n      tag_90\n      jump\t// in\n    tag_139:\n        /* \"#utility.yul\":2225:2303   */\n      swap4\n      pop\n        /* \"#utility.yul\":2312:2377   */\n      tag_140\n        /* \"#utility.yul\":2370:2376   */\n      dup2\n        /* \"#utility.yul\":2365:2368   */\n      dup6\n        /* \"#utility.yul\":2358:2362   */\n      0x20\n        /* \"#utility.yul\":2351:2356   */\n      dup7\n        /* \"#utility.yul\":2347:2363   */\n      add\n        /* \"#utility.yul\":2312:2377   */\n      tag_91\n      jump\t// in\n    tag_140:\n        /* \"#utility.yul\":2402:2431   */\n      tag_141\n        /* \"#utility.yul\":2424:2430   */\n      dup2\n        /* \"#utility.yul\":2402:2431   */\n      tag_92\n      jump\t// in\n    tag_141:\n        /* \"#utility.yul\":2397:2400   */\n      dup5\n        /* \"#utility.yul\":2393:2432   */\n      add\n        /* \"#utility.yul\":2386:2432   */\n      swap2\n      pop\n        /* \"#utility.yul\":2153:2438   */\n      pop\n        /* \"#utility.yul\":2061:2438   */\n      swap3\n      swap2\n      pop\n      pop\n      jump\t// out\n        /* \"#utility.yul\":2444:2521   */\n    tag_94:\n        /* \"#utility.yul\":2481:2488   */\n      0x00\n        /* \"#utility.yul\":2510:2515   */\n      dup2\n        /* \"#utility.yul\":2499:2515   */\n      swap1\n      pop\n        /* \"#utility.yul\":2444:2521   */\n      swap2\n      swap1\n      pop\n      jump\t// out\n        /* \"#utility.yul\":2527:2645   */\n    tag_95:\n        /* \"#utility.yul\":2614:2638   */\n      tag_144\n        /* \"#utility.yul\":2632:2637   */\n      dup2\n        /* \"#utility.yul\":2614:2638   */\n      tag_94\n      jump\t// in\n    tag_144:\n        /* \"#utility.yul\":2609:2612   */\n      dup3\n        /* \"#utility.yul\":2602:2639   */\n      mstore\n        /* \"#utility.yul\":2527:2645   */\n      pop\n      pop\n      jump\t// out\n        /* \"#utility.yul\":2651:3184   */\n    tag_15:\n        /* \"#utility.yul\":2820:2824   */\n      0x00\n        /* \"#utility.yul\":2858:2860   */\n      0x60\n        /* \"#utility.yul\":2847:2856   */\n      dup3\n        /* \"#utility.yul\":2843:2861   */\n      add\n        /* \"#utility.yul\":2835:2861   */\n      swap1\n      pop\n        /* \"#utility.yul\":2907:2916   */\n      dup2\n        /* \"#utility.yul\":2901:2905   */\n      dup2\n        /* \"#utility.yul\":2897:2917   */\n      sub\n        /* \"#utility.yul\":2893:2894   */\n      0x00\n        /* \"#utility.yul\":2882:2891   */\n      dup4\n        /* \"#utility.yul\":2878:2895   */\n      add\n        /* \"#utility.yul\":2871:2918   */\n      mstore\n        /* \"#utility.yul\":2935:3013   */\n      tag_146\n        /* \"#utility.yul\":3008:3012   */\n      dup2\n        /* \"#utility.yul\":2999:3005   */\n      dup7\n        /* \"#utility.yul\":2935:3013   */\n      tag_93\n      jump\t// in\n    tag_146:\n        /* \"#utility.yul\":2927:3013   */\n      swap1\n      pop\n        /* \"#utility.yul\":3023:3095   */\n      tag_147\n        /* \"#utility.yul\":3091:3093   */\n      0x20\n        /* \"#utility.yul\":3080:3089   */\n      dup4\n        /* \"#utility.yul\":3076:3094   */\n      add\n        /* \"#utility.yul\":3067:3073   */\n      dup6\n        /* \"#utility.yul\":3023:3095   */\n      tag_95\n      jump\t// in\n    tag_147:\n        /* \"#utility.yul\":3105:3177   */\n      tag_148\n        /* \"#utility.yul\":3173:3175   */\n      0x40\n        /* \"#utility.yul\":3162:3171   */\n      dup4\n        /* \"#utility.yul\":3158:3176   */\n      add\n        /* \"#utility.yul\":3149:3155   */\n      dup5\n        /* \"#utility.yul\":3105:3177   */\n      tag_95\n      jump\t// in\n    tag_148:\n        /* \"#utility.yul\":2651:3184   */\n      swap5\n      swap4\n      pop\n      pop\n      pop\n      pop\n      jump\t// out\n        /* \"#utility.yul\":3190:3333   */\n    tag_96:\n        /* \"#utility.yul\":3286:3292   */\n      0x00\n        /* \"#utility.yul\":3320:3325   */\n      dup2\n        /* \"#utility.yul\":3314:3326   */\n      mload\n        /* \"#utility.yul\":3304:3326   */\n      swap1\n      pop\n        /* \"#utility.yul\":3190:3333   */\n      swap2\n      swap1\n      pop\n      jump\t// out\n        /* \"#utility.yul\":3339:3552   */\n    tag_97:\n        /* \"#utility.yul\":3467:3478   */\n      0x00\n        /* \"#utility.yul\":3501:3507   */\n      dup3\n        /* \"#utility.yul\":3496:3499   */\n      dup3\n        /* \"#utility.yul\":3489:3508   */\n      mstore\n        /* \"#utility.yul\":3541:3545   */\n      0x20\n        /* \"#utility.yul\":3536:3539   */\n      dup3\n        /* \"#utility.yul\":3532:3546   */\n      add\n        /* \"#utility.yul\":3517:3546   */\n      swap1\n      pop\n        /* \"#utility.yul\":3339:3552   */\n      swap3\n      swap2\n      pop\n      pop\n      jump\t// out\n        /* \"#utility.yul\":3558:3719   */\n    tag_98:\n        /* \"#utility.yul\":3654:3658   */\n      0x00\n        /* \"#utility.yul\":3677:3680   */\n      dup2\n        /* \"#utility.yul\":3669:3680   */\n      swap1\n      pop\n        /* \"#utility.yul\":3707:3711   */\n      0x20\n        /* \"#utility.yul\":3702:3705   */\n      dup3\n        /* \"#utility.yul\":3698:3712   */\n      add\n        /* \"#utility.yul\":3690:3712   */\n      swap1\n      pop\n        /* \"#utility.yul\":3558:3719   */\n      swap2\n      swap1\n      pop\n      jump\t// out\n        /* \"#utility.yul\":3725:3833   */\n    tag_99:\n        /* \"#utility.yul\":3802:3826   */\n      tag_153\n        /* \"#utility.yul\":3820:3825   */\n      dup2\n        /* \"#utility.yul\":3802:3826   */\n      tag_82\n      jump\t// in\n    tag_153:\n        /* \"#utility.yul\":3797:3800   */\n      dup3\n        /* \"#utility.yul\":3790:3827   */\n      mstore\n        /* \"#utility.yul\":3725:3833   */\n      pop\n      pop\n      jump\t// out\n        /* \"#utility.yul\":3839:3947   */\n    tag_100:\n        /* \"#utility.yul\":3916:3940   */\n      tag_155\n        /* \"#utility.yul\":3934:3939   */\n      dup2\n        /* \"#utility.yul\":3916:3940   */\n      tag_94\n      jump\t// in\n    tag_155:\n        /* \"#utility.yul\":3911:3914   */\n      dup3\n        /* \"#utility.yul\":3904:3941   */\n      mstore\n        /* \"#utility.yul\":3839:3947   */\n      pop\n      pop\n      jump\t// out\n        /* \"#utility.yul\":4005:4513   */\n    tag_101:\n        /* \"#utility.yul\":4150:4154   */\n      0x40\n        /* \"#utility.yul\":4145:4148   */\n      dup3\n        /* \"#utility.yul\":4141:4155   */\n      add\n        /* \"#utility.yul\":4237:4241   */\n      0x00\n        /* \"#utility.yul\":4230:4235   */\n      dup3\n        /* \"#utility.yul\":4226:4242   */\n      add\n        /* \"#utility.yul\":4220:4243   */\n      mload\n        /* \"#utility.yul\":4256:4319   */\n      tag_157\n        /* \"#utility.yul\":4313:4317   */\n      0x00\n        /* \"#utility.yul\":4308:4311   */\n      dup6\n        /* \"#utility.yul\":4304:4318   */\n      add\n        /* \"#utility.yul\":4290:4302   */\n      dup3\n        /* \"#utility.yul\":4256:4319   */\n      tag_99\n      jump\t// in\n    tag_157:\n        /* \"#utility.yul\":4165:4329   */\n      pop\n        /* \"#utility.yul\":4414:4418   */\n      0x20\n        /* \"#utility.yul\":4407:4412   */\n      dup3\n        /* \"#utility.yul\":4403:4419   */\n      add\n        /* \"#utility.yul\":4397:4420   */\n      mload\n        /* \"#utility.yul\":4433:4496   */\n      tag_158\n        /* \"#utility.yul\":4490:4494   */\n      0x20\n        /* \"#utility.yul\":4485:4488   */\n      dup6\n        /* \"#utility.yul\":4481:4495   */\n      add\n        /* \"#utility.yul\":4467:4479   */\n      dup3\n        /* \"#utility.yul\":4433:4496   */\n      tag_100\n      jump\t// in\n    tag_158:\n        /* \"#utility.yul\":4339:4506   */\n      pop\n        /* \"#utility.yul\":4119:4513   */\n      pop\n        /* \"#utility.yul\":4005:4513   */\n      pop\n      pop\n      jump\t// out\n        /* \"#utility.yul\":4519:4814   */\n    tag_102:\n        /* \"#utility.yul\":4646:4656   */\n      0x00\n        /* \"#utility.yul\":4667:4771   */\n      tag_160\n        /* \"#utility.yul\":4767:4770   */\n      dup4\n        /* \"#utility.yul\":4759:4765   */\n      dup4\n        /* \"#utility.yul\":4667:4771   */\n      tag_101\n      jump\t// in\n    tag_160:\n        /* \"#utility.yul\":4803:4807   */\n      0x40\n        /* \"#utility.yul\":4798:4801   */\n      dup4\n        /* \"#utility.yul\":4794:4808   */\n      add\n        /* \"#utility.yul\":4780:4808   */\n      swap1\n      pop\n        /* \"#utility.yul\":4519:4814   */\n      swap3\n      swap2\n      pop\n      pop\n      jump\t// out\n        /* \"#utility.yul\":4820:4962   */\n    tag_103:\n        /* \"#utility.yul\":4919:4923   */\n      0x00\n        /* \"#utility.yul\":4951:4955   */\n      0x20\n        /* \"#utility.yul\":4946:4949   */\n      dup3\n        /* \"#utility.yul\":4942:4956   */\n      add\n        /* \"#utility.yul\":4934:4956   */\n      swap1\n      pop\n        /* \"#utility.yul\":4820:4962   */\n      swap2\n      swap1\n      pop\n      jump\t// out\n        /* \"#utility.yul\":5024:5988   */\n    tag_104:\n        /* \"#utility.yul\":5201:5204   */\n      0x00\n        /* \"#utility.yul\":5230:5313   */\n      tag_163\n        /* \"#utility.yul\":5307:5312   */\n      dup3\n        /* \"#utility.yul\":5230:5313   */\n      tag_96\n      jump\t// in\n    tag_163:\n        /* \"#utility.yul\":5329:5444   */\n      tag_164\n        /* \"#utility.yul\":5437:5443   */\n      dup2\n        /* \"#utility.yul\":5432:5435   */\n      dup6\n        /* \"#utility.yul\":5329:5444   */\n      tag_97\n      jump\t// in\n    tag_164:\n        /* \"#utility.yul\":5322:5444   */\n      swap4\n      pop\n        /* \"#utility.yul\":5468:5553   */\n      tag_165\n        /* \"#utility.yul\":5547:5552   */\n      dup4\n        /* \"#utility.yul\":5468:5553   */\n      tag_98\n      jump\t// in\n    tag_165:\n        /* \"#utility.yul\":5576:5583   */\n      dup1\n        /* \"#utility.yul\":5607:5608   */\n      0x00\n        /* \"#utility.yul\":5592:5963   */\n    tag_166:\n        /* \"#utility.yul\":5617:5623   */\n      dup4\n        /* \"#utility.yul\":5614:5615   */\n      dup2\n        /* \"#utility.yul\":5611:5624   */\n      lt\n        /* \"#utility.yul\":5592:5963   */\n      iszero\n      tag_168\n      jumpi\n        /* \"#utility.yul\":5693:5699   */\n      dup2\n        /* \"#utility.yul\":5687:5700   */\n      mload\n        /* \"#utility.yul\":5720:5841   */\n      tag_169\n        /* \"#utility.yul\":5837:5840   */\n      dup9\n        /* \"#utility.yul\":5822:5835   */\n      dup3\n        /* \"#utility.yul\":5720:5841   */\n      tag_102\n      jump\t// in\n    tag_169:\n        /* \"#utility.yul\":5713:5841   */\n      swap8\n      pop\n        /* \"#utility.yul\":5864:5953   */\n      tag_170\n        /* \"#utility.yul\":5946:5952   */\n      dup4\n        /* \"#utility.yul\":5864:5953   */\n      tag_103\n      jump\t// in\n    tag_170:\n        /* \"#utility.yul\":5854:5953   */\n      swap3\n      pop\n        /* \"#utility.yul\":5652:5963   */\n      pop\n        /* \"#utility.yul\":5639:5640   */\n      0x01\n        /* \"#utility.yul\":5636:5637   */\n      dup2\n        /* \"#utility.yul\":5632:5641   */\n      add\n        /* \"#utility.yul\":5627:5641   */\n      swap1\n      pop\n        /* \"#utility.yul\":5592:5963   */\n      jump(tag_166)\n    tag_168:\n        /* \"#utility.yul\":5596:5610   */\n      pop\n        /* \"#utility.yul\":5979:5982   */\n      dup6\n        /* \"#utility.yul\":5972:5982   */\n      swap4\n      pop\n        /* \"#utility.yul\":5206:5988   */\n      pop\n      pop\n      pop\n        /* \"#utility.yul\":5024:5988   */\n      swap3\n      swap2\n      pop\n      pop\n      jump\t// out\n        /* \"#utility.yul\":5994:6593   */\n    tag_19:\n        /* \"#utility.yul\":6223:6227   */\n      0x00\n        /* \"#utility.yul\":6261:6263   */\n      0x40\n        /* \"#utility.yul\":6250:6259   */\n      dup3\n        /* \"#utility.yul\":6246:6264   */\n      add\n        /* \"#utility.yul\":6238:6264   */\n      swap1\n      pop\n        /* \"#utility.yul\":6274:6345   */\n      tag_172\n        /* \"#utility.yul\":6342:6343   */\n      0x00\n        /* \"#utility.yul\":6331:6340   */\n      dup4\n        /* \"#utility.yul\":6327:6344   */\n      add\n        /* \"#utility.yul\":6318:6324   */\n      dup6\n        /* \"#utility.yul\":6274:6345   */\n      tag_95\n      jump\t// in\n    tag_172:\n        /* \"#utility.yul\":6392:6401   */\n      dup2\n        /* \"#utility.yul\":6386:6390   */\n      dup2\n        /* \"#utility.yul\":6382:6402   */\n      sub\n        /* \"#utility.yul\":6377:6379   */\n      0x20\n        /* \"#utility.yul\":6366:6375   */\n      dup4\n        /* \"#utility.yul\":6362:6380   */\n      add\n        /* \"#utility.yul\":6355:6403   */\n      mstore\n        /* \"#utility.yul\":6420:6586   */\n      tag_173\n        /* \"#utility.yul\":6581:6585   */\n      dup2\n        /* \"#utility.yul\":6572:6578   */\n      dup5\n        /* \"#utility.yul\":6420:6586   */\n      tag_104\n      jump\t// in\n    tag_173:\n        /* \"#utility.yul\":6412:6586   */\n      swap1\n      pop\n        /* \"#utility.yul\":5994:6593   */\n      swap4\n      swap3\n      pop\n      pop\n      pop\n      jump\t// out\n        /* \"#utility.yul\":6599:6721   */\n    tag_105:\n        /* \"#utility.yul\":6672:6696   */\n      tag_175\n        /* \"#utility.yul\":6690:6695   */\n      dup2\n        /* \"#utility.yul\":6672:6696   */\n      tag_94\n      jump\t// in\n    tag_175:\n        /* \"#utility.yul\":6665:6670   */\n      dup2\n        /* \"#utility.yul\":6662:6697   */\n      eq\n        /* \"#utility.yul\":6652:6715   */\n      tag_176\n      jumpi\n        /* \"#utility.yul\":6711:6712   */\n      0x00\n        /* \"#utility.yul\":6708:6709   */\n      dup1\n        /* \"#utility.yul\":6701:6713   */\n      revert\n        /* \"#utility.yul\":6652:6715   */\n    tag_176:\n        /* \"#utility.yul\":6599:6721   */\n      pop\n      jump\t// out\n        /* \"#utility.yul\":6727:6870   */\n    tag_106:\n        /* \"#utility.yul\":6784:6789   */\n      0x00\n        /* \"#utility.yul\":6815:6821   */\n      dup2\n        /* \"#utility.yul\":6809:6822   */\n      mload\n        /* \"#utility.yul\":6800:6822   */\n      swap1\n      pop\n        /* \"#utility.yul\":6831:6864   */\n      tag_178\n        /* \"#utility.yul\":6858:6863   */\n      dup2\n        /* \"#utility.yul\":6831:6864   */\n      tag_105\n      jump\t// in\n    tag_178:\n        /* \"#utility.yul\":6727:6870   */\n      swap3\n      swap2\n      pop\n      pop\n      jump\t// out\n        /* \"#utility.yul\":6876:7227   */\n    tag_25:\n        /* \"#utility.yul\":6946:6952   */\n      0x00\n        /* \"#utility.yul\":6995:6997   */\n      0x20\n        /* \"#utility.yul\":6983:6992   */\n      dup3\n        /* \"#utility.yul\":6974:6981   */\n      dup5\n        /* \"#utility.yul\":6970:6993   */\n      sub\n        /* \"#utility.yul\":6966:6998   */\n      slt\n        /* \"#utility.yul\":6963:7082   */\n      iszero\n      tag_180\n      jumpi\n        /* \"#utility.yul\":7001:7080   */\n      tag_181\n      tag_85\n      jump\t// in\n    tag_181:\n        /* \"#utility.yul\":6963:7082   */\n    tag_180:\n        /* \"#utility.yul\":7121:7122   */\n      0x00\n        /* \"#utility.yul\":7146:7210   */\n      tag_182\n        /* \"#utility.yul\":7202:7209   */\n      dup5\n        /* \"#utility.yul\":7193:7199   */\n      dup3\n        /* \"#utility.yul\":7182:7191   */\n      dup6\n        /* \"#utility.yul\":7178:7200   */\n      add\n        /* \"#utility.yul\":7146:7210   */\n      tag_106\n      jump\t// in\n    tag_182:\n        /* \"#utility.yul\":7136:7210   */\n      swap2\n      pop\n        /* \"#utility.yul\":7092:7220   */\n      pop\n        /* \"#utility.yul\":6876:7227   */\n      swap3\n      swap2\n      pop\n      pop\n      jump\t// out\n        /* \"#utility.yul\":7233:7413   */\n    tag_107:\n        /* \"#utility.yul\":7281:7358   */\n      0x4e487b7100000000000000000000000000000000000000000000000000000000\n        /* \"#utility.yul\":7278:7279   */\n      0x00\n        /* \"#utility.yul\":7271:7359   */\n      mstore\n        /* \"#utility.yul\":7378:7382   */\n      0x11\n        /* \"#utility.yul\":7375:7376   */\n      0x04\n        /* \"#utility.yul\":7368:7383   */\n      mstore\n        /* \"#utility.yul\":7402:7406   */\n      0x24\n        /* \"#utility.yul\":7399:7400   */\n      0x00\n        /* \"#utility.yul\":7392:7407   */\n      revert\n        /* \"#utility.yul\":7419:7610   */\n    tag_31:\n        /* \"#utility.yul\":7459:7462   */\n      0x00\n        /* \"#utility.yul\":7478:7498   */\n      tag_185\n        /* \"#utility.yul\":7496:7497   */\n      dup3\n        /* \"#utility.yul\":7478:7498   */\n      tag_94\n      jump\t// in\n    tag_185:\n        /* \"#utility.yul\":7473:7498   */\n      swap2\n      pop\n        /* \"#utility.yul\":7512:7532   */\n      tag_186\n        /* \"#utility.yul\":7530:7531   */\n      dup4\n        /* \"#utility.yul\":7512:7532   */\n      tag_94\n      jump\t// in\n    tag_186:\n        /* \"#utility.yul\":7507:7532   */\n      swap3\n      pop\n        /* \"#utility.yul\":7555:7556   */\n      dup3\n        /* \"#utility.yul\":7552:7553   */\n      dup3\n        /* \"#utility.yul\":7548:7557   */\n      add\n        /* \"#utility.yul\":7541:7557   */\n      swap1\n      pop\n        /* \"#utility.yul\":7576:7579   */\n      dup1\n        /* \"#utility.yul\":7573:7574   */\n      dup3\n        /* \"#utility.yul\":7570:7580   */\n      gt\n        /* \"#utility.yul\":7567:7603   */\n      iszero\n      tag_187\n      jumpi\n        /* \"#utility.yul\":7583:7601   */\n      tag_188\n      tag_107\n      jump\t// in\n    tag_188:\n        /* \"#utility.yul\":7567:7603   */\n    tag_187:\n        /* \"#utility.yul\":7419:7610   */\n      swap3\n      swap2\n      pop\n      pop\n      jump\t// out\n        /* \"#utility.yul\":7616:7796   */\n    tag_43:\n        /* \"#utility.yul\":7664:7741   */\n      0x4e487b7100000000000000000000000000000000000000000000000000000000\n        /* \"#utility.yul\":7661:7662   */\n      0x00\n        /* \"#utility.yul\":7654:7742   */\n      mstore\n        /* \"#utility.yul\":7761:7765   */\n      0x41\n        /* \"#utility.yul\":7758:7759   */\n      0x04\n        /* \"#utility.yul\":7751:7766   */\n      mstore\n        /* \"#utility.yul\":7785:7789   */\n      0x24\n        /* \"#utility.yul\":7782:7783   */\n      0x00\n        /* \"#utility.yul\":7775:7790   */\n      revert\n        /* \"#utility.yul\":7802:7891   */\n    tag_108:\n        /* \"#utility.yul\":7838:7845   */\n      0x00\n        /* \"#utility.yul\":7878:7884   */\n      0xffff\n        /* \"#utility.yul\":7871:7876   */\n      dup3\n        /* \"#utility.yul\":7867:7885   */\n      and\n        /* \"#utility.yul\":7856:7885   */\n      swap1\n      pop\n        /* \"#utility.yul\":7802:7891   */\n      swap2\n      swap1\n      pop\n      jump\t// out\n        /* \"#utility.yul\":7897:7957   */\n    tag_109:\n        /* \"#utility.yul\":7925:7928   */\n      0x00\n        /* \"#utility.yul\":7946:7951   */\n      dup2\n        /* \"#utility.yul\":7939:7951   */\n      swap1\n      pop\n        /* \"#utility.yul\":7897:7957   */\n      swap2\n      swap1\n      pop\n      jump\t// out\n        /* \"#utility.yul\":7963:8103   */\n    tag_110:\n        /* \"#utility.yul\":8012:8021   */\n      0x00\n        /* \"#utility.yul\":8045:8097   */\n      tag_193\n        /* \"#utility.yul\":8063:8096   */\n      tag_194\n        /* \"#utility.yul\":8072:8095   */\n      tag_195\n        /* \"#utility.yul\":8089:8094   */\n      dup5\n        /* \"#utility.yul\":8072:8095   */\n      tag_108\n      jump\t// in\n    tag_195:\n        /* \"#utility.yul\":8063:8096   */\n      tag_109\n      jump\t// in\n    tag_194:\n        /* \"#utility.yul\":8045:8097   */\n      tag_94\n      jump\t// in\n    tag_193:\n        /* \"#utility.yul\":8032:8097   */\n      swap1\n      pop\n        /* \"#utility.yul\":7963:8103   */\n      swap2\n      swap1\n      pop\n      jump\t// out\n        /* \"#utility.yul\":8109:8238   */\n    tag_111:\n        /* \"#utility.yul\":8195:8231   */\n      tag_197\n        /* \"#utility.yul\":8225:8230   */\n      dup2\n        /* \"#utility.yul\":8195:8231   */\n      tag_110\n      jump\t// in\n    tag_197:\n        /* \"#utility.yul\":8190:8193   */\n      dup3\n        /* \"#utility.yul\":8183:8232   */\n      mstore\n        /* \"#utility.yul\":8109:8238   */\n      pop\n      pop\n      jump\t// out\n        /* \"#utility.yul\":8244:8464   */\n    tag_51:\n        /* \"#utility.yul\":8336:8340   */\n      0x00\n        /* \"#utility.yul\":8374:8376   */\n      0x20\n        /* \"#utility.yul\":8363:8372   */\n      dup3\n        /* \"#utility.yul\":8359:8377   */\n      add\n        /* \"#utility.yul\":8351:8377   */\n      swap1\n      pop\n        /* \"#utility.yul\":8387:8457   */\n      tag_199\n        /* \"#utility.yul\":8454:8455   */\n      0x00\n        /* \"#utility.yul\":8443:8452   */\n      dup4\n        /* \"#utility.yul\":8439:8456   */\n      add\n        /* \"#utility.yul\":8430:8436   */\n      dup5\n        /* \"#utility.yul\":8387:8457   */\n      tag_111\n      jump\t// in\n    tag_199:\n        /* \"#utility.yul\":8244:8464   */\n      swap3\n      swap2\n      pop\n      pop\n      jump\t// out\n        /* \"#utility.yul\":8470:8613   */\n    tag_112:\n        /* \"#utility.yul\":8527:8532   */\n      0x00\n        /* \"#utility.yul\":8558:8564   */\n      dup2\n        /* \"#utility.yul\":8552:8565   */\n      mload\n        /* \"#utility.yul\":8543:8565   */\n      swap1\n      pop\n        /* \"#utility.yul\":8574:8607   */\n      tag_201\n        /* \"#utility.yul\":8601:8606   */\n      dup2\n        /* \"#utility.yul\":8574:8607   */\n      tag_87\n      jump\t// in\n    tag_201:\n        /* \"#utility.yul\":8470:8613   */\n      swap3\n      swap2\n      pop\n      pop\n      jump\t// out\n        /* \"#utility.yul\":8619:8970   */\n    tag_54:\n        /* \"#utility.yul\":8689:8695   */\n      0x00\n        /* \"#utility.yul\":8738:8740   */\n      0x20\n        /* \"#utility.yul\":8726:8735   */\n      dup3\n        /* \"#utility.yul\":8717:8724   */\n      dup5\n        /* \"#utility.yul\":8713:8736   */\n      sub\n        /* \"#utility.yul\":8709:8741   */\n      slt\n        /* \"#utility.yul\":8706:8825   */\n      iszero\n      tag_203\n      jumpi\n        /* \"#utility.yul\":8744:8823   */\n      tag_204\n      tag_85\n      jump\t// in\n    tag_204:\n        /* \"#utility.yul\":8706:8825   */\n    tag_203:\n        /* \"#utility.yul\":8864:8865   */\n      0x00\n        /* \"#utility.yul\":8889:8953   */\n      tag_205\n        /* \"#utility.yul\":8945:8952   */\n      dup5\n        /* \"#utility.yul\":8936:8942   */\n      dup3\n        /* \"#utility.yul\":8925:8934   */\n      dup6\n        /* \"#utility.yul\":8921:8943   */\n      add\n        /* \"#utility.yul\":8889:8953   */\n      tag_112\n      jump\t// in\n    tag_205:\n        /* \"#utility.yul\":8879:8953   */\n      swap2\n      pop\n        /* \"#utility.yul\":8835:8963   */\n      pop\n        /* \"#utility.yul\":8619:8970   */\n      swap3\n      swap2\n      pop\n      pop\n      jump\t// out\n        /* \"#utility.yul\":8976:9156   */\n    tag_66:\n        /* \"#utility.yul\":9024:9101   */\n      0x4e487b7100000000000000000000000000000000000000000000000000000000\n        /* \"#utility.yul\":9021:9022   */\n      0x00\n        /* \"#utility.yul\":9014:9102   */\n      mstore\n        /* \"#utility.yul\":9121:9125   */\n      0x32\n        /* \"#utility.yul\":9118:9119   */\n      0x04\n        /* \"#utility.yul\":9111:9126   */\n      mstore\n        /* \"#utility.yul\":9145:9149   */\n      0x24\n        /* \"#utility.yul\":9142:9143   */\n      0x00\n        /* \"#utility.yul\":9135:9150   */\n      revert\n        /* \"#utility.yul\":9162:9333   */\n    tag_68:\n        /* \"#utility.yul\":9200:9203   */\n      0x00\n        /* \"#utility.yul\":9223:9246   */\n      tag_208\n        /* \"#utility.yul\":9240:9245   */\n      dup3\n        /* \"#utility.yul\":9223:9246   */\n      tag_108\n      jump\t// in\n    tag_208:\n        /* \"#utility.yul\":9214:9246   */\n      swap2\n      pop\n        /* \"#utility.yul\":9268:9274   */\n      0xffff\n        /* \"#utility.yul\":9261:9266   */\n      dup3\n        /* \"#utility.yul\":9258:9275   */\n      sub\n        /* \"#utility.yul\":9255:9298   */\n      tag_209\n      jumpi\n        /* \"#utility.yul\":9278:9296   */\n      tag_210\n      tag_107\n      jump\t// in\n    tag_210:\n        /* \"#utility.yul\":9255:9298   */\n    tag_209:\n        /* \"#utility.yul\":9325:9326   */\n      0x01\n        /* \"#utility.yul\":9318:9323   */\n      dup3\n        /* \"#utility.yul\":9314:9327   */\n      add\n        /* \"#utility.yul\":9307:9327   */\n      swap1\n      pop\n        /* \"#utility.yul\":9162:9333   */\n      swap2\n      swap1\n      pop\n      jump\t// out\n\n    auxdata: 0xa264697066735822122006f1a2871c14256d1e3390130cf0ae62abd7f5f1cf2bb5172a3dca44240202f964736f6c634300081a0033\n}\n",
				"bytecode": {
					"linkReferences": {},
					"object": "6080604052736797b6244fa75f2e78cdffc3a4eb169332b730cc5f806101000a81548173ffffffffffffffffffffffffffffffffffffffff021916908373ffffffffffffffffffffffffffffffffffffffff1602179055507318f8d9193af3bbe7f79100dafc0aa40421f8036e60015f6101000a81548173ffffffffffffffffffffffffffffffffffffffff021916908373ffffffffffffffffffffffffffffffffffffffff160217905550734342f4bc5375ecaf56fdf8b5294de5dbc0fbe88960025f6101000a81548173ffffffffffffffffffffffffffffffffffffffff021916908373ffffffffffffffffffffffffffffffffffffffff16021790555034801561010a575f80fd5b503360035f6101000a81548173ffffffffffffffffffffffffffffffffffffffff021916908373ffffffffffffffffffffffffffffffffffffffff160217905550610b4b806101585f395ff3fe608060405234801561000f575f80fd5b506004361061003f575f3560e01c80638da5cb5b14610043578063b45aae5214610061578063fed1252a14610093575b5f80fd5b61004b6100b2565b60405161005891906106e8565b60405180910390f35b61007b6004803603810190610076919061072f565b6100d7565b60405161008a939291906107e2565b60405180910390f35b61009b6103a9565b6040516100a9929190610911565b60405180910390f35b60035f9054906101000a900473ffffffffffffffffffffffffffffffffffffffff1681565b60605f805f805f9054906101000a900473ffffffffffffffffffffffffffffffffffffffff1673ffffffffffffffffffffffffffffffffffffffff166370a08231866040518263ffffffff1660e01b815260040161013591906106e8565b602060405180830381865afa158015610150573d5f803e3d5ffd5b505050506040513d601f19601f820116820180604052508101906101749190610969565b90505f60025f9054906101000a900473ffffffffffffffffffffffffffffffffffffffff1673ffffffffffffffffffffffffffffffffffffffff166370a08231876040518263ffffffff1660e01b81526004016101d191906106e8565b602060405180830381865afa1580156101ec573d5f803e3d5ffd5b505050506040513d601f19601f820116820180604052508101906102109190610969565b90505f818361021f91906109c1565b9050606069054b40b1f852bda000008210610271576040518060400160405280600881526020017f706c6174696e756d0000000000000000000000000000000000000000000000008152509050610395565b69010f0cf064dd5920000082106102bf576040518060400160405280600481526020017f676f6c64000000000000000000000000000000000000000000000000000000008152509050610394565b68878678326eac900000821061030c576040518060400160405280600681526020017f73696c76657200000000000000000000000000000000000000000000000000008152509050610393565b6843c33c1937564800008210610359576040518060400160405280600681526020017f62726f6e7a6500000000000000000000000000000000000000000000000000008152509050610392565b6040518060400160405280600481526020017f6e6f6e650000000000000000000000000000000000000000000000000000000081525090505b5b5b5b808483965096509650505050509193909250565b5f60605f806107d090505f8161ffff1667ffffffffffffffff8111156103d2576103d16109f4565b5b60405190808252806020026020018201604052801561040b57816020015b6103f861067b565b8152602001906001900390816103f05790505b5090505b8161ffff168361ffff1610156105b65760015f9054906101000a900473ffffffffffffffffffffffffffffffffffffffff1673ffffffffffffffffffffffffffffffffffffffff1663fd5e6dd1846040518263ffffffff1660e01b81526004016104799190610a67565b602060405180830381865afa9250505080156104b357506040513d601f19601f820116820180604052508101906104b09190610a94565b60015b156105b6575f60025f9054906101000a900473ffffffffffffffffffffffffffffffffffffffff1673ffffffffffffffffffffffffffffffffffffffff166370a08231836040518263ffffffff1660e01b815260040161051391906106e8565b602060405180830381865afa15801561052e573d5f803e3d5ffd5b505050506040513d601f19601f820116820180604052508101906105529190610969565b905060405180604001604052808373ffffffffffffffffffffffffffffffffffffffff16815260200182815250838661ffff168151811061059657610595610abf565b5b602002602001018190525084806105ac90610aec565b955050505061040f565b5f8361ffff1667ffffffffffffffff8111156105d5576105d46109f4565b5b60405190808252806020026020018201604052801561060e57816020015b6105fb61067b565b8152602001906001900390816105f35790505b5090505f5b8461ffff168110156106655782818151811061063257610631610abf565b5b602002602001015182828151811061064d5761064c610abf565b5b60200260200101819052508080600101915050610613565b5083818161ffff16915095509550505050509091565b60405180604001604052805f73ffffffffffffffffffffffffffffffffffffffff1681526020015f81525090565b5f73ffffffffffffffffffffffffffffffffffffffff82169050919050565b5f6106d2826106a9565b9050919050565b6106e2816106c8565b82525050565b5f6020820190506106fb5f8301846106d9565b92915050565b5f80fd5b61070e816106c8565b8114610718575f80fd5b50565b5f8135905061072981610705565b92915050565b5f6020828403121561074457610743610701565b5b5f6107518482850161071b565b91505092915050565b5f81519050919050565b5f82825260208201905092915050565b8281835e5f83830152505050565b5f601f19601f8301169050919050565b5f61079c8261075a565b6107a68185610764565b93506107b6818560208601610774565b6107bf81610782565b840191505092915050565b5f819050919050565b6107dc816107ca565b82525050565b5f6060820190508181035f8301526107fa8186610792565b905061080960208301856107d3565b61081660408301846107d3565b949350505050565b5f81519050919050565b5f82825260208201905092915050565b5f819050602082019050919050565b610850816106c8565b82525050565b61085f816107ca565b82525050565b604082015f8201516108795f850182610847565b50602082015161088c6020850182610856565b50505050565b5f61089d8383610865565b60408301905092915050565b5f602082019050919050565b5f6108bf8261081e565b6108c98185610828565b93506108d483610838565b805f5b838110156109045781516108eb8882610892565b97506108f6836108a9565b9250506001810190506108d7565b5085935050505092915050565b5f6040820190506109245f8301856107d3565b818103602083015261093681846108b5565b90509392505050565b610948816107ca565b8114610952575f80fd5b50565b5f815190506109638161093f565b92915050565b5f6020828403121561097e5761097d610701565b5b5f61098b84828501610955565b91505092915050565b7f4e487b71000000000000000000000000000000000000000000000000000000005f52601160045260245ffd5b5f6109cb826107ca565b91506109d6836107ca565b92508282019050808211156109ee576109ed610994565b5b92915050565b7f4e487b71000000000000000000000000000000000000000000000000000000005f52604160045260245ffd5b5f61ffff82169050919050565b5f819050919050565b5f610a51610a4c610a4784610a21565b610a2e565b6107ca565b9050919050565b610a6181610a37565b82525050565b5f602082019050610a7a5f830184610a58565b92915050565b5f81519050610a8e81610705565b92915050565b5f60208284031215610aa957610aa8610701565b5b5f610ab684828501610a80565b91505092915050565b7f4e487b71000000000000000000000000000000000000000000000000000000005f52603260045260245ffd5b5f610af682610a21565b915061ffff8203610b0a57610b09610994565b5b60018201905091905056fea264697066735822122006f1a2871c14256d1e3390130cf0ae62abd7f5f1cf2bb5172a3dca44240202f964736f6c634300081a0033",
					"opcodes": "PUSH1 0x80 PUSH1 0x40 MSTORE PUSH20 0x6797B6244FA75F2E78CDFFC3A4EB169332B730CC PUSH0 DUP1 PUSH2 0x100 EXP DUP2 SLOAD DUP2 PUSH20 0xFFFFFFFFFFFFFFFFFFFFFFFFFFFFFFFFFFFFFFFF MUL NOT AND SWAP1 DUP4 PUSH20 0xFFFFFFFFFFFFFFFFFFFFFFFFFFFFFFFFFFFFFFFF AND MUL OR SWAP1 SSTORE POP PUSH20 0x18F8D9193AF3BBE7F79100DAFC0AA40421F8036E PUSH1 0x1 PUSH0 PUSH2 0x100 EXP DUP2 SLOAD DUP2 PUSH20 0xFFFFFFFFFFFFFFFFFFFFFFFFFFFFFFFFFFFFFFFF MUL NOT AND SWAP1 DUP4 PUSH20 0xFFFFFFFFFFFFFFFFFFFFFFFFFFFFFFFFFFFFFFFF AND MUL OR SWAP1 SSTORE POP PUSH20 0x4342F4BC5375ECAF56FDF8B5294DE5DBC0FBE889 PUSH1 0x2 PUSH0 PUSH2 0x100 EXP DUP2 SLOAD DUP2 PUSH20 0xFFFFFFFFFFFFFFFFFFFFFFFFFFFFFFFFFFFFFFFF MUL NOT AND SWAP1 DUP4 PUSH20 0xFFFFFFFFFFFFFFFFFFFFFFFFFFFFFFFFFFFFFFFF AND MUL OR SWAP1 SSTORE POP CALLVALUE DUP1 ISZERO PUSH2 0x10A JUMPI PUSH0 DUP1 REVERT JUMPDEST POP CALLER PUSH1 0x3 PUSH0 PUSH2 0x100 EXP DUP2 SLOAD DUP2 PUSH20 0xFFFFFFFFFFFFFFFFFFFFFFFFFFFFFFFFFFFFFFFF MUL NOT AND SWAP1 DUP4 PUSH20 0xFFFFFFFFFFFFFFFFFFFFFFFFFFFFFFFFFFFFFFFF AND MUL OR SWAP1 SSTORE POP PUSH2 0xB4B DUP1 PUSH2 0x158 PUSH0 CODECOPY PUSH0 RETURN INVALID PUSH1 0x80 PUSH1 0x40 MSTORE CALLVALUE DUP1 ISZERO PUSH2 0xF JUMPI PUSH0 DUP1 REVERT JUMPDEST POP PUSH1 0x4 CALLDATASIZE LT PUSH2 0x3F JUMPI PUSH0 CALLDATALOAD PUSH1 0xE0 SHR DUP1 PUSH4 0x8DA5CB5B EQ PUSH2 0x43 JUMPI DUP1 PUSH4 0xB45AAE52 EQ PUSH2 0x61 JUMPI DUP1 PUSH4 0xFED1252A EQ PUSH2 0x93 JUMPI JUMPDEST PUSH0 DUP1 REVERT JUMPDEST PUSH2 0x4B PUSH2 0xB2 JUMP JUMPDEST PUSH1 0x40 MLOAD PUSH2 0x58 SWAP2 SWAP1 PUSH2 0x6E8 JUMP JUMPDEST PUSH1 0x40 MLOAD DUP1 SWAP2 SUB SWAP1 RETURN JUMPDEST PUSH2 0x7B PUSH1 0x4 DUP1 CALLDATASIZE SUB DUP2 ADD SWAP1 PUSH2 0x76 SWAP2 SWAP1 PUSH2 0x72F JUMP JUMPDEST PUSH2 0xD7 JUMP JUMPDEST PUSH1 0x40 MLOAD PUSH2 0x8A SWAP4 SWAP3 SWAP2 SWAP1 PUSH2 0x7E2 JUMP JUMPDEST PUSH1 0x40 MLOAD DUP1 SWAP2 SUB SWAP1 RETURN JUMPDEST PUSH2 0x9B PUSH2 0x3A9 JUMP JUMPDEST PUSH1 0x40 MLOAD PUSH2 0xA9 SWAP3 SWAP2 SWAP1 PUSH2 0x911 JUMP JUMPDEST PUSH1 0x40 MLOAD DUP1 SWAP2 SUB SWAP1 RETURN JUMPDEST PUSH1 0x3 PUSH0 SWAP1 SLOAD SWAP1 PUSH2 0x100 EXP SWAP1 DIV PUSH20 0xFFFFFFFFFFFFFFFFFFFFFFFFFFFFFFFFFFFFFFFF AND DUP2 JUMP JUMPDEST PUSH1 0x60 PUSH0 DUP1 PUSH0 DUP1 PUSH0 SWAP1 SLOAD SWAP1 PUSH2 0x100 EXP SWAP1 DIV PUSH20 0xFFFFFFFFFFFFFFFFFFFFFFFFFFFFFFFFFFFFFFFF AND PUSH20 0xFFFFFFFFFFFFFFFFFFFFFFFFFFFFFFFFFFFFFFFF AND PUSH4 0x70A08231 DUP7 PUSH1 0x40 MLOAD DUP3 PUSH4 0xFFFFFFFF AND PUSH1 0xE0 SHL DUP2 MSTORE PUSH1 0x4 ADD PUSH2 0x135 SWAP2 SWAP1 PUSH2 0x6E8 JUMP JUMPDEST PUSH1 0x20 PUSH1 0x40 MLOAD DUP1 DUP4 SUB DUP2 DUP7 GAS STATICCALL ISZERO DUP1 ISZERO PUSH2 0x150 JUMPI RETURNDATASIZE PUSH0 DUP1 RETURNDATACOPY RETURNDATASIZE PUSH0 REVERT JUMPDEST POP POP POP POP PUSH1 0x40 MLOAD RETURNDATASIZE PUSH1 0x1F NOT PUSH1 0x1F DUP3 ADD AND DUP3 ADD DUP1 PUSH1 0x40 MSTORE POP DUP2 ADD SWAP1 PUSH2 0x174 SWAP2 SWAP1 PUSH2 0x969 JUMP JUMPDEST SWAP1 POP PUSH0 PUSH1 0x2 PUSH0 SWAP1 SLOAD SWAP1 PUSH2 0x100 EXP SWAP1 DIV PUSH20 0xFFFFFFFFFFFFFFFFFFFFFFFFFFFFFFFFFFFFFFFF AND PUSH20 0xFFFFFFFFFFFFFFFFFFFFFFFFFFFFFFFFFFFFFFFF AND PUSH4 0x70A08231 DUP8 PUSH1 0x40 MLOAD DUP3 PUSH4 0xFFFFFFFF AND PUSH1 0xE0 SHL DUP2 MSTORE PUSH1 0x4 ADD PUSH2 0x1D1 SWAP2 SWAP1 PUSH2 0x6E8 JUMP JUMPDEST PUSH1 0x20 PUSH1 0x40 MLOAD DUP1 DUP4 SUB DUP2 DUP7 GAS STATICCALL ISZERO DUP1 ISZERO PUSH2 0x1EC JUMPI RETURNDATASIZE PUSH0 DUP1 RETURNDATACOPY RETURNDATASIZE PUSH0 REVERT JUMPDEST POP POP POP POP PUSH1 0x40 MLOAD RETURNDATASIZE PUSH1 0x1F NOT PUSH1 0x1F DUP3 ADD AND DUP3 ADD DUP1 PUSH1 0x40 MSTORE POP DUP2 ADD SWAP1 PUSH2 0x210 SWAP2 SWAP1 PUSH2 0x969 JUMP JUMPDEST SWAP1 POP PUSH0 DUP2 DUP4 PUSH2 0x21F SWAP2 SWAP1 PUSH2 0x9C1 JUMP JUMPDEST SWAP1 POP PUSH1 0x60 PUSH10 0x54B40B1F852BDA00000 DUP3 LT PUSH2 0x271 JUMPI PUSH1 0x40 MLOAD DUP1 PUSH1 0x40 ADD PUSH1 0x40 MSTORE DUP1 PUSH1 0x8 DUP2 MSTORE PUSH1 0x20 ADD PUSH32 0x706C6174696E756D000000000000000000000000000000000000000000000000 DUP2 MSTORE POP SWAP1 POP PUSH2 0x395 JUMP JUMPDEST PUSH10 0x10F0CF064DD59200000 DUP3 LT PUSH2 0x2BF JUMPI PUSH1 0x40 MLOAD DUP1 PUSH1 0x40 ADD PUSH1 0x40 MSTORE DUP1 PUSH1 0x4 DUP2 MSTORE PUSH1 0x20 ADD PUSH32 0x676F6C6400000000000000000000000000000000000000000000000000000000 DUP2 MSTORE POP SWAP1 POP PUSH2 0x394 JUMP JUMPDEST PUSH9 0x878678326EAC900000 DUP3 LT PUSH2 0x30C JUMPI PUSH1 0x40 MLOAD DUP1 PUSH1 0x40 ADD PUSH1 0x40 MSTORE DUP1 PUSH1 0x6 DUP2 MSTORE PUSH1 0x20 ADD PUSH32 0x73696C7665720000000000000000000000000000000000000000000000000000 DUP2 MSTORE POP SWAP1 POP PUSH2 0x393 JUMP JUMPDEST PUSH9 0x43C33C193756480000 DUP3 LT PUSH2 0x359 JUMPI PUSH1 0x40 MLOAD DUP1 PUSH1 0x40 ADD PUSH1 0x40 MSTORE DUP1 PUSH1 0x6 DUP2 MSTORE PUSH1 0x20 ADD PUSH32 0x62726F6E7A650000000000000000000000000000000000000000000000000000 DUP2 MSTORE POP SWAP1 POP PUSH2 0x392 JUMP JUMPDEST PUSH1 0x40 MLOAD DUP1 PUSH1 0x40 ADD PUSH1 0x40 MSTORE DUP1 PUSH1 0x4 DUP2 MSTORE PUSH1 0x20 ADD PUSH32 0x6E6F6E6500000000000000000000000000000000000000000000000000000000 DUP2 MSTORE POP SWAP1 POP JUMPDEST JUMPDEST JUMPDEST JUMPDEST DUP1 DUP5 DUP4 SWAP7 POP SWAP7 POP SWAP7 POP POP POP POP POP SWAP2 SWAP4 SWAP1 SWAP3 POP JUMP JUMPDEST PUSH0 PUSH1 0x60 PUSH0 DUP1 PUSH2 0x7D0 SWAP1 POP PUSH0 DUP2 PUSH2 0xFFFF AND PUSH8 0xFFFFFFFFFFFFFFFF DUP2 GT ISZERO PUSH2 0x3D2 JUMPI PUSH2 0x3D1 PUSH2 0x9F4 JUMP JUMPDEST JUMPDEST PUSH1 0x40 MLOAD SWAP1 DUP1 DUP3 MSTORE DUP1 PUSH1 0x20 MUL PUSH1 0x20 ADD DUP3 ADD PUSH1 0x40 MSTORE DUP1 ISZERO PUSH2 0x40B JUMPI DUP2 PUSH1 0x20 ADD JUMPDEST PUSH2 0x3F8 PUSH2 0x67B JUMP JUMPDEST DUP2 MSTORE PUSH1 0x20 ADD SWAP1 PUSH1 0x1 SWAP1 SUB SWAP1 DUP2 PUSH2 0x3F0 JUMPI SWAP1 POP JUMPDEST POP SWAP1 POP JUMPDEST DUP2 PUSH2 0xFFFF AND DUP4 PUSH2 0xFFFF AND LT ISZERO PUSH2 0x5B6 JUMPI PUSH1 0x1 PUSH0 SWAP1 SLOAD SWAP1 PUSH2 0x100 EXP SWAP1 DIV PUSH20 0xFFFFFFFFFFFFFFFFFFFFFFFFFFFFFFFFFFFFFFFF AND PUSH20 0xFFFFFFFFFFFFFFFFFFFFFFFFFFFFFFFFFFFFFFFF AND PUSH4 0xFD5E6DD1 DUP5 PUSH1 0x40 MLOAD DUP3 PUSH4 0xFFFFFFFF AND PUSH1 0xE0 SHL DUP2 MSTORE PUSH1 0x4 ADD PUSH2 0x479 SWAP2 SWAP1 PUSH2 0xA67 JUMP JUMPDEST PUSH1 0x20 PUSH1 0x40 MLOAD DUP1 DUP4 SUB DUP2 DUP7 GAS STATICCALL SWAP3 POP POP POP DUP1 ISZERO PUSH2 0x4B3 JUMPI POP PUSH1 0x40 MLOAD RETURNDATASIZE PUSH1 0x1F NOT PUSH1 0x1F DUP3 ADD AND DUP3 ADD DUP1 PUSH1 0x40 MSTORE POP DUP2 ADD SWAP1 PUSH2 0x4B0 SWAP2 SWAP1 PUSH2 0xA94 JUMP JUMPDEST PUSH1 0x1 JUMPDEST ISZERO PUSH2 0x5B6 JUMPI PUSH0 PUSH1 0x2 PUSH0 SWAP1 SLOAD SWAP1 PUSH2 0x100 EXP SWAP1 DIV PUSH20 0xFFFFFFFFFFFFFFFFFFFFFFFFFFFFFFFFFFFFFFFF AND PUSH20 0xFFFFFFFFFFFFFFFFFFFFFFFFFFFFFFFFFFFFFFFF AND PUSH4 0x70A08231 DUP4 PUSH1 0x40 MLOAD DUP3 PUSH4 0xFFFFFFFF AND PUSH1 0xE0 SHL DUP2 MSTORE PUSH1 0x4 ADD PUSH2 0x513 SWAP2 SWAP1 PUSH2 0x6E8 JUMP JUMPDEST PUSH1 0x20 PUSH1 0x40 MLOAD DUP1 DUP4 SUB DUP2 DUP7 GAS STATICCALL ISZERO DUP1 ISZERO PUSH2 0x52E JUMPI RETURNDATASIZE PUSH0 DUP1 RETURNDATACOPY RETURNDATASIZE PUSH0 REVERT JUMPDEST POP POP POP POP PUSH1 0x40 MLOAD RETURNDATASIZE PUSH1 0x1F NOT PUSH1 0x1F DUP3 ADD AND DUP3 ADD DUP1 PUSH1 0x40 MSTORE POP DUP2 ADD SWAP1 PUSH2 0x552 SWAP2 SWAP1 PUSH2 0x969 JUMP JUMPDEST SWAP1 POP PUSH1 0x40 MLOAD DUP1 PUSH1 0x40 ADD PUSH1 0x40 MSTORE DUP1 DUP4 PUSH20 0xFFFFFFFFFFFFFFFFFFFFFFFFFFFFFFFFFFFFFFFF AND DUP2 MSTORE PUSH1 0x20 ADD DUP3 DUP2 MSTORE POP DUP4 DUP7 PUSH2 0xFFFF AND DUP2 MLOAD DUP2 LT PUSH2 0x596 JUMPI PUSH2 0x595 PUSH2 0xABF JUMP JUMPDEST JUMPDEST PUSH1 0x20 MUL PUSH1 0x20 ADD ADD DUP2 SWAP1 MSTORE POP DUP5 DUP1 PUSH2 0x5AC SWAP1 PUSH2 0xAEC JUMP JUMPDEST SWAP6 POP POP POP POP PUSH2 0x40F JUMP JUMPDEST PUSH0 DUP4 PUSH2 0xFFFF AND PUSH8 0xFFFFFFFFFFFFFFFF DUP2 GT ISZERO PUSH2 0x5D5 JUMPI PUSH2 0x5D4 PUSH2 0x9F4 JUMP JUMPDEST JUMPDEST PUSH1 0x40 MLOAD SWAP1 DUP1 DUP3 MSTORE DUP1 PUSH1 0x20 MUL PUSH1 0x20 ADD DUP3 ADD PUSH1 0x40 MSTORE DUP1 ISZERO PUSH2 0x60E JUMPI DUP2 PUSH1 0x20 ADD JUMPDEST PUSH2 0x5FB PUSH2 0x67B JUMP JUMPDEST DUP2 MSTORE PUSH1 0x20 ADD SWAP1 PUSH1 0x1 SWAP1 SUB SWAP1 DUP2 PUSH2 0x5F3 JUMPI SWAP1 POP JUMPDEST POP SWAP1 POP PUSH0 JUMPDEST DUP5 PUSH2 0xFFFF AND DUP2 LT ISZERO PUSH2 0x665 JUMPI DUP3 DUP2 DUP2 MLOAD DUP2 LT PUSH2 0x632 JUMPI PUSH2 0x631 PUSH2 0xABF JUMP JUMPDEST JUMPDEST PUSH1 0x20 MUL PUSH1 0x20 ADD ADD MLOAD DUP3 DUP3 DUP2 MLOAD DUP2 LT PUSH2 0x64D JUMPI PUSH2 0x64C PUSH2 0xABF JUMP JUMPDEST JUMPDEST PUSH1 0x20 MUL PUSH1 0x20 ADD ADD DUP2 SWAP1 MSTORE POP DUP1 DUP1 PUSH1 0x1 ADD SWAP2 POP POP PUSH2 0x613 JUMP JUMPDEST POP DUP4 DUP2 DUP2 PUSH2 0xFFFF AND SWAP2 POP SWAP6 POP SWAP6 POP POP POP POP POP SWAP1 SWAP2 JUMP JUMPDEST PUSH1 0x40 MLOAD DUP1 PUSH1 0x40 ADD PUSH1 0x40 MSTORE DUP1 PUSH0 PUSH20 0xFFFFFFFFFFFFFFFFFFFFFFFFFFFFFFFFFFFFFFFF AND DUP2 MSTORE PUSH1 0x20 ADD PUSH0 DUP2 MSTORE POP SWAP1 JUMP JUMPDEST PUSH0 PUSH20 0xFFFFFFFFFFFFFFFFFFFFFFFFFFFFFFFFFFFFFFFF DUP3 AND SWAP1 POP SWAP2 SWAP1 POP JUMP JUMPDEST PUSH0 PUSH2 0x6D2 DUP3 PUSH2 0x6A9 JUMP JUMPDEST SWAP1 POP SWAP2 SWAP1 POP JUMP JUMPDEST PUSH2 0x6E2 DUP2 PUSH2 0x6C8 JUMP JUMPDEST DUP3 MSTORE POP POP JUMP JUMPDEST PUSH0 PUSH1 0x20 DUP3 ADD SWAP1 POP PUSH2 0x6FB PUSH0 DUP4 ADD DUP5 PUSH2 0x6D9 JUMP JUMPDEST SWAP3 SWAP2 POP POP JUMP JUMPDEST PUSH0 DUP1 REVERT JUMPDEST PUSH2 0x70E DUP2 PUSH2 0x6C8 JUMP JUMPDEST DUP2 EQ PUSH2 0x718 JUMPI PUSH0 DUP1 REVERT JUMPDEST POP JUMP JUMPDEST PUSH0 DUP2 CALLDATALOAD SWAP1 POP PUSH2 0x729 DUP2 PUSH2 0x705 JUMP JUMPDEST SWAP3 SWAP2 POP POP JUMP JUMPDEST PUSH0 PUSH1 0x20 DUP3 DUP5 SUB SLT ISZERO PUSH2 0x744 JUMPI PUSH2 0x743 PUSH2 0x701 JUMP JUMPDEST JUMPDEST PUSH0 PUSH2 0x751 DUP5 DUP3 DUP6 ADD PUSH2 0x71B JUMP JUMPDEST SWAP2 POP POP SWAP3 SWAP2 POP POP JUMP JUMPDEST PUSH0 DUP2 MLOAD SWAP1 POP SWAP2 SWAP1 POP JUMP JUMPDEST PUSH0 DUP3 DUP3 MSTORE PUSH1 0x20 DUP3 ADD SWAP1 POP SWAP3 SWAP2 POP POP JUMP JUMPDEST DUP3 DUP2 DUP4 MCOPY PUSH0 DUP4 DUP4 ADD MSTORE POP POP POP JUMP JUMPDEST PUSH0 PUSH1 0x1F NOT PUSH1 0x1F DUP4 ADD AND SWAP1 POP SWAP2 SWAP1 POP JUMP JUMPDEST PUSH0 PUSH2 0x79C DUP3 PUSH2 0x75A JUMP JUMPDEST PUSH2 0x7A6 DUP2 DUP6 PUSH2 0x764 JUMP JUMPDEST SWAP4 POP PUSH2 0x7B6 DUP2 DUP6 PUSH1 0x20 DUP7 ADD PUSH2 0x774 JUMP JUMPDEST PUSH2 0x7BF DUP2 PUSH2 0x782 JUMP JUMPDEST DUP5 ADD SWAP2 POP POP SWAP3 SWAP2 POP POP JUMP JUMPDEST PUSH0 DUP2 SWAP1 POP SWAP2 SWAP1 POP JUMP JUMPDEST PUSH2 0x7DC DUP2 PUSH2 0x7CA JUMP JUMPDEST DUP3 MSTORE POP POP JUMP JUMPDEST PUSH0 PUSH1 0x60 DUP3 ADD SWAP1 POP DUP2 DUP2 SUB PUSH0 DUP4 ADD MSTORE PUSH2 0x7FA DUP2 DUP7 PUSH2 0x792 JUMP JUMPDEST SWAP1 POP PUSH2 0x809 PUSH1 0x20 DUP4 ADD DUP6 PUSH2 0x7D3 JUMP JUMPDEST PUSH2 0x816 PUSH1 0x40 DUP4 ADD DUP5 PUSH2 0x7D3 JUMP JUMPDEST SWAP5 SWAP4 POP POP POP POP JUMP JUMPDEST PUSH0 DUP2 MLOAD SWAP1 POP SWAP2 SWAP1 POP JUMP JUMPDEST PUSH0 DUP3 DUP3 MSTORE PUSH1 0x20 DUP3 ADD SWAP1 POP SWAP3 SWAP2 POP POP JUMP JUMPDEST PUSH0 DUP2 SWAP1 POP PUSH1 0x20 DUP3 ADD SWAP1 POP SWAP2 SWAP1 POP JUMP JUMPDEST PUSH2 0x850 DUP2 PUSH2 0x6C8 JUMP JUMPDEST DUP3 MSTORE POP POP JUMP JUMPDEST PUSH2 0x85F DUP2 PUSH2 0x7CA JUMP JUMPDEST DUP3 MSTORE POP POP JUMP JUMPDEST PUSH1 0x40 DUP3 ADD PUSH0 DUP3 ADD MLOAD PUSH2 0x879 PUSH0 DUP6 ADD DUP3 PUSH2 0x847 JUMP JUMPDEST POP PUSH1 0x20 DUP3 ADD MLOAD PUSH2 0x88C PUSH1 0x20 DUP6 ADD DUP3 PUSH2 0x856 JUMP JUMPDEST POP POP POP POP JUMP JUMPDEST PUSH0 PUSH2 0x89D DUP4 DUP4 PUSH2 0x865 JUMP JUMPDEST PUSH1 0x40 DUP4 ADD SWAP1 POP SWAP3 SWAP2 POP POP JUMP JUMPDEST PUSH0 PUSH1 0x20 DUP3 ADD SWAP1 POP SWAP2 SWAP1 POP JUMP JUMPDEST PUSH0 PUSH2 0x8BF DUP3 PUSH2 0x81E JUMP JUMPDEST PUSH2 0x8C9 DUP2 DUP6 PUSH2 0x828 JUMP JUMPDEST SWAP4 POP PUSH2 0x8D4 DUP4 PUSH2 0x838 JUMP JUMPDEST DUP1 PUSH0 JUMPDEST DUP4 DUP2 LT ISZERO PUSH2 0x904 JUMPI DUP2 MLOAD PUSH2 0x8EB DUP9 DUP3 PUSH2 0x892 JUMP JUMPDEST SWAP8 POP PUSH2 0x8F6 DUP4 PUSH2 0x8A9 JUMP JUMPDEST SWAP3 POP POP PUSH1 0x1 DUP2 ADD SWAP1 POP PUSH2 0x8D7 JUMP JUMPDEST POP DUP6 SWAP4 POP POP POP POP SWAP3 SWAP2 POP POP JUMP JUMPDEST PUSH0 PUSH1 0x40 DUP3 ADD SWAP1 POP PUSH2 0x924 PUSH0 DUP4 ADD DUP6 PUSH2 0x7D3 JUMP JUMPDEST DUP2 DUP2 SUB PUSH1 0x20 DUP4 ADD MSTORE PUSH2 0x936 DUP2 DUP5 PUSH2 0x8B5 JUMP JUMPDEST SWAP1 POP SWAP4 SWAP3 POP POP POP JUMP JUMPDEST PUSH2 0x948 DUP2 PUSH2 0x7CA JUMP JUMPDEST DUP2 EQ PUSH2 0x952 JUMPI PUSH0 DUP1 REVERT JUMPDEST POP JUMP JUMPDEST PUSH0 DUP2 MLOAD SWAP1 POP PUSH2 0x963 DUP2 PUSH2 0x93F JUMP JUMPDEST SWAP3 SWAP2 POP POP JUMP JUMPDEST PUSH0 PUSH1 0x20 DUP3 DUP5 SUB SLT ISZERO PUSH2 0x97E JUMPI PUSH2 0x97D PUSH2 0x701 JUMP JUMPDEST JUMPDEST PUSH0 PUSH2 0x98B DUP5 DUP3 DUP6 ADD PUSH2 0x955 JUMP JUMPDEST SWAP2 POP POP SWAP3 SWAP2 POP POP JUMP JUMPDEST PUSH32 0x4E487B7100000000000000000000000000000000000000000000000000000000 PUSH0 MSTORE PUSH1 0x11 PUSH1 0x4 MSTORE PUSH1 0x24 PUSH0 REVERT JUMPDEST PUSH0 PUSH2 0x9CB DUP3 PUSH2 0x7CA JUMP JUMPDEST SWAP2 POP PUSH2 0x9D6 DUP4 PUSH2 0x7CA JUMP JUMPDEST SWAP3 POP DUP3 DUP3 ADD SWAP1 POP DUP1 DUP3 GT ISZERO PUSH2 0x9EE JUMPI PUSH2 0x9ED PUSH2 0x994 JUMP JUMPDEST JUMPDEST SWAP3 SWAP2 POP POP JUMP JUMPDEST PUSH32 0x4E487B7100000000000000000000000000000000000000000000000000000000 PUSH0 MSTORE PUSH1 0x41 PUSH1 0x4 MSTORE PUSH1 0x24 PUSH0 REVERT JUMPDEST PUSH0 PUSH2 0xFFFF DUP3 AND SWAP1 POP SWAP2 SWAP1 POP JUMP JUMPDEST PUSH0 DUP2 SWAP1 POP SWAP2 SWAP1 POP JUMP JUMPDEST PUSH0 PUSH2 0xA51 PUSH2 0xA4C PUSH2 0xA47 DUP5 PUSH2 0xA21 JUMP JUMPDEST PUSH2 0xA2E JUMP JUMPDEST PUSH2 0x7CA JUMP JUMPDEST SWAP1 POP SWAP2 SWAP1 POP JUMP JUMPDEST PUSH2 0xA61 DUP2 PUSH2 0xA37 JUMP JUMPDEST DUP3 MSTORE POP POP JUMP JUMPDEST PUSH0 PUSH1 0x20 DUP3 ADD SWAP1 POP PUSH2 0xA7A PUSH0 DUP4 ADD DUP5 PUSH2 0xA58 JUMP JUMPDEST SWAP3 SWAP2 POP POP JUMP JUMPDEST PUSH0 DUP2 MLOAD SWAP1 POP PUSH2 0xA8E DUP2 PUSH2 0x705 JUMP JUMPDEST SWAP3 SWAP2 POP POP JUMP JUMPDEST PUSH0 PUSH1 0x20 DUP3 DUP5 SUB SLT ISZERO PUSH2 0xAA9 JUMPI PUSH2 0xAA8 PUSH2 0x701 JUMP JUMPDEST JUMPDEST PUSH0 PUSH2 0xAB6 DUP5 DUP3 DUP6 ADD PUSH2 0xA80 JUMP JUMPDEST SWAP2 POP POP SWAP3 SWAP2 POP POP JUMP JUMPDEST PUSH32 0x4E487B7100000000000000000000000000000000000000000000000000000000 PUSH0 MSTORE PUSH1 0x32 PUSH1 0x4 MSTORE PUSH1 0x24 PUSH0 REVERT JUMPDEST PUSH0 PUSH2 0xAF6 DUP3 PUSH2 0xA21 JUMP JUMPDEST SWAP2 POP PUSH2 0xFFFF DUP3 SUB PUSH2 0xB0A JUMPI PUSH2 0xB09 PUSH2 0x994 JUMP JUMPDEST JUMPDEST PUSH1 0x1 DUP3 ADD SWAP1 POP SWAP2 SWAP1 POP JUMP INVALID LOG2 PUSH5 0x6970667358 0x22 SLT KECCAK256 MOD CALL LOG2 DUP8 SHR EQ 0x25 PUSH14 0x1E3390130CF0AE62ABD7F5F1CF2B 0xB5 OR 0x2A RETURNDATASIZE 0xCA PREVRANDAO 0x24 MUL MUL 0xF9 PUSH5 0x736F6C6343 STOP ADDMOD BYTE STOP CALLER "
				},
				"gasEstimates": {
					"creation": {
						"codeDepositCost": "578200",
						"executionCost": "97674",
						"totalCost": "675874"
					},
					"external": {
						"getTier(address)": "infinite",
						"owner()": "2486",
						"stakers()": "infinite"
					}
				},
				"methodIdentifiers": {
					"getTier(address)": "b45aae52",
					"owner()": "8da5cb5b",
					"stakers()": "fed1252a"
				}
			},
			"storageLayout": {
				"storage": [
					{
						"astId": 25,
						"contract": "contracts/stakers.sol:EAIUtilities",
						"label": "eai",
						"offset": 0,
						"slot": "0",
						"type": "t_address"
					},
					{
						"astId": 28,
						"contract": "contracts/stakers.sol:EAIUtilities",
						"label": "eaistaking",
						"offset": 0,
						"slot": "1",
						"type": "t_address"
					},
					{
						"astId": 31,
						"contract": "contracts/stakers.sol:EAIUtilities",
						"label": "tdeai",
						"offset": 0,
						"slot": "2",
						"type": "t_address"
					},
					{
						"astId": 33,
						"contract": "contracts/stakers.sol:EAIUtilities",
						"label": "owner",
						"offset": 0,
						"slot": "3",
						"type": "t_address"
					}
				],
				"types": {
					"t_address": {
						"encoding": "inplace",
						"label": "address",
						"numberOfBytes": "20"
					}
				}
			},
			"userdoc": {
				"kind": "user",
				"methods": {},
				"version": 1
			}
		}
	}
}